:10000000021ECC02BD3AEBAA082222020049B40229
:1000100004A9B7EA2224FFA997EA2202BD0EB4027E
:1000200004A9B6EA2224FFA996EA220281477F604A
:10003000A9C2EA74011212967F0612048D7F06028D
:1000400008D02202816302335D323202004A120F6D
:1000500069021279000000000000320200760102FD
:10006000040810204080F5FDE5FE2202005A023708
:10007000FAFFFF020F19CA7BCA6BCA5BCA4BCA2BB5
:10008000CA1BCA0BC0D0C083C082D20F7E0F33CD33
:10009000693000047A7333DD7E7333DD0A375E34F2
:1000A00000046804D20E8002C20E7E34001F793034
:1000B0000004C2C312119E1281A67E1F33CD693186
:1000C00000025E340040682E6CAA7E1002AC1A7EDC
:1000D0001F33CD7F712DF06917009C591033D10B60
:1000E000A0BEA00378E4691100A47A1733D969315E
:1000F00000A27A3733D7A9C1C4D082D083D0D0DA56
:100100000BDA1BDA2BDA4BDA5BDA6BDA7B327D1334
:100110007E1F3A001B1A10C2C6D2EE22FFFF542CDB
:10012000CA797F507CEB7E3400247E08002C7E242C
:100130000002126416E52CBEB0003802214AE52CFC
:10014000BEB0182802214A7EE12CBEE018380221F8
:10015000787E341D45793500027E341D29793500BD
:1001600004BEE0816802217174237A5BB0741C4183
:100170005D74017A5BB0415D7CBE14BEB015400277
:1001800041097EA003A490018A730201CB0201CB36
:100190000202090201CB0202090201D10201CB02D3
:1001A00002090202090201CB0202090201CB02028A
:1001B000090202090201FB0202090201DF0201CB6E
:1001C0000201ED0201ED0201CB21CB7E341D19416C
:1001D0000D7E341D45793500027E341CE241157ECA
:1001E000341D19793500027E341CB241157E341C51
:1001F00096793500027E341CC641157E341D0A797D
:100200003500027E341CF141157E341D45793500E0
:10021000027E341D2979350004BEE01628024124EF
:100220007CFE413B7EF016BEE049680241320BF095
:10023000413BBEE04A6802413B0BF17E7003AC7F5C
:100240007D232E241D697A51827A4183E4937A5B5F
:10025000B02E341D6A7A71827A6183E49339B500D5
:1002600001DA7922CA3B7F3074011212DE29730051
:10027000F32E70FF920129B300F41212AF7F031224
:100280000BE97F031205932973000A0A377E0F33A7
:10029000CD79300024297300A30A273E243E243E52
:1002A000243E243E243E243E24693300FF4D327E0A
:1002B0000F33CD793000022973000A0A47297300F1
:1002C000050A579D54F53529B300A5700B29B300D5
:1002D000F8297300F7120A24297300A52E70FF92E3
:1002E00001E535120995693300FD7E0F33CD793074
:1002F0000028692300FB3E243E243E243E243E2465
:100300003E24297300FA0A372D327E0F33CD79301F
:10031000002A297300F90A377E0F33CD7930002C7B
:100320007E3400017E0F33CD793000347E34010BF2
:100330007E0F33CD7930002E297300050A377E0FEA
:1003400033CD79300010693300A87E0F33CD79307A
:10035000001C693300AA7E0F33CD7930001E6CAAD1
:100360007E5002AC5A691301012D127E0400FF0B6E
:100370000A307E0F33CD2D12793000440BA0BEA081
:100380000C40DDDA3B22CAF87F707E7BF0297700D3
:1003900001BC7F28027CF7691700066D007E3400DF
:1003A000F274FF121FEE7F07120DC4A9D6CB6CAA00
:1003B000802D6C77801F7E100BAC1A0A172D013E22
:1003C00004691700062D106D000B0A206E24FFFF34
:1003D0001B0A200B7029670001BC6738D90BA07E6F
:1003E0007B60BC6A38CC693700067E0F3A097930E9
:1003F00000047C4F6C550A3F2D327E0F3A0979304C
:10040000000C6D117E1F3A091B1A107E3400D012A9
:100410000E1C6CAABEA00450187E7004AC7A7CB787
:100420007E1F3A096941002660421E441478FB8011
:100430003BBEA008501B0A3A1B363E343E347CB704
:100440007E1F3A096941002860221E441478FB800F
:100450001B0A3A9E3400083E343E347CB77E1F3A75
:10046000096941002A60051E441478FB5E44000FB0
:100470007E5002AC5A693700062D326D221B1A409D
:100480000BA0BEA00B408DA9C6CBDAF822297000C4
:100490009629900098296000972980008DBE8004DD
:1004A00038046CAA8021BE800838057EA001801720
:1004B000BE801038057EA002800DBE802038057EEB
:1004C000A00380037EA004BE900328037E9003BE99
:1004D000803F28037E803FBE600128037E6001BE0E
:1004E000700228026C770A283E243E243E243E24D3
:1004F0003E247C896C993E443E443E442D420A266B
:100500003E243E243E243E242D240A373E343E34ED
:100510002D327E7F3A007937000229B0008C7C4B67
:100520006C5529B0008B0A3B2D327E7F33C579375D
:100530000080693000A07E7F3A007937000C693076
:10054000009E5E34E00F29B0008C0A2B1B243E2451
:100550003E243E243E242D327E7F33C579370082EF
:100560000A2A3E243E243E243E2429B000990A3B18
:100570002D327E7F3A00793700066930009C7E7FFD
:100580003A00793700086930009A7E0F3A007930D6
:10059000000A227F6074011212DE293600F5292636
:1005A00000A3291600A4BE200228037E2002BE104C
:1005B0004028037E10407E3400047CB260053E3447
:1005C0001478FB7C070A317E2F33CD793200127C00
:1005D00073AC700A21121DB37C270A327E2F33CDF3
:1005E000793200147C73AC70292600F60A22AD32F1
:1005F0000A218D327D437C73AC700A21121DB37CBD
:10060000A77C2A7CB92CABBEA00C50037EA00CBEEC
:10061000200C50037E200C0A200A31121DB37DE30A
:100620000A3A0B34AD3E0B34BE34020040047E3433
:1006300001FF294600F77E5002AC450AF2ADFE2DBF
:100640002F0B24BE24020040047E2401FF0A137EE7
:100650007F33CD7917000A1E247C456C551E342D3E
:10066000327E0F33CD7930000C0A3A7E0F33CD79CC
:10067000300022227F21A9D6CB693000047E7F3A48
:100680000979370004693000087E7F3A097937001C
:1006900006693000067E7F3A097937000829700024
:1006A000017C476C557E0B700A372D327E7F3A09EC
:1006B0007937000C297000020A371B347E7F3A0913
:1006C0007937000A6930000A7E7F3A097937000ECF
:1006D0006930000C7E7F3A09793700106930000ECE
:1006E0007E7F3A0979370012297000037C276C332A
:1006F0007E1F3A091B1A107E3400A0120E1C7E1FAA
:100700003A096911001A7A2B306911001C3932003C
:10071000016911001679120002691100187912009E
:10072000046911002279120006691100247912006F
:10073000086911001E7912000A693100207932001F
:100740000CA9C6CB227C7B7E7F33CD6947000C6C25
:10075000883E446907000A695700021E541E541E51
:10076000541E541E541E541E545E5400037E140026
:10077000047002E17A3E141478FB7CA30ADAADD04F
:100780007DCD6D117917008C7CB77002E1931ED47A
:100790001478FBBED401003802E1A17ED40100E14F
:1007A000ADBED400104002E1AD7ED400107D3D12FC
:1007B000116A0A1B7E1F33CD791100907E1F33CD45
:1007C00079D1008E7E7F33CD69370008AD3C8D3DF9
:1007D000793700927E1400067E1F33CD7911009484
:1007E0007D249D200A3AAD327E0F33CD79300096BC
:1007F0007E3400107E0F33CD7930009822B28622ED
:10080000CA3B7C577C4B5E4003693000045E603F0E
:100810006CAA0A4A69F0000A69E000082DF47E7BA0
:10082000B00AFB7D4F7C896C997DF40AEA69D0009F
:100830000E69C0000C2DDE7E6BB00A4B2D4F7ED0B2
:1008400028ACD57EF002ACFA7DD72DD67EF0F0AC88
:10085000F42DD77E7F39FC2DFD7947018C0BA0BE8E
:10086000A00E78AE6CAA7E9002AC9A69F000020BE2
:100870000AE02DF40B7A407ED028ACD57EF002AC95
:10088000FA7DD72DD67EF0F0ACF42DD77E7F39FCE3
:100890002DFD794701800BA0BEA00440C97E90F0D9
:1008A000AC947428ACB57DF52DF47E2F39FC2D5F0A
:1008B00079320188693000067E30F0AC347428AC9F
:1008C0005B2D217E0F39FC2D127930018ADA3B2213
:1008D0002960000B0A46296000040A262D247C6545
:1008E00029B00006BCB628027C6B2970000529B02F
:1008F0000007BCB728027C7B6CAA6D227E9002ACFC
:100900009A7E7F33C52DF4792700020BA0BEA02369
:1009100078EA6CAA80550A2A7F702DF22957004C7C
:10092000BE50235023294700B40AD47D4D7C896CE6
:10093000997DD47E9002AC957E7F33C52DF40BF566
:100940000B7A404D4D1B7A400A4A7F702DF429479F
:10095000004C0AD47E9002AC9A7E7F33C52DF40BF6
:10096000F50B7A404D4D1B7A400BA0BC6A38A76C42
:10097000AA801D0A2A7F702DF22967006F0A467E21
:100980005002AC5A7E7F33C52DF2794700480BA048
:10099000BC7A38DF227C5B7E0F33CD694000223089
:1009A000016B6DFF7D3FBE5010282E7E54FFFF79F6
:1009B0005000429E50106CAA80117EE400017CBA67
:1009C00060053EE41478FB2D3E0BA0BC5A38EB7E4C
:1009D0006F33CD79360040802579F000406CAA80D5
:1009E000117EF400017CBA60053EF41478FB2D3FC3
:1009F0000BA0BC5A38EB7E7F33CD793700427D3473
:100A00002E34000C7E7F33CD79370016226D33797A
:100A10003000407E0F33CD793000427E1F33CD79D8
:100A2000410016227C177C3B6D337E2F33CD79320B
:100A300000407E2F33CD793200427E7F33CD69571F
:100A400000127CAB693700021E341E341E341E3483
:100A50001E341E341E345E3400037CB77E44000412
:100A600060053E441478FB7C290A220A3A121DB321
:100A70000A232D327CB77C616C770A0B1E042D0390
:100A80007907000C7C73AC720A2A121DB37E0F33F7
:100A9000CD793000166D337E0F33CD7930002222B0
:100AA000A9D6CB693000067E2F3A09793200046955
:100AB0003000087E2F3A0979320008297000027C44
:100AC000476C55297000030A372D327E2F3A097979
:100AD00032000C7E0B707C47297000010A372D32E2
:100AE0007E2F3A097932000A297000040A377E2FD6
:100AF0003A097932000E29B0000554017C2B6C3381
:100B00007E1F3A091B1A107E3400C0120E1CA9C6A3
:100B1000CB22CA797CAB5EA0036C777E5002AC57C7
:100B200069D0000E69C0000C2DD2296600010AF6BA
:100B30007D4F7C896C997DF47E6B600A462D4F7EDB
:100B4000F0F0ACFA2D277E7F39FC2DF27947025464
:100B50000B70BE700E40C4694000047EF0F0ACFA29
:100B60007E1F39FC2D37794102506930000674F040
:100B7000A47E0F39FC2D1579300252DA7922A9D6DC
:100B8000CBC21E693000047E2F3A09793200046915
:100B90003000067E2F3A0979320006693000087E5F
:100BA0002F3A09793200087E0B707C476C5529700A
:100BB00000010A372D327E2F3A097932000C297054
:100BC00000020A377E2F3A097932000E29B000035D
:100BD00054010A5B7CABE47E1F3A091B1A50693052
:100BE000000A120E1CA9C6CB22693000AE7E2F333C
:100BF000CD79320006295000A60A557D231E249D7A
:100C0000257E2F33CD792200187D231E241B257EBF
:100C10002F33CD79220038692000FD1E349D329E8D
:100C200034000A7E2F33CD79320026297000A70ABE
:100C3000377E2F33CD7932001A2970000B0A27290D
:100C40007000042D327E2F33CD793200080208D097
:100C5000A9D6CB693000047E2F3A097932000469A5
:100C60003000067E2F3A0979320006693000087E8E
:100C70002F3A09793200087E0B707C476C55297039
:100C800000010A372D327E2F3A097932000C297083
:100C900000020A377E0F3A097930000E6D117E1F6F
:100CA0003A091B1A107E3400E0120E1CA9C6CB2292
:100CB000CA3BF5247F417F30E5257E0800261201DE
:100CC00020E524BEB02328037524236CAA80360AAD
:100CD0003A2D397D287E1BB0BEB126400D74230A03
:100CE0004A7F032D147A0BB080197E1BB00A3B2E6D
:100CF00035287A71827A6183E4930A4A7F132D340E
:100D00007A1BB00BA0E524BCBA38C4DA3B22A9D6C2
:100D1000CB692000047E2F3A097922000469200063
:100D2000087E2F3A09792200087E0B500A557CABC9
:100D3000E4295000010A252D257E2F3A0979220049
:100D40000C295000020A257E0F3A097920000E7EF8
:100D50000F3A097930000A6D117E1F3A091B1A10EB
:100D60007E340040120E1CA9C6CB227CAB7E340020
:100D7000017E0F3A007930000EC21DE47AB339FBD0
:100D80005EA0030A1A3E147E1F33C51B1A107E0F85
:100D900033C52E1400840B0A304E70201B0A3074A9
:100DA000011212567E0F3A000B0A304E700C1B0ACD
:100DB00030A9D3CD7E0F3A000B150B0A304E7001CF
:100DC0001B0A30227F10A9D6CB691100027E2F3A70
:100DD0000979120004691100047E2F3A0979120082
:100DE00006691100067E2F3A09791200087E1B3031
:100DF0000A037E140100AD10297100010A372D315C
:100E00007E0F3A097930000C6D117E1F3A091B1ACA
:100E1000107E340060120E1CA9C6CB22A9D7CB7D50
:100E2000234E50017E0F3A090B0A304D321B0A3017
:100E3000801E7E0F3A090B0A307D235E240008BE17
:100E4000240008780BA9D7CB4E70041B0A30D21EA1
:100E50007E0F3A090B0A307D235E248000BE248079
:100E60000078CF4E60401B0A306D117E1F3A091B7F
:100E70001A1022CA3BF5247F417F30E5257E080009
:100E8000261201206CAA80360A3A2D397D287E1B55
:100E9000B0BEB127400D741C0A4A7F032D147A0B93
:100EA000B080197E1BB00A3B2E352A7A71827A6196
:100EB00083E4930A4A7F132D347A1BB00BA0E524F8
:100EC000BCBA38C4DA3B22CAF87DE27DD37CFBBED3
:100ED000300128067EF40010800FBE300028067E08
:100EE000F4000880047EF400047D1F6D006D337EE5
:100EF000240010121E527F017D3D6D22121DE57DE2
:100F00001E121DFF7404ACBF7E0F33CD2D1579303A
:100F1000008279200080DAF822CA7BCA6BCA5BCAD9
:100F20004BCA2BCA1BCA0BC0D0C083C082D21D7E45
:100F30000F3A000B0A307C577A5339FB4E700C1B6A
:100F40000A30C2C66D337E0F3A007930000E12119E
:100F50009E1281A6D082D083D0D0DA0BDA1BDA2B96
:100F6000DA4BDA5BDA6BDA7B327403121256A9D1F0
:100F7000C47E0F33C52E1400840B0A304E70201B24
:100F80000A307E1400017E1F33C51B1A107E0F33FA
:100F9000CD0B160B0A304E70011B0A30C20FE47ADB
:100FA000B333DD7E1F33C50B1A305E34000178F396
:100FB00074020212567C6B6CAA80177E9002AC9A67
:100FC0007E7F39FC2DF40B7A207F702DF41B7A2064
:100FD0000BA0BC7A38E56CAA80207E5002AC5A7E09
:100FE0007F39FC2DF2692700380AF70A4A2D4F3E57
:100FF000447F702DF41B7A200BA0BC6A38DC22FFE2
:10100000CA797CAB5EA0036C777E5002AC577F60E0
:101010002DD2296600010AF67D4F7C896C997DF4FA
:101020007E6B600A462D4F7EF0F0ACFA2D277E7F56
:1010300039FC2DF2794702540B70BE700E40CADAAB
:101040007922295000F5AC5B7E0F33CD6930000C5E
:101050000A563E54BE24020040047E2401FFBD25F2
:10106000281F2E14000C6C661B0A301E247C456C55
:10107000557E0F33CD2E14000C0B0A304D321B0A57
:1010800030227C6B6CAA7E5028AC577E9002AC9AC2
:101090002D427E50F0AC562D247E7F39FC2DF26916
:1010A00027018C6C440A4A7F602DD47E6BB07C8B08
:1010B0006C994D247927018C0BA0BEA00E40C7224D
:1010C0007C6B6CAA7E5028AC577E9002AC9A2D4265
:1010D0007E50F0AC562D247E7F39FC2DF26927011D
:1010E0008C6C550A4A7F602DD47E6BB00A4B4D2420
:1010F0007927018C0BA0BEA00E40C9221262BD7CD4
:101100006B12BFE47C7B6CAABE60156804A5BF159A
:1011100022BC7668057EA0F1800B12C06ABEB05179
:1011200068037EA0F27CBA12C0654CAA68051267FB
:10113000CC80FE22A9D6CB543F5E701F7C2B6C3333
:101140003E143E142E1400050A373E343E343E341D
:101150003E343E342D317E0F3A09793000027E0F45
:101160003A0979200014A9C6CB227D236C667E3013
:1011700002AC362E141F9F7A31827A2183E4930ABF
:101180001BBD1228070B60BE601440E27E7002ACEB
:10119000672E341FA07A71827A6183E493227E0FD6
:1011A00033C52E1400840B0A305E70DF1B0A3074C6
:1011B000031212567E1400037E1F33C51B1A107EC5
:1011C0001F33C50B1A305E34000178F3E402125667
:1011D0002E3404007E0F33CD793000607E3404005D
:1011E0009D327E0F33CD793000627E3400017E0F58
:1011F00033CD793000640A3B7E0F33CD7930006601
:10120000227CA5BE34000028100A1B3E147D237CDE
:10121000456C552D210A3A80080A2B3E247C676CC8
:10122000772D327E0F3A0079300004227CA77E1F92
:1012300033C56941008A5E44100F0A1A3E143E14F9
:101240003E143E140A5BC42354E07CABE42D514DA4
:10125000457941008A227E0F33C5693000845E7073
:10126000E71BB1680C14680C0BB178054E70108048
:10127000034E700879300084227E34001F7E0F33C5
:10128000CD79300004A9D2CD7E0F33CD0B0A304E7C
:1012900070011B0A3022BEB000280AA9D7CAA9D300
:1012A000CBA9D2CB22A9C7CAA9C3CBA9C2CB223012
:1012B000010A54030A3B2E34020080026D337E0F74
:1012C00033CD7930003A227E0F33C56930008A6011
:1012D000054E601080035E60EF7930008A22BEB058
:1012E000002809A9D6CAD2CDA9D1CB22A9C6CAC283
:1012F000CDA9C1CB227E34000F7E0F33CD793000D3
:1013000004C2C3D2EB22060E151A1F262B2D2E2F38
:101310002C2A241F1A140F080303060B10151C2275
:10132000282D34393D400E0300000003080C11162F
:101330001C232B32373C40454A4D4C4B4A484646CD
:1013400045454444434445786555020D141B212509
:101350002B313736332D282019140D080102050BC7
:1013600010181E232A30353A3E3F000101000000CC
:1013700000000104090F151D242A30353B3E3F4073
:101380003F3E3D3D3C3C3B3B39371A2D65551B29C3
:10139000271E14111A262E373D3F3D372E21160CDD
:1013A0000501000001030A131D262E33383A1621C9
:1013B0002B32302A272A2F2D241A1007010002076A
:1013C0001019232D3641494C4A453C342A27517186
:1013D00050552812111823292B2A2E353C3E3F390F
:1013E00031281E150E0603010000030C16202B32B7
:1013F0003739202932373128212A312D231B130870
:10140000010001050C182029343E474F504D453C42
:10141000343126CB50551D2F2C251A1B2029313154
:101420002E2D353D3F3D382C22150D0601000106BD
:10143000101B242F383D0D1B273132281E14151D7B
:101440002831342A1F14090100040D17212C3540BE
:101450004747443C34301B825055192E2A1F181B15
:10146000222D302E2E353D3F3D3A2F24180F0701F7
:101470000000030B161E29323A3D111F2832302678
:101480001B141C252E352E23191104000108101CD5
:1014900025303840423F39322C27C0D15055182CC6
:1014A000291E1413161E29302E2C2B373D3F3E3992
:1014B00030251B100801000209131F2D383C111A9A
:1014C000232F332920160E131D283231281E160B08
:1014D00002000108121E29333B3F3C322926306EA0
:1014E0005055162B24170D0A0E15242825232B36AC
:1014F0003B3D3B372B20150B040000030E1927330F
:101500003D3F13212E373A31271C131C28343E3718
:101510002D22180C0100030D1825313C4748423894
:101520002E2A31625055352E27221F1B16100C080B
:101530000604020000000103060B0E12171D2226EE
:101540002A3035393D3F0000010406080B10161BF8
:101550001F23282D32363B4044484A4B4C4B4A48C7
:101560004643403E3C3A3C9C345509171D262E37D5
:101570003C3F3B332B221A110B05030101000000F5
:1015800001060A1119222A32393D30302F2C261E2D
:10159000170D05000001060E151E262C323A414893
:1015A000505B616464605B56514FD82C3355261CE8
:1015B00019181818181818181717150F090401000A
:1015C00000000001040B12181F2831373C400107AE
:1015D0000E141C232C343E444C545B605D554F4923
:1015E000433D38322B26221F1E1C1C1C1C1D66541A
:1015F00074553E2C211D1D1D1D1D1D1D1D1D1D1D58
:101600001E1E1D1A110C07020000030A121C232CB7
:1016100038400C00060F172229323B41474F555CDA
:101620006671793E766D645A524B423935333232A7
:101630003131F3DB7455090706060505040404047B
:1016400003020202010000000000030A10141B2222
:10165000282E34393D40000B11161B22282C33391B
:1016600040464D52565C61686D7373717171707054
:101670006F6F6F6F6D6E79804455171312121110D2
:101680000F0D0C0B09080704030201000000010400
:101690000B10161D242931393D40000E161A1F2447
:1016A000292E33383E434750555962696E757CFF89
:1016B0007D7C79736D68605A57565D084455000704
:1016C0000B0D101216171718181919191C1E2022A5
:1016D000232527292B3032333538393B3D3F3E29EE
:1016E0001F180F07060C121D252D363E3B352C26E4
:1016F0002019110A0303091018242C333A3E609B69
:101700003255000505050403020305070A0E1119E9
:101710001B1C1D1C1C1D1F22252A3133353738394F
:101720003C4000121C242B343C392F2921160F0D6C
:10173000141E2A333127201810070A101A262F37B3
:101740003D3FFB8F32552C231F19130C070300005C
:101750000001050A0F161D232A30363B3E403F3E4E
:101760003B38332F2B280901000103090E141B21DC
:10177000272E363B3E4141403D3A362F2B26201C3A
:1017800016100C0A090B36DC30551A090501000049
:10179000000205090F161C222A3136393C3E3F3F14
:1017A0003D3830271F18120B0605071219222C3658
:1017B0003F49535C6366645F584C433D342B221BA6
:1017C000150B04000001040B1318F10C3055182CF4
:1017D00034393C3D3F3F3F3D3B36302A241C160DFB
:1017E000060100000001010305090F171E24010274
:1017F000080E141A2128303740495055595C5C585E
:1018000051483F38312B251D17110A0401019DBF96
:101810003055160702000000000104080E161F28AC
:1018200030383C3E3F403F3F3D3B37322C251D1674
:101830000F0C53463E352E27201A140D06010000CA
:10184000030A131A20272D333A40484F54585A5A46
:101850005857C65530550701040A1018202A323847
:101860003C3E3F3E3D3B393530272119120B0603E4
:10187000010000000000321D1209050100000105F1
:101880000D17202A323B454E5863696B6A645D57D9
:101890004F474038322F1AB5305521130C08050236
:1018A0000100000103080F171E242B32393D3E3F73
:1018B0003F3D3A363029211A161305090E141A2213
:1018C0002930383F474D51514F4D494239312B2531
:1018D0001E171008030000010305AF133055383FF1
:1018E0003D3A362E261F140B0602000000010205A9
:1018F000090E141C232A34383A3B3D3D3D3D291A3C
:10190000100904000001040C141C22282F373F4743
:101910004F565A5B59564E4740373028221F2AA946
:1019200030553E3B38332B241D16100703010000B1
:1019300000010103060C151C23292F35383B3C3EC2
:101940003F3F1F100A0600000002040C12181E255B
:101950002C353C424A515656534E49403A332C2579
:101960001F1CF9A230551F2B3135383B3E3F3F3D00
:101970003A342D27231D1710090401000001030626
:101980000A0F151B202345423E38342D241C151107
:101990000B06020000000103070D12182028303644
:1019A0003C424748494A659D30551C2A33393C3EE4
:1019B0003F3F3E3D3A352E28231C150F09040100F8
:1019C00000010104080D13191E22403E3A332F294D
:1019D000221B15100A050100000102050A11171C3F
:1019E000242A30353B4043444545CBC6305505039A
:1019F00004070A101721282E33383C3E3F3F3E3B58
:101A000038312921180F0904010000000000263593
:101A10003D454B5153524F4C46413B342E251E17EA
:101A2000110903000002060C12181E242C31F4B612
:101A300030550A050505080F16202931363A3C3E77
:101A40003F3F3E3C3A332D241C140F080400000095
:101A5000010235464E565D65686660574F473F3711
:101A60002E251E161006020001050B151D282F3904
:101A70004145F0BC30550703030304070F17202826
:101A800030363B3D3F3F3D39362D251D160D0802B2
:101A90000000010203052E3F4850595F6768635DEF
:101AA000524A3E352B2018100A03000001070E1978
:101AB000222B313A4247EFC930553B3C3C3B39364B
:101AC0002F272119110B05010000010204060A103D
:101AD000161F262D33393C3E3F3F22313B41474DB7
:101AE00056595A5855514B433D3529201811090371
:101AF00000000103070F151B21262BA03055373896
:101B000037342D261C160E090402000000010205C0
:101B10000A101720262E353A3C3E3F3F3E3E3040CD
:101B20004950595E605D5650474139332A201A109A
:101B30000A05010000030810171F252F383C37C382
:101B400030553B3D3D3B3832271C130E0803000047
:101B5000000103070B1218202831393D3F403F3F59
:101B60003E3E33454E575D656C6A66635C534A4042
:101B7000382E251A110804000002091019212A32F2
:101B8000393E07903055392B241C150E09060506E1
:101B900009101922272E353B3E3F3D38322C261F97
:101BA00019130B05010006000102060B11171D2475
:101BB0002A2F32343536373B41474E565D616465D6
:101BC0006563605C5754D14A465500010305070818
:101BD0000A0B0C0E0F111214161A1E2224272A2C7F
:101BE0002E313336383A3C3E3F3F010E141B23283A
:101BF0002E353A40484F565D62615A534E47403B3E
:101C0000352D29221B17100905016D7D5455000241
:101C1000030506080B10131617191B1D1F2122227E
:101C200022222325282E313436383A3C3E3F0617EF
:101C3000202730383E39322B251E1810090910187C
:101C40001F262F363C382F271F180F080102C77593
:101C5000315500000000010103080D121517181A74
:101C60001B1C1D1D1E1F22272E35383B3D3E3F40AD
:101C70003F3E06151B23292F373C372E27201A13EA
:101C80000E141A21272F383F3D352E262018110B10
:101C90000300673F315500010203040506070809E8
:101CA0000A0B0C0D0E0F10111213141C1D1E1F20F9
:101CB00021220405060708090A0B0C0D0E0F10114E
:101CC0001213141516170001020304050607080E67
:101CD0000F1011121314151600010203041C1D1E0F
:101CE0001F20000102030E0F1011121314151617F6
:101CF00018030405060708090A0B0C0D0E0F101136
:101D000012131415161718191A1B060504030201DD
:101D1000001C1D1E1F2021000000010203040506F7
:101D200007081C1D1E1F20212200010203040506B6
:101D30000708090A0B0C0D0E0F10111213141516BB
:101D40001718191A1B000102030405060708090ADF
:101D50000B0C0D0E0F101112131415161718191A5B
:101D60001B1C1D1E1F20212200010101101C02103E
:101D70001C000101040F1C000101061B0F070E1CB3
:101D80000823150001010A10190B141C0C0F180070
:101D900001010E23150F0D19000101110D14121070
:101DA00019131C10141A1015101916231C49231C82
:101DB0004A231CC2D57CB430E708B2D56E24FFFF9D
:101DC0000B247CB630E712B2D56E34FFFF0B348D96
:101DD000326E24FFFF0B2480028D3230D5066E3424
:101DE000FFFF0B34227D51AD037D027D21AD052D1A
:101DF00012AD352D21227D02AD31AD102D21226D88
:101E00000074104D00780B4D2278278D317D126DB6
:101E100022227D437D326D222F112D445002A50FC9
:101E2000BF1040049F100B901478ED7F016D227D50
:101E300034227D417D138D247D022F004004BD049A
:101E400040049D040B141478F17D237D317D106DC9
:101E50000022C2D57CB030E708B2D59F229F207FF8
:101E6000027CB430E713B2D59F229F217F12121E4D
:101E7000019F229F207F028003121E0130D5069F02
:101E8000229F217F12226CAA4D11681A1E54680EDF
:101E90000B38201B18200B350B151B5478F25006FD
:101EA0007E39407A1940226CAA4D11681E1E54508A
:101EB0000C7E1B007A190068120B1C0B140B1A0005
:101EC0001B18000B1D0B151B5478F2227584017E24
:101ED000443FFFE47A49B01B4478F97EF83A117523
:101EE0000C00750D00750E02750F00C208C2097551
:101EF0001F00C210C211751864751964751A007537
:101F00001B00C213756100756200C20AC20B7563C3
:101F100000C215756400C217756500C218C219C2E7
:101F20001A756600C20C755F00756064C21BC21C26
:101F3000756700D205D206D207D21DC20ED20F7E1F
:101F40000400FF7E1420400B0A405D44681A69209B
:101F500000020B0E0B44800A7E0BB07A29B00B24D2
:101F60000B0C1B4478F280DF0227FD0000004700C5
:101F7000CB01000010FDC7FB7EFBFB01BB0C9E19D3
:101F8000002145000E010F02100311041205130673
:101F9000140715081609170A180B190C1A0D1BDF60
:101FA00022C321A920941F811E701D621C551B4A4B
:101FB0001A4119381831172B16251521141C13191D
:101FC0001216111310110F100ECAF87F20800A7E0E
:101FD0001BF07A2BF00B340B5469FFFFFC7DEF1BD9
:101FE000E479EFFFFC4DFF78E67F10DAF8227D43BD
:101FF0007F1080071B447A0BB00B144D4478F522F8
:102000000563312018130F0D0C0A09080706050493
:10201000320119010002F804E705CE06C207B5082F
:10202000FF00010200FF01020001FF02000102FFA8
:102030007D23BE24000048037D32226D339D322271
:102040000004348C00000000000103FF01000125A2
:10205000F601000138C10000023913000000023906
:10206000150000000139170000013592000001350C
:102070009300000435A800FF00FF000A3628000086
:1020800000000000000000000001363205000136AB
:102090008D000001344F0000013A0F00000236A409
:1020A0000000000136C7000001373600000137414B
:1020B0000000013742000001374300003C376E004A
:1020C0000000000000000000000000000000000010
:1020D0000000000000000000000000000000000000
:1020E00000000000000000000000000000000000F0
:1020F0000000000000000000000000000137E600C2
:10210000000137E700000137E800000133C001009B
:102110000233C300000001006800000100690000F4
:1021200001006A00000137EB010001386500000181
:102130003A1000000633F93F1F5011201000013300
:10214000FF2400013A040000013A050000013A06AC
:102150000000013A070000013A080000012FA90021
:1021600000013346000001028C00000202AD0000B5
:10217000000102EB0000043866000000000001349A
:1021800049000001344A000002344B0000000134D1
:102190004D640001344E0000013A110000013A0D77
:1021A0000000013A0E0000022BB92BBF00012F7F67
:1021B0000200012FA800000139E60000013964FF88
:1021C00000013965000001396600000139674000EF
:1021D00001396840000439FC0000500000043A0056
:1021E00000006400000433C500006C00000433C923
:1021F000000068C0000433CD00006800000433DE36
:102200000000400000043A0900006000000003E8FC
:10221000000C02260320000A01AE02BC000C00C81C
:1022200001F4000C003C012C000A003C0064000694
:10223000003C005000060000000E1C2305DC0032AC
:1022400003E800280000001E1240571227CE122279
:102250006112348312ABCB02225A74017AB337EF86
:102260002212286812229602226A7E3400036D220E
:102270000222737D437EA333E2BEA00550167E701A
:1022800004AC7A594333E5592333E77CBA047AB373
:1022900033E2C322D3226D337E2406FC1222737EE6
:1022A0003400017E24077A0222737E3460A3122256
:1022B000F41225ED1262CA12281F1240571227C7C6
:1022C00012CCA11222611234831257A212ABCB029C
:1022D000225A7E34614F7E2400FF0B1A307A372A4F
:1022E0005A7E3461517E2400FF0B1A307A372A5C03
:1022F0007E3461537E2400FF0B1A30227E346155F8
:102300001222F47A3728957E3461BA1222F47A3791
:1023100028997E3461B81222F47A3728977E346285
:10232000121222F47A37289B7E3461BC1222F47A8E
:1023300037289D7E3461BE1222F47A37289F7E347E
:1023400061C01222F412CD091222F47A3728A39028
:1023500061C4E4937AB328A5E47AB328A812B763DA
:102360003E347E0825F7E4021FEE12251D7EB337AA
:10237000F6B401167E3462341222F47A372A5A7E79
:102380003462361222F47A372A5C7EB328A8B4016C
:10239000377E34623E1222F47A372A5A7E34624003
:1023A0001222F47A372A5C7E3462421222F47A379F
:1023B0002A4F7E3462441222F47A372A517E3462E4
:1023C000461222F47A372A537EB32A0270217E27DE
:1023D0002A5A7D327E140004AD137D31122492BE40
:1023E00034005028047E3400502D327A372A5A2285
:1023F0007E5400547E4400FF6932000469220002CA
:102400000B2A107A1D267A15247E3400207E0800BF
:10241000247E2400061264167E34614F1222F41EBC
:10242000341E347A7303A07E3461511222F40E34C8
:102430000E347A7303A17E3461551222F412249271
:102440007A7303A27E3461571222F41224927A73B3
:1024500003A37E3461591222F41224927A7303A4E6
:102460007E34615B1222F41224927A7303A57E34C7
:102470000059CA397E34615F7E2400FF7E0803A6BE
:10248000121FC91BFDE5257AB303D1E5287AB303F2
:10249000C0221E341E341E341E3422906099E493F0
:1024A0007AB32A4D90609EE4937AB32A4E7E3461CB
:1024B000551222F412CD001222F47A372A517E14DA
:1024C00061597E0400FF0B0A207A272A537A372AA3
:1024D0005590609DE4937AB32A591222D212CCCD42
:1024E0007E3462121222F47A372A6090609FE4935D
:1024F0007AB32A649060A0E4937AB32A657E34604C
:10250000A11222F47A372A667E34615B1222F47AB1
:10251000372A62E47AB32A6B7AB31692221222D255
:1025200012CCCD7E3461551222F412CD001222F469
:102530007A372A517E3461591222F47A372A53228B
:102540007E3462481222F47A372A5A7E34624A1262
:1025500022F47A372A5C7E34624C1222F47A372ACB
:102560004F7E34624E1222F47A372A517E34625002
:102570001222F47A372A5322CAF87EF338C6BEF004
:1025800005780B74017AB338C61200098052BEF088
:102590000478131227F21222F41225EDE47AB32BF9
:1025A00002123F55803ABEF00678191227F2122225
:1025B000F41225ED124961E47AB32B1E127B30121E
:1025C000CD2D801CBEF007781D1227F21222F412C6
:1025D00025ED12821150FB127B561227D71234833D
:1025E00074027AB338C6DAF8227E3403E86D227AB0
:1025F0002734387A37343A227EB303C514685D1421
:102600007802C19914686D24036802C19112CD4704
:10261000380830140F12CD3F680A1250F6E47AB32E
:1026200039AB80757EB303A630E06E7E7303A70AD4
:10263000277E340400AD327EB303F0B4010B7E3448
:1026400062641222F42E340400BE3739A9504A12B3
:1026500050F61227EBE47AB339AD803D12CD47280E
:1026600033E47AB303C57EB339ABB401031227EB6D
:10267000D21C80207E3460A51222F41225ED128F28
:10268000981222AAE47AB303C57AB3344ED21C80DE
:10269000081227EBE47AB3344E128FFF02269FCA4A
:1026A000D8CA797EB303C5B401028002E1C26CDDF1
:1026B0006CFF1290E57DF312821150FB74017AB326
:1026C00039AC1237A01212C712001E740A123E2D26
:1026D000123FEC7EE72B0D7AE5247EE32AFA7404A0
:1026E0007AB32AFA7EE72B0D5EE4003F7AE72B0DE2
:1026F0007EB32AFA1293787C7B7408AC7B7E24002C
:1027000004121DB37D237D3F122492AD327A372B04
:1027100007123F3512912C1225E97EB303F0B40164
:1027200004741080027406124503123FAE800F80BD
:1027300007128FC4E412906E2093F61290B5301DEC
:10274000F7301CF4D2011237E0E41212DE0BD01283
:102750004CD71291447EA339AB4CAA780674017A07
:10276000B339AC4CAA680B7EB303F07005E47AB3BE
:1027700039AB12CCD878187EB339AB6012E47AB397
:1027800039AB7AB32A027AB32A037EF001801C1295
:10279000CCD868107EB339AB700A7EF001E47AB30E
:1027A00003C58007BED0145002E117E47AB32B04AE
:1027B0007E35247A372B0D7AE32AFA4CFF68031210
:1027C0003483DA79DAD8227E340DAC1225ED123F4B
:1027D00055127B300227D7301310127B6E50031234
:1027E0004F3412786B12A5B1C2132274017AB3036D
:1027F000C52274017AB338C67E3460A3221262CA3D
:102800001223F012281F1222487EB303C724FD684A
:10281000090BB178F4122BA680EF1232E480EA1291
:1028200067F71265E112000A12CCAC7E1804007A38
:102830001F06F87E0F06F87E1F06F4127FFA7E1838
:10284000080A7A1F13867E180DC87A1F138A7E0F16
:10285000138A7E1F13861278481277D112249B1296
:102860006FFF122876022868E47AB333E27AB33332
:10287000E37AB333E42212703D7E240003AD327E4E
:102880000828AE74FF121FEE129C187E0829BC1295
:10289000289E7E082A027E34000BE4021FEE6CAAFA
:1028A0008020740312A7BD7F102D3439B1000A12A5
:1028B0002B6A7F702DF3794700142D317941002860
:1028C0000BA01228C838DB22906099E493BCBA228E
:1028D000CAF87E6829BC6CAA80197E70FF122B850D
:1028E000E40A4A19B41F3474FF19B41F4619B41FFF
:1028F000500BA01228C838E27E732A02A5BF00231D
:102900007EB3344F700241DF6CAA80107E447FFF9B
:10291000122B8F79400014122B7C0BA01228C83880
:10292000EB41DF7EB3344F703DBE700028386CAA97
:10293000802A7E9009AC9A493428AE122B8F7930C8
:102940000014493428B07F062D1279300028740114
:102950000A3A19B31F3419A428B20BA07EB32A0275
:10296000BCBA38CE41DF6CAA8017122B6A3E3459AC
:1029700043154E5943155059431576594315780B55
:10298000A01228C838E46CAA803D6CFF80327E70AB
:1029900002AC7F7F062D1369300014BE347FFF68C0
:1029A0001D0A4F09B41F50B4FF14122B745932156D
:1029B0004E6930002859321550122B9980070BF0C0
:1029C000122B6238C90BA07EB3344FBCBA38BB6C33
:1029D000AA80240A3A09B31F46B4FF196CFF80107D
:1029E0000A4F09B41F50B4FF05122B9980070BF052
:1029F000122B6238EB0BA01228C838D76CAA801AA9
:102A00007E7009AC7A494328AE122B745942157670
:102A1000493328B0593215780BA07EB32A02BCBACC
:102A200038DE7E34154E7A371F407E3415767A377D
:102A30001F427E34159E7A371F447E73344F7A735B
:102A40001F3E7E732A027A731F3F7E081F3E1203C9
:102A5000866CAA80597E70FF6CFF80197E5002AC94
:102A60005F4912159E0A2ABD2178080A3F09731F83
:102A70004680070BF0122B6238E2BE70FF682D1201
:102A80002B8574010A4719B41F347E9009AC9A490A
:102A90002428AE7E3002AC372D1D7D0C7920001429
:102AA000494428B07E5002AC57122B7C0BA07E63A9
:102AB0002A02BC6A389F6CAA80200A3A09B31F34E4
:102AC000BEB0016813122B6A7F062D1379400014E3
:102AD0002D3D7D2C794100280BA01228C838DB7EC3
:102AE000F32A027AF3344F6CAA80680A3A09B31FBA
:102AF00034B4012C122B5B29B1000AB40106740313
:102B000039B1000A122B5B2931000AA5BB0306E488
:102B10007A1BB08032A5BB002E74027A1BB08027CE
:102B2000122B5B29B1000ABEB00268027014740156
:102B30007A1BB07C2F0BF07E3009AC2319A128B290
:102B4000800574037A1BB0122B5B7E1BB039B10079
:102B50000A0BA01228C83893DAF8220A3A2D3D7DD4
:102B60002C22906099E493BCBF227E447FFF7E704C
:102B700002AC7A227E5002AC5A3E24227F062D12ED
:102B800079400028227E5009AC5A197228B2227E60
:102B90005002AC5A7F062D12220A3A19F31F4674CE
:102BA0000119B41F502212578F1281377EB303C709
:102BB000B4016B12BEA97E3460A51222F41225ED79
:102BC0001244BE12370C12337650DE12A9EA126B91
:102BD000207EB303C4B40104E4122FCA126D821222
:102BE000581140C5127C5F12581140BD12474E1259
:102BF0002C301287BA12892C12898112984F122810
:102C0000D01276A21277231298B112A86812C39E2E
:102C10001270491257FB1225F812509C808B1282B9
:102C20001C022C247EB303C4B40104E4022FCA2284
:102C30001259B9122E2A122E2A1258C712476B1295
:102C40002E92122E2A1285EE122E2A122F30122EBA
:102C50002A022C54CA3B7524006CCC6CDD7EC40067
:102C60003CCAC97E1837AA7E08376E121FC91BFDE1
:102C70007EF328840ACF3EC4CAC97E1826FA7E088D
:102C80001F34121FC91BFD6C886CEEA1287EC40383
:102C9000FF7EC0FF6C99804C7402ACB909B51F343B
:102CA000BEB0FF683D7CB9122E7960367402ACB9B3
:102CB00009751F350A277402ACBE097537AB122E91
:102CC000727D137402ACB909751F340A277402AC03
:102CD000BE097537AA122E722D13BDC128047DC1FD
:102CE0007CC90B90BCF938B0BEC0FF68397E700259
:102CF000AC7C09B31F3409731F35124724BE372A31
:102D00005A48237E7002AC7C09531F347402ACBD58
:102D100019551F7009531F3519551F7174FF19B3C9
:102D20001F340B800BD00BE07E73376DBC7E280206
:102D3000818D7CE8806D6DDD7E80FF6C99803C7CB0
:102D4000B9122E796033122FD2BEB0FF682B0973EF
:102D50001F35128E2B7F710B7A50BE540000580520
:102D60006D551B7A500B7AC0BDCD080D122FD2F5D0
:102D70002409C31F357DDC7C890B90BCF938C0BEAB
:102D800080FF681D7E71247402ACBD19751F701917
:102D9000C51F717EA0FF7E7002AC7819A31F340B93
:102DA000D00BE0906099E493BCBE388A90609AE4BE
:102DB000937CAB7402A4CA597E181F707E081F341E
:102DC000121FC91BFD7CFD122FDC7E0837AA74FF81
:102DD000121FEEBEF00028380A3F3E34CA397E1872
:102DE0001F347E0826FA121FC91BFD0A3F3E34CA53
:102DF000397E181F347E0837AA121FC91BFD6CEEDE
:102E0000800A7CBE7E7001122EF10BE0BCFE38F20F
:102E10007AF3376D7AF32884906099E493BEB328EF
:102E20008450047AB32884DA3B22CA796CFF6CEEB2
:102E300080317CBE122E7960287E340002CA39AC03
:102E40007E2E3426FA6D227E3002AC3F2E1426FAF6
:102E50006D00121FC91BFD7CBF7E7001122EF10B8D
:102E6000F00BE01247EC38CA7AF32884DA79227E34
:102E700039700A379D320220307C7B126D3209A2F4
:102E800027727CB754070A3B2E34005E1244B55CAF
:102E9000BA226C006C1180137CB1122E79600A1278
:102EA000854040057E0001800A0B107E732884BC9B
:102EB0007138E57CB06C77129C24BE0001680B7CF5
:102EC000B07E7001129C24B401216C1180157CB17C
:102ED000122E79600C12854050077CB16C77122E4F
:102EE000F10B107E032884BC0138E3227CB37E7092
:102EF000017C677C7BC423541F7CAB7CB754070ADE
:102F00002B2E24005E1245DE7C7B4C66680F0A2A5D
:102F10002E2427727E29B04CB77A29B0227CB76460
:102F2000FF0A2A2E2427727E29705C7B7A29702260
:102F3000CAF87ED400097EB328847008F563C20AFB
:102F4000C20B8071BEB0023866B402287E7326FCC4
:102F50000A277E7326FA122E72BE34000558157E9B
:102F60007326FD0A277E7326FB122E72BE340005DF
:102F70005802804E6CFF80307CBF129E641A4B7CDE
:102F8000BF1247597D5D3E54BD545804D20B800A90
:102F90007D5D0E54BD544802C20B200B04BDD458B5
:102FA00005756328800F0BF01259B238CB8006E507
:102FB0006324FBF563E563BEB0000806D20A15631F
:102FC0008005756300C20ADAF8227003D28622C235
:102FD00086227E7002AC7909B31F3422906099E496
:102FE000937C7B7402AC7B22CAF87CABBEA03438E5
:102FF000030230FBBEA03578077EB32B1002321AD5
:10300000BEA0366805BEA037781D7E35087D230B2F
:10301000247A25082E37348A7E39B0BEA03768025C
:10302000411A751E36411ABEA0386805BEA039780F
:103030001B7EF338E67CBF047AB338E6BEA039784D
:1030400003751E380A3F09B32B21411ABEA03A6806
:1030500005BEA03B781B7EF338E87CBF047AB3380A
:10306000E8BEA03B7803751E3A0A3F09B32B4441E2
:103070001ABEA0FB78067EB32B12411ABEA05E7862
:10308000267E0F33C56930008E0A561E541E541E0C
:10309000545E540001030354C00A365E3400037CBE
:1030A000A74CBA4480411ABEA03C6805BEA03D783A
:1030B0001B7EF338EA7CBF047AB338EABEA03D78C1
:1030C00003751E3C0A3F09B32A7A411ABEA03E6826
:1030D00005BEA03F781B7EF338EC7CBF047AB33882
:1030E000ECBEA03F7803751E3E0A3F09B32A9D41FE
:1030F0001ABEA040400DBEA04D38080A3A09B338A8
:10310000C2411ABEA04E6805BEA04F781E7EF3399C
:10311000077CBF047AB33907BEA04F7803751E4EF3
:103120000A3F2E3734887E39B0411ABEA051680557
:10313000BEA05278287E1460006D002E0400FF7E31
:10314000B339120A3B6D222F107E1B70047AB339FB
:1031500012BEA0527803751E517CB7411ABEA05C06
:103160006805BEA05D781A7EF338DB7CBF047AB3B5
:1031700038DBBEA05D7803751E5C7CBF12321D413A
:103180001ABEA060400DBEA06C38080A3A09B333DD
:10319000DC411ABEA06D7804E50E807EBEA0F46806
:1031A00005BEA0F578187E350A7D230B247A250A02
:1031B00009B33490BEA0F57861751EF4805CBEA0A2
:1031C000F06805BEA0F178097C1A2E1020A5E780D2
:1031D00049BEA0F26805BEA0F3781B7E15103E1410
:1031E0007E1F348C2D310B1A30BEA0F278040A56A3
:1031F00080287D538024BEA0F67804E50F801BBE96
:10320000A0F7780D7E3462487E2400FF0B1A5080B0
:1032100009BEA0FD7803E48001E4DAF8227CABBEAD
:10322000A00040117EB32A6EBCBA28097402A449DA
:1032300025340080517E132A6EBC1A381C7E032A66
:103240006D0A100A212D120A3ABD31580C9D323EEA
:10325000343E34492332BA802D7E032A6D0A200A77
:10326000117D412D420A3ABD3448197E1002AC014D
:103270002D01BD30580E9D319D323E343E344923E0
:1032800032BC8002E4227E340064AD23740C1E3410
:103290001E2450034E60801478F47CB722CAF88054
:1032A000387CBF12321D0A1B7E632A6E7E7002AC10
:1032B000677E1002AC1F2D037E1F138A2D30123241
:1032C000DC9D351B1A100BF01232DC7E732A6E0A5D
:1032D000272D250A3FBD3248C8DAF8227EA32A6D81
:1032E0007402A4221240277EB303C7B4036912BE3E
:1032F000A91225E912349D7EB338C230E7E91233B2
:10330000761233673E34CA397E1804007E0804FC06
:10331000121FC91BFD1233673E34CA397E18047E62
:103320007E08057A121FC91BFD7EB32B1DB4011543
:1033300012A9EA126B20126D82127C5F12474E12A4
:103340002C301247FA12488412329D7EB338C25490
:103350007F7AB338C2809012821C020046E47AB3AE
:103360002B027AB32B1E227E732A740A277E732ABD
:10337000730A372D3222CA3B12821150FB7EF32B87
:103380000F7CBF12A6BF12BEFB7EB32B1FF5287E9B
:10339000B32B20F5297EB303C7B4010F12ACC47E52
:1033A000B316917006123483C381801233673E34A2
:1033B000CA397E1806FC7E08047E121FC91BFD1246
:1033C00033673E34CA397E18077A7E080400121F1C
:1033D000C91BFD7EB303C7B4030712AA2F7A37397E
:1033E0000974017AB316901227CE12AA1D7EC33338
:1033F00046127B7FE41212DE1234837E08047E7A4A
:103400000D2A7E1806767EB32B721293077E08046F
:10341000007A0D2A7E1805F87EB325F01293077EF8
:10342000D32B1F7EE32B20E5287AB32B1FE529122F
:103430007B6A50057CBC12AF5D7E34080A7E040DA9
:10344000C87D207D101278EF7AD32B1F7AE32B20D2
:103450007CBF12A65B12A7F27EB3344E047AB3345B
:103460004E7E73344EBE70FA280674647AB3344EBE
:103470007EB3169060097EB316916003D38001C3BA
:10348000DA3B22E47AB333E47AB333E3124EEFB497
:1034900001047401800274037AB333E42230083BE0
:1034A000C2081225787E7338C77A732A4D7E733826
:1034B000C87A732B1D7E7338C87A732B017EB3389C
:1034C000C960187E340002123BE57E340001123BD5
:1034D000E56D33123BE5E47AB338C912450D023489
:1034E000E1E50C7002C100E50C30E010530CFE1257
:1034F000B0551277D47E082A6D1208D0E50C30E161
:1035000006530CFD12C013E50C30E232530CFB7E67
:10351000B32B1260097E082A6D120593800B7EB3CF
:103520002B657E732B64120A247E732B122E70FF80
:103530009201906051E4939EB32A77120995E50CAD
:1035400030E347530CF77E7338F47A732B0F12A6CF
:10355000397AB32FA9BEB0FF680B430C207E732FBE
:10356000A97A7338CC124FE2124FD47E7338F5BE6D
:10357000732B6268067A732B62D210301009C21066
:1035800012A7C7E412074512ABCBE50C30E40F538A
:103590000CEF7E4338F67E500AAC45124050E50CE5
:1035A00030E64E530CBF7E7338E2BE7007280674B7
:1035B000077AB338E2A9D5CB740E1200667C7B5E25
:1035C000700F7E6338E20A262E24000312771A7CDD
:1035D000654C76740E1236391200661236C87E7348
:1035E00038E57A732B147E7338E47A732B1F12CD6F
:1035F0002DE50C30E50A530CDF7EB338CC0248AA27
:103600002212CD36B40114CA397E1839027E08253B
:10361000EE121FC91BFD1237F18012CA397E18390C
:10362000027E082B70121FC91BFD12783202363041
:103630007A1F2AFC7A0F2AF822F5FD7A71FE22CA37
:1036400079A9D5CB74027E703F123639740F1200FF
:10365000667CFB740F7C7F5E70FE123639740C1230
:1036600000667CFB547F6808740C7E70F812363953
:10367000906118E4937CABBEA007380B1236FD7C3A
:10368000B70A7B0B758016906117E493B4010EBEE8
:10369000A00728091236FD0A772E740007740E7CE5
:1036A0007F12363974071200667CFB5EF0FB906077
:1036B00002E4930A3B3E343E344CF774077C7F129D
:1036C00036C5DA792212363975FDFFA9C5CB226DD0
:1036D000337E0800247E240012126416E53420E7AD
:1036E0001BA9D5CB74037E7127123639740B7E71FA
:1036F0002F123639740C7E71301236C5220A3A2EDA
:103700003400033E343E343E343E34227E2403A053
:1037100030115CC211097200020A371237037A377E
:103720002A4F097200030A371237037A372A5109E0
:103730007200040A371237037A372A537E2970122F
:1037400037707A372A5A097200011237707A372A8D
:103750005C097200050A371237037A372A62097248
:103760000041BE732A6B68077A732A6B023777228F
:103770000A373E343E34221237FAD21A02335D7CC5
:103780006BA9D5CB740F1236397A61FC1236C81288
:103790006559D200128F8D1237CF1212DE021296A7
:1037A0007AB32B0070141278321236307E180676F7
:1037B0007A1F06F47E18047E8010B401111237F1CE
:1037C00012363012CCAC7E1804007A1F06F822D2D2
:1037D000021237D7740122A9D0CEA202A991C92220
:1037E0003001061237CF021296128F86C2020237BC
:1037F000D77E1F25F27E0F25EE227E732A6B2E7058
:10380000FF22CAF87C6BA5BE00097CB7123FFCD230
:10381000084184A5BE013D7A7338C3A5BFAD0280BF
:103820002FA5BFAE04D2094184A5BFAA0512CD249D
:10383000801EA5BFAB0A7E34057A7A37348A8010A1
:10384000A5BFAC02800241847E3404FC7A37348AFE
:103850006D332100BE60044020BE6008381B123A60
:1038600087A5BE07076D337A350A4184A5BE0802D5
:10387000800241841207FD4184A5BE0A09430C2041
:103880007A7338CC4184A5BE0B08123A87123FE9FF
:103890004184BE601B4007BE601C3802411CBE60F4
:1038A0001E400DBE60233808123A89430C40418403
:1038B000BE6015401ABE60183815123A89D208A5A4
:1038C000BE15028002418474077AB338C64184A5CC
:1038D000BE1907E47AB338DB4184BE60244007BEDA
:1038E000602C3802411CA5BE2D1B123A892009020A
:1038F00041847E6338EE7C466C550A372D323E3467
:103900007A35084184BE602F400ABE6033380543D3
:103910000C08411CA5BE340F430C10BE7064380265
:10392000411C7E7064411CBE60386804A5BE39210C
:10393000430C017EF338E77CBF047AB338E70A2FE3
:1039400019722B21A5BE390280024184751E3841AF
:1039500084BE603A6804A5BE3B21430C027EF33866
:10396000E97CBF047AB338E90A2F19722B44A5BE4B
:103970003B0280024184751E3A4184A5BEFB094387
:103980000C047A732B124184A5BE50067A73391247
:103990004184BE603C6804A5BE3D21430C017EF31A
:1039A00038EB7CBF047AB338EB0A2F19722A7AA558
:1039B000BE3D0280024184751E3C4184BE603E686B
:1039C00004A5BE3F21430C017EF338ED7CBF047A91
:1039D000B338ED0A2F19722A9DA5BE3F028002411D
:1039E00084751E3E4184BE6040400DBE6042380872
:1039F000123A89750D01800AA5BE430B123A8975EA
:103A00000D02123601807DA5BE4408123A89123A91
:103A1000F78071BE60456804A5BE4605123A8980EC
:103A200063BE604E6804A5BE4F20430D047EF3398B
:103A3000087CBF047AB339080A2F2E2734887A29E4
:103A400070A5BE4F3F751E4E803AA5BE6D057A71BA
:103A50000E8031BE60F04025BE60F338207C162E0B
:103A600010207CB7A5F7A5BEF31A7E15127E0510AF
:103A70003E047E1F348C2D301B1A108007A5BEF625
:103A8000037A710FDAF822D2080A26197238C22294
:103A90007C6B123AEF78057CB6023B31B404057CAE
:103AA000B602380222309019C290E51C7009751CCC
:103AB00001E591F51E80117E7191E51E123A900587
:103AC0001E30910BC291051EE51E123AD0F59122CF
:103AD0007C7B6CAA123AEF78097CB712806E7CABC3
:103AE000800AB404077CB7122FE87CAB7CBA227E34
:103AF000B338C2C454072212CD36B40117CA397E76
:103B00001825EE7E083902121FC91BFD12CD1B12AB
:103B100037F1801ACA397E182B707E083902121FBD
:103B2000C91BFD7E372B767A3734881278320236FD
:103B3000307CA77C3BA5BB00077CBA123FFC802CE5
:103B4000BE30EB6804A5BBEC097CB37C7A12816AB9
:103B5000801ABE30804015BE30DF38107CB3248020
:103B60007C7A1287FCA5BB8F03751D01A5BBFC05E4
:103B70007CBA023B7C74017AB303FF2224AB681049
:103B800024EF681C24DE682624DE782F7405802D3F
:103B90007EB303FFB4052A123BC212BD95023E4E0E
:103BA0007EB303FFB4051A123BC275E9FF227EB350
:103BB00003FFB4050C123BC2023E4874017AB30302
:103BC000FF227E3400017D2380127E300480057444
:103BD000FA123E2D7C231B30A5BA00F37D321B2444
:103BE0004D3378E622CAD8CA797DD3906050E493E9
:103BF0007CFB906051E4937C8B0A380ACF2DC30B79
:103C0000C47D3C7CE71225E9A9D0C4A9D5CB7407B3
:103C10001200667C8B74077E700F1236C57E5400CE
:103C2000787E1F33C9795100067E5400807E1F3391
:103C3000C9795100087E54000C7E1F33C9795100A8
:103C400010BED40002780B7E1F33C9123DD0440150
:103C500080207E1F33C9123DD044081B1A504DDD11
:103C60007E1F33C97807123DD054FB8005123DD02A
:103C700044041B1A507E1F33C569E100846951005A
:103C8000907DF52E3400905EA0F61B1A507EB30393
:103C9000D1BEB0064003B4FF0E123DDB54E6123D28
:103CA000D84E5401A4800C123DDB5E54FEE6123D5A
:103CB000D844A41B1A50BED40002782D7E1F33C9ED
:103CC000123DD05E54000F1B1A507E1F33C9123DA7
:103CD000D044501B1A507E340002123BC6123E0ADA
:103CE000123DE77A373490A18C6CDDA1864CDD78EB
:103CF000046C99802BBCFD40120ACD099C2AB8BEE9
:103D0000902340037E90220B9080150A3F0ACD9DA0
:103D1000C3099C2ADBBE901C40037E901B2E90247E
:103D20007E1F33C9123DD05E54000F1B1A500AC9C2
:103D30003EC43EC43EC43EC47E1F33C9123DD04D76
:103D40005C1B1A50E50E6007E50EBEB06428067EC7
:103D50003400028004E50E0A3B123BC6123E0ABE46
:103D6000D400017810123E0A123DE77402ACBD592E
:103D7000353492800F123DE70A5E0A2D2D253E2430
:103D8000593234920BD0BCED280281EDA9D5CB7409
:103D9000077C781236C5A9C0C47E1F33C579E100FF
:103DA000847E1F33C579F100906D337E0F33C9795E
:103DB0003000067E0F33C9793000087E0F33C97991
:103DC0003000107E0F33C97930000EDA79DAD8224C
:103DD0002E34000E0B1A50221B1A507E1F33C52E94
:103DE0003400840B1A50227E0F33C96930000A7DDB
:103DF000236D336910000C6D002F1074071E341EE4
:103E00002450034E60801478F4227E3400017E0F2B
:103E100033C9793000047E0F33C9693000125E3433
:103E2000000168F27E34000179300012227CAB8000
:103E30000E7E70038001007C671B70A5BE00F77CBE
:103E40006A1BA0A5BE00EA2275E76B023E4EE47E27
:103E500034D7FC7E2400FF7A1BB07E34D7FD7A1B5A
:103E6000B075E9FF227C967CA71237A07CBA1212AB
:103E7000C7740A123E2D7CB912001E023E7ECA3B58
:103E80007EE32A747EF32AFA74017AB32AFA123F87
:103E900035123FEC1233677E172AFE6D00121FEEBB
:103EA0007ED0071225E96CCC80197E3400017CBDE0
:103EB00060053E341478FB7C67123F3C4C767A29CF
:103EC000700BC0123F460A3CBD3248DE123F9D30A7
:103ED0001DFD12CCF67EB32A737C7E1293706CCCDF
:103EE00080297402ACBC493506FCBE34154050191B
:103EF0007E3400017CBD60053E341478FB7CB764E1
:103F0000FF123F3C5C7B7A29700BC0123F460A3C93
:103F1000BD3248CE1BD0BED0005888124377740201
:103F2000123FF41243F5740212001E7AF32AFA12B9
:103F30003F35DA3B227E082A6D02048D0A2C2E279B
:103F40002AFE7E2970227E732A740A377E532A73D2
:103F50000A252D23227EB32B02704112821150FBC1
:103F6000E46C776C66123E657E0806FC7E1F06F4E4
:103F70007EB32B7212926474017E70017E60011216
:103F80003E657E08077A7E1F06F47EB325F0129206
:103F90006474027AB32B02E47AB31690227402128C
:103FA000001E7EB32AFC1243F5740212001E740533
:103FB0007E709B12122C1244807EB32AFC020D6B81
:103FC0007ED72B0DBEB0012802E42212783B123FAF
:103FD000357AD72B0D7E732AFA123770E47E5001A2
:103FE000121201123FAE740122B282226D33E46CD0
:103FF0005502120112001E7EB32AFC227AB338C287
:10400000C45407BEB0046803B4020474038007609C
:1040100003B4010774017AB303C72274017AB303AE
:10402000C7E47AB338C22212CD2412CD1B6D337A85
:10403000350A1249271248A174507AB338F67E2403
:104040000320124050E412CCA36D337A37344B2254
:104050007D3274FA0211D074017AB303C712A7C774
:104060001212F51242E3E41207457E2403D41240F3
:104070005074011237A01247F37E34D00C12010E97
:1040800012408D7E340001123FEE0210FC740112CA
:10409000001EE41237A01240A5E412001E740112A3
:1040A00037A00240A5CA3B7ED32A737EC32A747E02
:1040B000081F441244777E081F8A7E340046121F70
:1040C000EE7E081FD07E34000AE4121FEE7E081F29
:1040D000DA7E34000A121FEE7EF32AFC7E182ADCF8
:1040E0007A1D247E181FD07A1D287CBD7C7C7E081A
:1040F0002AB91241C56CEE802B0A3E09A32ADC0ABC
:104100003A2E341F831244B57CABBEA01C50130A58
:104110003E1241BD0A4A19B41F447EB32AFB19B4AA
:104120001F8A0BE0BCCE38D16CEE80240A3E09A376
:104130002AB9BEA02350170A2E0A3C2D321241BDC7
:104140000A4A19B41F607EB32AFB19B41FA60BE0FC
:10415000BCDE38D87EB32AFD7E081FE460097E18D5
:104160001FD0124289800312436F6CEE7E181FE449
:104170007A1F1F347402ACBE49351FD07A371F38FE
:104180007402ACBE49351FDA7A371F3A7E700EAC26
:104190007E2E341F446D227A1F1F3C7E700EAC7E33
:1041A0002E341F8A7A1F1F407E081F347CBF7C7EFE
:1041B0001208000BE0BEE00540B2DA3B222E372A9F
:1041C000FE7E39B0227C577CAB6C7780500A477EEC
:1041D0007D242DF47E7B600A462E441F837A9182D3
:1041E0007A8183E4937C6BBE600D38127ED400012B
:1041F0007CB660053ED41478FB7E7D2880159E60D9
:104200000E7ED400017CB660053ED41478FB7E7D22
:10421000280BF50B7A404D4D1B7A400B70BC57387C
:10422000AC6C7780580A277F702DF27E7B60BE6071
:104230000D381112428260053E441478FB7E7D28C1
:104240000BF6802FBE601B38169E600E12428260F5
:10425000053E441478FB7E7D282EF4000680149ED3
:10426000601C12428260053E441478FB7E7D282E3D
:10427000F400080B7A204D241B7A200B70BCA73861
:10428000A4227E4400017CB6227F71693700027D42
:104290005312763B0B7A202D251B0A206927000438
:1042A0007D52C454F07CABE41E341E342D3579307D
:1042B0000002693700067D537CABE43E543E541E39
:1042C000241E241E241E242D257920000469270085
:1042D000087C456C551224921E341E342D327930E0
:1042E000000622CAF8906051E4937CFB7E081F34DC
:1042F00012436F7E081F3C12C049D2007E082ADCA0
:104300007CBF12BFE97E081F347A0F1F587F017AE5
:10431000171F5C7D327A371F5E7E181F3C7A1F1F85
:10432000646C77800E12C05B500712C05219511F87
:104330003C0B70BCF738EE12435CE4124364E412A9
:104340000B126D337A371F5C7A371F5E12435C7431
:10435000011243647401120B12DAF822A9C6EA7E34
:10436000081F5822120B12A9D6EA7E081F58227E77
:10437000340008E4021FEECAD8CA797EF00A74013C
:104380007AB32AFA1233677CE7805D1225E9123F7F
:104390009D301DFD12CCF61293686CDD803D7E5081
:1043A00002AC5D493206FCBE34147850140A1D2E4E
:1043B000172AFE7E19B0BEB000281E147A19B080EC
:1043C00018BE34192828100A3D1241BDBEB0FF683E
:1043D00008047A39B080021BE00BD0123F460A3D38
:1043E000BD3248BA4CEE68087CAF1BF04CAA789BF3
:1043F000DA79DAD822CA797CFB7E0824F212447773
:104400007EA32A737E732A746CEE801D0A2E0962C5
:104410002ADC0A261245DA7C6BBE601C50090A2E83
:1044200012446D19B224F20BE0BC7E38DF6CEE80D2
:104430001A0A2E09622AB9BE6023500D0A1E0A27E5
:104440002D2112446D19B2250E0BE0BCAE38E26C82
:10445000EE7E300EAC3E2E1424F26D007CBF7C7ECE
:104460001210820BE0BEE00540E7DA79222E272AFF
:10447000FE7E29B00A26227E340046743F021FEEDB
:104480006CAA80220A3A09732ADC2E341F83124454
:10449000B57C7B0A477E5002AC5A7E0F33C52D1285
:1044A000794000480BA07E632A74BC6A38D6222D5E
:1044B000322E3420207A71827A6183E493227EB393
:1044C00003C5702E7E7303A8BE701040026C777E09
:1044D000B303F0B401037E70060A372E34200012B5
:1044E00044B57CABE5670A3B2E3739A97A3739A941
:1044F000800C7EA303A9BEA07F28037EA07F7CBA88
:104500000245037567007AB3344DC21C22E50D6085
:1045100052E50D30E006530DFE123F35E50D30E15A
:1045200014530DFD7EB33906700474018001E4124A
:104530003FF4124564E50D30E229530DFBE47AB3F4
:1045400039077EB33906700A740112001E127832E0
:104550008007E412001E1237F11236307EB32AFCB7
:104560000243F522CA797CFB7E081F341244777E11
:10457000A32A737E632A746CEE801E0A2E09722AA7
:10458000DCBE701C50110A271245DA7C7B7EB32AF0
:10459000FB0A2719B21F340BE0BC6E38DE6CEE80CC
:1045A000170A3E09732AB9BE7023500A7E632AFB9C
:1045B0000A2719621F500BE0BCAE38E56CEE7E3066
:1045C0000EAC3E2E141F346D007CBF7C7E1210C0DA
:1045D0000BE0BEE00540E7DA79222E241F837A51F2
:1045E000827A4183E49322CA3B6DEE7EC32A6E7EBB
:1045F000D32A6D7EB303F0B40103E4E11D7EB3283A
:10460000847002C18C7EB32A036002807F7EA32661
:10461000FA7E7326FB7A71246CEE6DFF6CFF0A47FD
:104620008020124720BE340096081D0BE0BEA0007B
:1046300028067CBA1412472E12473E580312472B05
:104640001B44BE44000058DAE5240A4B801E124782
:1046500020BE34009608210BE0BEA00028067CBADC
:104660001412472E12473E580312472B7D240B2469
:104670007D420A3CBD2348D6BEE0035002800D0AAD
:104680002F7D3F121DB3BE3400280807E47AB337EC
:1046900042E11D6DDDBEA00028087CBA1412473827
:1046A0002DD30A3D1B340ACABDC358087CBA041274
:1046B00047382DD37E7008802A7E5002AC577DC2C9
:1046C0002EC420107D1C7A31827A2183E4931ACB88
:1046D000BDCD080F7DC22EC420117D2C1245DE1ADF
:1046E000CB2DEC7C671B70A5BE00CE7CBA12473880
:1046F000122030BE340AF008042EE40028BEE40084
:10470000FA28047EE400FA7EB337420A3BBD3E50ED
:10471000087D3E7CB77AB337427EB33742DA3B221C
:104720007CBA7C79128E2B0B1A30227CBA047C79ED
:104730001247242DF30BF0227E71240247240A2D08
:104740001B240A3ABD32227CBD7C7E024724128C97
:10475000FE1245E77AB32A0C227CAB7E7002AC7A5B
:1047600009B326FA097326FB024724CA796C8880AC
:10477000707402ACB809F526FA097526FB7A712423
:104780007CBF12A95450586CEE804FBCE868497E3B
:104790007002AC7E12A1DB6C999060AAE493701851
:1047A0007EB32A7014BEB126780E0A2FE5250A3B87
:1047B000128C9218037E9001BE9001781B7CBE1271
:1047C00047597DF37CB8124759BD3F08047CBE8031
:1047D000027CB86C77122EF10BE01247EC38AC0B70
:1047E000807E732884BC783888DA79227E732884A6
:1047F000BC7E227E082A6D02002ECAD8CA797E733A
:104800002A6E7EF32A6DACF77D373E347E081F3466
:10481000E4121FEE7EB338DDB401647E7338DEBE71
:104820007000285B6CDD803C1225E91233766D3315
:1048300080287E35243E3449330DC81220307A3525
:10484000267E35247D133E1449211F34BE2526586B
:10485000077E252659211F340B347A3524BE752452
:1048600038D00BD07E7338DEBC7D38BC7D373E340B
:10487000CA397E181F347E080DC8121FC91BFDDA05
:1048800079DAD822A20EE4337AB338F07E7338F4A2
:10489000BE732B0F680AE50C70061249271248A157
:1048A000227E732B627A7338F522CAD8CA797CDBF0
:1048B0009061C5E4937CABBED08078187EE0FF6C3D
:1048C000FF800B12491B38047CEB7CDF0BF0BCAF84
:1048D00038F1801ABED08178156CEE6CFF800B1217
:1048E000491B40047CEB7CDF0BF0BCAF38F1BCAD66
:1048F00038026CDD7CBD12AC8B12493F7E732B1FDE
:104900007A7338E41249587E732B0F7A7338F41295
:1049100048A17AD338CCDA79DAD8227E9005AC9FD8
:1049200009B42633BCBE227E732B0F7A7338F47E13
:10493000732B1F7A7338E47E732B207A7338E37EEF
:10494000732B147A7338E52230000312493FA20119
:104950009202124A170249587E732B207A7338E369
:10496000227440127B6A5009D200D2011249488059
:104970001C740112499B7E4338E17E5064AC4512A1
:1049800089D57AB32B1F7E0F33DE124DEF124958B3
:104990007E732B1F7A7338E402493FCA3B7CDBE409
:1049A0007AB32B14124FD47EC00A124EC2300FFDC0
:1049B000740112000E7E1F33DE128EF77D73BE74FB
:1049C000FFFF7809124A0B2E3400038018BE748052
:1049D000002807124A0B0B35800BBE744000280CD0
:1049E000124A0B0B341B0A301BC078BEBED00178B4
:1049F000097E1F33DE1289F47D737E1F33CD69314A
:104A0000001A7A732B147D37DA3B227E0F33CD2EBA
:104A100014001A0B0A3022CA3B7E34FFFF7A353568
:104A20007EB338D7F52A7EB32A6DF52B7EB32A6E76
:104A3000F52C7EB32A70F52D7EB32A6FF52E7E34C9
:104A400027107A352F7E1840007A1D31124EBB3068
:104A50000FFD740112000E7E083400124EB36CFF7D
:104A60008035124C946CEE80197E112CAC1E3E04E5
:104A70007E3002AC3F2D107E1D312D310B1A1012ED
:104A80004C9BE52EBCBE38E1E52E124CAA7402AC5C
:104A9000BF593534000BF0E52DBCBF38C512CD121F
:104AA000680B7E341000124CD0593533FE6CFF80F9
:104AB00078124C946CEE8014124E8C1E341E2450CE
:104AC000034E60801478F47D13124C9BE52ABCBE23
:104AD00038E6E52A124CAA7404ACBF593532BAE55F
:104AE0002ABEB12D5035124C947EE12A8014124E0C
:104AF0008C1E341E2450034E60801478F47D1312F3
:104B00004C9BE52DBCBE38E6E52A0A3B6D22E52D1F
:104B10000A1B6D009F01124CAE80047E341000749D
:104B200004ACBF593532BC0BF0E52EBCBF3882E572
:104B30002D0A1B6D007E180199121E016CFF802E3C
:104B40007402ACBF492534000A5FAD537E141000D7
:104B50009D15AD12740C1E141E0450034E208014BB
:104B600078F47D217402ACBF592534000BF0E52D9B
:104B7000BCBF38CCE52B0A1B6D007E18007A121ED4
:104B8000016CFF805C7404ACBF492532BA0A1FADCA
:104B9000137EF410009DF1ADF2740C1EF41EE4506F
:104BA000044EF480001478F37D2F7404ACBF5925B3
:104BB00032BAE52ABEB12D50267404ACBF49253265
:104BC000BC2E141000AD12740C1E141E0450034EA3
:104BD00020801478F47D217404ACBF592532BC0BBD
:104BE000F0E52BBCBF389E7E7338D90A376D22742E
:104BF0000C2F111478FB7EF400647D1F121DFF7DC5
:104C0000E37AE5357E7338DA0A376D22740C2F119A
:104C10001478FB7D1F121DFF7D636CFF80207402E2
:104C2000ACBF49453400BE453528097E3535593578
:104C300034008008BD465004596534000BF0E52D62
:104C4000BCBF38DA6CFF803A7404ACBF494532BA55
:104C5000BE453528097E3535593532BA8008BD46FE
:104C60005004596532BA494532BCBE453528097EE3
:104C70003535593532BC8008BD465004596532BCC3
:104C80000BF0E52BBCBF38C03002067E0D31124D53
:104C9000EFDA3B229F117A1F24F4226D007E1F243D
:104CA000F42F107A1F24F40BE0220A1B6D007E1FE4
:104CB00024F4121E017A1F24F47E252F740C7D1318
:104CC0007D326D2260052F111478FB0B14021DFF3D
:104CD0007EA12C7402A422CA3B7E081F34124EB35C
:104CE0007E1F39FC7A1D267EB32A74F52D7EB339DA
:104CF000ACB401067E3839AE80047E3805F86D33D9
:104D00007A352A740212001E7EB339AD700E7EB35E
:104D100039AB700874017AB339ADA1AB7EB339AD4C
:104D2000700674017AB339AD7EB339ACB40117752E
:104D30002C008009124CD0124DDF124E7BE52DBEA7
:104D4000B12C38F0801B752C00800F124CD0124D06
:104D5000DF3E243E241E24124E7BE52DBEB12C38AE
:104D6000EA7E3461591222F47A352E7E181F347F80
:104D70000112A1E8752C008016124CD0124DD8BE3D
:104D8000352A0809124CD0124DD87A352A052CE55F
:104D90002DBEB12C38E3124DE740257EB339ACB4BB
:104DA000011E0561E561BEB00A4015756100E52D83
:104DB0000A3B3E34CA397E1D267F03121FC91BFDE4
:104DC000740212001E124DE7500B74027AB339FBC5
:104DD000E47AB339ADDA3B2249351F340220307F03
:104DE000132D350B1A20227E372B07BE352A2212AF
:104DF0004DF90B347A732B2022CA797F109F001251
:104E00004FEA4CAA78067E340040806C6C9980385A
:104E10000AE92EE460AC7D7E7AF1827AE183E49344
:104E20007C8B9060AAE493700E7EF32A6EACF87EC1
:104E3000B32A700AFB2DF77DEF3EE47F612DDE0B78
:104E40006AD06DCC2F060B90BCA938C4BE080000F8
:104E500078020B0C0A5A6D447F107F02121E017FEC
:104E6000010B0C7E34C4007E240009121E01BE34E6
:104E700000FA28047E3400FADA79227E0D262D15F8
:104E80000B0A309D3259351F34052C227E112CAC73
:104E90001F3E047E3002AC3E2D107E1D312D310BA5
:104EA0001A207A2724F27402ACBE49353400AD23AF
:104EB000740C227E340038E4021FEE7E082A6D1244
:104EC0000BE9E412000E74017E709912122C02009C
:104ED0004EB40305124EE18002E422124EC6740164
:104EE0002212CCEDE412000E7E082A6D020BE912AC
:104EF00082083802E422124FF2495533E5BEB0026F
:104F00003803023FC0024ED17E0B707A732B0F29FB
:104F10007000047A732B62297000017A732B1429B4
:104F20007000037A732B20124FE2124FDBD200C2C3
:104F300001024948CAF86CFF80347E732FA9BC7FF8
:104F4000682A7E3005AC3F124FB0CA397E3038AC8B
:104F50003F124FC9121FC91BFD7E34008CCA397E17
:104F6000308CAC3F124FBE121FC91BFD0BF090617D
:104F7000C5E493BCBF38C37E232FA97E3005AC2384
:104F8000124FB0CA397E232FA97E3038AC23124F7E
:104F9000C9121FC91BFD7E34008CCA397E232FA97C
:104FA0007E308CAC23124FBE121FC91BFDDAF822D3
:104FB0002E1426336D00124F087E340038222E1432
:104FC000308A6D007E1832BA222E142FAA6D007E10
:104FD000183400227E082A6D020BE97E082A6D0231
:104FE0000264124FFA7A372B1B229060A7E4937C5D
:104FF000AB227EA333E37404A4227E232B0F7E33E3
:1050000038F37E3460D67E2400FF0B1A00AC232DCB
:1050100010BE14000A50047E14000A7E632B10BEDA
:10502000140F3C40047E140F3CBE1407084003E4F8
:105030008021BE140384401690611BE4937C7BBEE8
:10504000700128047401800B7A732B108009906121
:105050001BE4937AB32B107E732B10BC766802D2BC
:10506000107E2401F47D318D327C17BE1007280399
:105070007E10077E1F33C569510086541F0A013E0A
:10508000043E043E043E043E042D05790100866D75
:10509000007E34B8007E24000B021E527E083919AF
:1050A0001250D37E0839211250D31250E81250EF1B
:1050B0000250B37E373919BE34000028157E733490
:1050C0004EBE7005500C7EB303F070061250F612FF
:1050D00027EB220B0A30E5670A2BBD3228049D32EC
:1050E00080026D331B0A30227E082BB70250D37E1C
:1050F0000839EF0250D36D337A3739A922CAF87EC6
:10510000A32A027EB32A03BEA0013821BEB0013813
:105110001C7E472886BE44001E280280107EF32F86
:10512000804CFF68177E472BB74D44780F1250F61E
:1051300074017AB339AB7AB303C580354CAA78369B
:10514000B401337E372BB77A372F827EB32F80B4EA
:10515000031F7E372BB7BE340000281574047AB3C2
:105160002F807E372F987E272F9A12520E4107806C
:105170000012C80641077EC729087ED7290A4CFFBE
:1051800078197057BEA00178527D3C7D2D12C7A1C1
:1051900012520A74017AB32F808040BEF001782E3B
:1051A0007E272F889E272F907E14628A1252C7BDB9
:1051B0002338137E272F969E272F8E7E14628C1203
:1051C00052C7BD23281574037AB32F808005BEF023
:1051D0000378087AC72F987AD72F9A7EB32F8060EA
:1051E000267D3C7D2D7E172BBB7E072BBD1254C226
:1051F0000A2B7E732F7F0A37BD32580B12520A7A60
:10520000C72BBB7AD72BBDDAF8227D3C7D2D7D42A2
:105210007D137D241257B77D3112C67002521F7E56
:10522000032FA8BE00F0500241B841AD6C997EB387
:105230002F7FBEB0205005047AB32F7F7E1F2BBF77
:105240007A1F1F347E800180497404ACB849352B25
:10525000BF49252BC17E171F347E071F361254C24B
:105260007C1B7E032F7FBC0138260B907E7004AC24
:10527000782E342BBF7E141F347404121E867E34A5
:105280001F347E3004AC392E142BBF7404121E86DA
:105290000B807E032FA8BC0838AF0A590B547C0B37
:1052A0007A032FA87E032F7FBE0020500B7E032F92
:1052B000A8BE00EC4002412C227D349E3400407D8B
:1052C0002E9D237E1461497E0400FF0B0A30227D4F
:1052D000E39F117E1461431255ED906135E49370A4
:1052E000037D3E22906136E493B401067E832A6FEB
:1052F00080047E832A70128924BEE4003F381E7E1B
:1053000024003F9D2E7E1461471252C71254049010
:1053100061451253FB48027F109F017F10124FEA34
:10532000BEA00028327D149E14003FBD1E3813120B
:1053300054AC400E1252B91253EE48327F101B1C6F
:10534000802C1254AC50317D349E3400201252BF58
:105350001254047D1F801D4CAA781D1254A5BD5EF9
:1053600038161252B91253EE48047F101B1C0A0B58
:105370007D1F9D106D002F10BEE4003F286F12545A
:10538000A5BD5E28687DD40BD41ED47D5D1B54BDA5
:105390005E400C7D359D3E6D227E14614B800A7D02
:1053A0003E9D3D6D227E14614D7E0400FF0B0A1070
:1053B000121DF6125408BD5E7D1F400C1E141B14F6
:1053C0006D009F017F1080061E146D002F109061EC
:1053D000451253FB58047F108013906146E4930AF2
:1053E0000B7D1F9D106D00BF1008027F1022AD3293
:1053F0006D227C767C651A24906146E4930A1B6DCD
:1054000000BF1022AD326D227C767C651A24227E8C
:105410007337EE7A7338647E2733DB7E1461C812EB
:1054200052C71E34BD32500674017AB337EE7E1473
:1054300061C81252C7BD325008E47AB337EC125536
:10544000567E3737F4BD3250047A2737F412AED483
:10545000380A12AECC38051257F3283D12555D7E3E
:105460001461C81252C71E341E34BD3228217EB3C7
:1054700037EC047AB337EC7E7337ECBE7032281405
:1054800074327AB337EC12AEE57AB338618005E452
:105490007AB337EC7D3202AFCD02549C1255B4E49E
:1054A0007AB337FA227D549E54003F227D049E0435
:1054B000001F7ED460D17EC400FF0B6A102D10BD8A
:1054C0001E227D517D129D351220307CA7125788F7
:1054D0007CB7BCBA50037CBA22227D137E5462583A
:1054E00012550950217E54625A12550928187E140B
:1054F000625C1252C7BD32500D7E14625E1252C7FA
:10550000BD322802E4227401227E4400FF0B2A30BF
:10551000BD312212540F0255197EB337EE600F745D
:10552000017AB337F67EB3386470031255BE7EB38A
:1055300037F6B4010C740312554D1222F43E348038
:1055400007E412554D1222F47A372A62227AB336D2
:10555000B27E34615B2274027AB337EE227EB337B7
:10556000FAB401030255567EB33860047AB338604A
:105570007EB337EEB402187EB3385F047AB3385F77
:10558000B4010674017AB3386074017AB337EE7EE1
:1055900073385FBE7003400F74017AB337FA125547
:1055A000561255BE1255B47E733860BE700A280379
:1055B0000255B422E47AB338607AB3385F22E47AD1
:1055C000B337EC6CAA800D6D447E700CAC7A5943F5
:1055D00038030BA01257E338EEE47AB337ED6D339E
:1055E0007A3737F47A3737E9227E14628E7E0400E8
:1055F000FF0B0AF022CAF86CFF7EB72F9C7EC72FE4
:105600009E7E972F847ED72F867EA72F987EE72FAA
:105610009AE47E732FA81B707D2B7D1C1257397066
:1056200002E12C7E732FA8BE700A2813E47E700955
:105630007E272FA07E172FA21257397002E12C7EF1
:10564000732FA8BE70142813E47E70137E272FA436
:105650007E172FA61257397002E12C7E3462721227
:105660005731BDFC284C7E346270125731BDFB505F
:10567000417EB32F81703B7E3462761222F4125544
:10568000E97D8F9D83BE872F8250277E34627412FE
:1056900057EB9DF8BEF72F8228187DFC3EF4BDFB2A
:1056A0004002E12CBDA950057EF020807F7EF021D4
:1056B000807A7E34627A125731BDFB286F7E346265
:1056C00078125731BDFC50647EB32F81705E7E34FA
:1056D000627E1222F41255E97DAF9DA3BEA72F82F0
:1056E000504A7E34627C7E2400FF0B1AA09DFABED5
:1056F000F72F8228377DFB3EF4BDFC502FBDED50C7
:10570000057EF02280261257D849352BBB49152B30
:10571000BD49252BAB49052BAD9D10BE14002018AB
:10572000089D32BE34001058037EF0237CBFDAF8A7
:10573000227E2400FF0B1AF0227D417D027C377C03
:105740002B7404ACB249352BBF49F52BC17404ACA2
:10575000B349252BBF49552BC11294C07D3F9D35C0
:105760001220309D341220307E54626A7E4400FF45
:105770000B2A20BD32500F1257887E14626A125FC6
:10578000B85003740122E4227D319D300220301292
:10579000CCA11250F67A37344B1227C71234830249
:1057A00057A21257E0500474198002740A7AB33673
:1057B0008EE47AB3368F227EA32FA8BEA0F05017B6
:1057C0007404A459352BBF1257D859252BC17EB369
:1057D0002FA8047AB32FA8227EA32FA87404A42292
:1057E000A20A229061C5E493BCBA227E2400FF0B7A
:1057F0001A80227E7326F5BE7000227E7328937A6B
:105800007328947E732A027A732A03E47AB32A06F1
:1058100022C2007EB3169160067EB3169070071206
:1058200058292802D200A200227E732884BE70016B
:1058300022CA3B7E772A5C129C5F7D633E343E34F5
:105840007EE4000A1258BF7EB328A8600F7E37336B
:10585000C3BD3648073E343E341258BFBE64044CC4
:10586000080F129D7350067EB328A86004740A8046
:10587000137EB328A8600C7EB333C1BEB0002808E5
:10588000148001E47AB333C17EE72A5C7D3E12378F
:10589000057E5333C1BE50002812BD3F58047DF32E
:1058A0008006BDEF08027DFE7AF72A5C125829288F
:1058B0000312598A7A6733C37A772A5CDA3B227DEE
:1058C0002E121DB37DF322129FDE125831129FF566
:1058D000129C980258D6CA3B122E2A7EB3288460A6
:1058E000067EB333C06009E47AB333C27AB3334778
:1058F0007EB333C070696C99805D7402ACB9098560
:1059000026FA09F526FB7CB9129D5140486CEE80C1
:105910003C7402ACBE09D5334809C533490A280A8C
:105920003D12598278250A2F0A3C125982781C7C34
:10593000B91247597E14622B125FB8580E7CB96CAD
:1059400077122EF17CB87C7F125FCA0BE07E733336
:10595000C2BC7E38BC0B907E732884BC79389B7E99
:105960007333477A7333C20A373E34CA397E1833E9
:10597000847E083348121FC91BFDE47AB333C0DAB2
:105980003B229D321220304D3322CAF86CFF801723
:105990007CBF124759BE372A5C580A7CBF129D480B
:1059A000AC7F125FC20BF01259B238E4122E2ADA21
:1059B000F8227E732884BC7F22CAD8CA79C2006DBF
:1059C000887A873962E47AB31F58E562BEB0FF5027
:1059D0000205627EB32884600C127F470B1A80BEDA
:1059E0008707FA280AC2146D887A87392341E4129E
:1059F00091E060127E34620E1257EB7A87391912E9
:105A00005B4B7A8739237E8739194D886806740184
:105A10007AB328A96CFF8077E40A3F19B31F3412C8
:105A20005B657E081F527CBD7C7E125CFD7D937E93
:105A3000873923BD8950047A9739237E873962BD1F
:105A40008950047A973962E562BEB005381F7E0836
:105A50003925125B925007125B5CD200802F7E08C2
:105A600039257E181F5212923250228010125B4B41
:105A7000BD8938197E081F521291545010125B5C78
:105A80007E081F587E181F521291A3D2000BF012ED
:105A900059B238843000336CFF801C125B657E087D
:105AA0001F58125B9240090A3F09B31F34B4010525
:105AB0007CBF125B720BF01259B238DF7562007E48
:105AC00034620E1222F47A3739197E631F587E70C1
:105AD00006AC670B34CA397E181F587E0839251268
:105AE0001FC91BFD7E3739194D337839906209E49F
:105AF000930A3BBE37392338407C7B1E700A37BE81
:105B00003739623834906051125B537E7326F70A3E
:105B100037BD320824906050125B537E7326F60A1C
:105B200037BD3208146CFF80077CBF125B720BF02C
:105B30001259B238F4D20080066D337A373923A275
:105B40000092141291C9DA79DAD822906209E493AA
:105B50000A8B22E4937C7B1E700A272274010A8F31
:105B600019B81F34227402ACBF09D526FA09E526FC
:105B7000FB227CAB7EB33A0770177EB328A8701166
:105B800012CD3F680C125FF568077CBA6C77022E65
:105B9000F1227CBD7C7E7C6BC2016CAA80307E5081
:105BA00006AC5A7F702DF20BF429B70002BCB64048
:105BB0001B7E7BB0BCB6381429B70003BCB7400CC1
:105BC00029B70001BCB73804D20180090BA07E0BB5
:105BD000B0BCBA38C9A20122CAD8CA797EA32A6E3B
:105BE0007E472899E47AB328A67EB326F0BEB0009B
:105BF000284C7E732885BE700028436CFF803B7E56
:105C00005002AC5F09D2273609E227377E5002AC3A
:105C10005E491204FC6D229E272A53BD12581912A8
:105C20005CEA491204FC6D229E272A51BD125808D5
:105C300074017AB328A680060BF0BC7F38C1E47AE1
:105C4000B328A77EB326837040125FED283B6CFF1C
:105C500080337E5002AC5F09D226FA09E226FB129D
:105C60005CEA4902057A6D119D14BD01480D7E1054
:105C700002AC1E4920057ABD21580874017AB32868
:105C8000A780060BF0BC7F38C912B1BBE47AB328F9
:105C9000A97E3728882E372886BE37289F28067485
:105CA000017AB328A974017AB328AA6CFF801F1265
:105CB0005CF3492525F77D439D427D34122030BE9B
:105CC00037289D0807E47AB328AA80070BF01259F9
:105CD000B238DC6CFF8009125CF3593525F70BF004
:105CE0001259B238F2DA79DAD8220A1D0A2A2D219D
:105CF0003E24227CBF1247597402ACBF22CA3B7CAF
:105D0000C77CFB7F406D337A35247EA32A6D7E737A
:105D10002A6E4CCC78057EC001800D7CB714BCBCCB
:105D200078060A6C1B657CCD4CFF78057EF00180FF
:105D30000B7CBA14BCBF78040A7F1B757F047E34C9
:105D40000006E4121FEE7E732A6D0A371B347A4B6D
:105D5000707E732A6E0A371B34397400017CEC8024
:105D60001C7526007CDF800A125E22700A125E1704
:105D70001BD0BED00058F1E52660071BE0BEE00056
:105D800058DF7CEC80237526001A3F0B347CD780CB
:105D90000A125E22700D125E170BD07E732A6DBC44
:105DA0007D18EEE52660071BE0BEE00058D81A3CDF
:105DB0000B347CE7801C7526007CDF800A125E2293
:105DC000700A125E171BD0BED00058F1E526600A9B
:105DD0000BE07E732A6EBC7E18DC1A3C0B347CE729
:105DE00080217526001A6F0B64800A125E22700DE6
:105DF000125E170BD07E732A6DBC7D18EEE526600F
:105E00000A0BE07E732A6EBC7E18D77E35247D2374
:105E100039540005DA3B2205267E35240B347A35C9
:105E200024227CBD7C7E7F04CA3B7F707CE77CDBC8
:105E30007EC0047EB32A6DF5287EB32A6EF5277ED8
:105E400034620A125FE56CFF128E277F51E5280A43
:105E50003B1B340ACDBDC35814E5270A3B1B340A4B
:105E6000CEBDC358084CEE68044CDD78034EF010EC
:105E70000B5A307E14620A125FB8080C7E27288AFB
:105E8000BE2403200802E1770B0AC01EC4BD3C08F3
:105E90000C7EC7288ABEC403205802E1776CAA7C16
:105EA0008D801C7C9EBE800048117EB32A6DBCB8DC
:105EB0000809125FAE58140BA080020BA01B801AB9
:105EC0002C1A3D9D321AC8BDC318D8BCCA18054E3D
:105ED000F001E1776CAA7C8D801C7C9EBE8000481E
:105EE000117EB32A6DBCB80809125FAE58140BA01E
:105EF00080020BA00B801A2C1A3D2D321AC8BDC38C
:105F000048D8BCCA18054EF002806C6CAA7C9E80F2
:105F10001C7C8DBE900048117EB32A6EBCB9080966
:105F2000125FAE58140BA080020BA01B901A2C1A03
:105F30003E9D321AC9BDC318D8BCCA18054EF0041C
:105F400080356CAA7C9E801C7C8DBE900048117EA2
:105F5000B32A6EBCB90809125FAE58140BA08002B8
:105F60000BA00B901A2C1A3E2D321AC9BDC348D86B
:105F7000BCCA18034EF0084CFF682E7E7BB0BCBD37
:105F800040037A7BD029B70002BCBD380439D70062
:105F90000229B70001BCBE400439E7000129B7005F
:105FA00003BCBE380439E700037CBFDA3B227CB86F
:105FB0007C79124724BD3D227E0400FF0B0A20BDE0
:105FC000322209B326FA097326FB7C6B7EA3334782
:105FD0007E5002AC5A19623384197233857CBA043C
:105FE0007AB33347227E2400FF0B1AD0227E732817
:105FF00084BE7000227EB32A6BBEB001220262A56D
:10600000708F00FF3BC40000000000000000000093
:106010000000000000000000000000000000000080
:1060200031343201B30031010000000000000000F3
:106030000000000000000000000000000000000060
:1060400003FC4233000000000000000000000000DC
:106050000F1C07060504030201000C0D0E0F0B0AAE
:106060000900000000000000000000000000000027
:1060700000000000000E0F1011121314151617184F
:10608000191A1B0D0C0B0A09080706050403020167
:1060900000050004FF231C02DF0A1E0A641E100014
:1060A0000400640DAC00C8030100001B03070B00D3
:1060B000000064015E01C2028A02BC03E800000025
:1060C000000000000000C801F403200000000007E9
:1060D000D0001401192601F46E6E6E6E6E6E6E6E37
:1060E0006E6E6E6E6E6E6E6E6E6E6E6E6E6E6E6ED0
:1060F0006E6E6E6E6E6E6E6E6E6E6E6E6E6E6E6EC0
:106100006E6E6E6E6E6E6E6E6E6E6E6E6E6E6E6EAF
:106110006E6E6E6E6E6E6E000467200120030000CE
:10612000000001F468400F1C2B1519068015190694
:10613000780810042001000438464602580276010F
:106140001F0121078044440232021E011D011E006E
:1061500096009600960118011801180A00014A01DC
:106160001E0B1E000000000000000003F7000000EE
:1061700000000000000000002201000154010003A3
:10618000013B0113000001010E00050000000000AA
:1061900000000000000000005500000000000000AA
:1061A00000000000000000000000000000000000EF
:1061B000000000000000000000960226005000349D
:1061C000000100020104019000C8005001F4009693
:1061D000012C012C04260367682014035957202042
:1061E000023232203401384020260367682026031B
:1061F000676820260367682026036768200405195E
:106200001A1B1C1D0400D202303200C8015E00645B
:106210000064009600640BB8080506800190012C0C
:1062200001C203200FA001032004B00320010202D9
:106230000404064001180118019001900190015ECC
:10624000012C0190017C017C005000460078007810
:106250000078011801180A05005003E800500730C3
:10626000003201F401F4032000140048001E0080F5
:10627000010E00F0003C03E801E00087003C03E869
:106280000020041800000780006400A000A013880C
:10629000012C00A000A010000C000C0D050609093F
:1062A00006060C64C87E3734380B347A3734387EAF
:1062B00037343ABE37343828030262C022740122D0
:1062C000E59A6005D29CA9D6DF22E412652812BEA9
:1062D0004B1225E91267CC12363F12BD8B12BE62FB
:1062E00012004212BE6E1264B312BE7ED2AF12BD55
:1062F000DD1263181236CF1265597E08343C1265E0
:1063000002906050E493CAB8906051E4937C7B7E25
:1063100024FFFFDAB8021134D2C843ED0FC2EA7588
:10632000B313A9D1B4A9C0B41264A3E412633B02AD
:106330006332A9C5CAE47AB33A1122CAF87CFB7465
:10634000021263BA4CFF78055E70DF80034E702046
:10635000740212635CDAF82274067D307D237C6B54
:106360000A147C737D527CAB7EB33A11B4A53C1207
:10637000644E75B501A936B3FC1263B3A936B3FCFC
:106380001263B3A936B3FCA9C6B37A61B5A936B313
:10639000FCA9C6B37A71B5A936B3FCA9C6B37AA174
:1063A000B5A936B3FCA9C6B3A9D2B42274047D3012
:1063B00002635CA9C6B375B500227C6B6C776CAACE
:1063C0007EB33A11B4A54612644E75B505A936B32D
:1063D000FC1263B3A936B3FC1263B3A936B3FCA9AC
:1063E000C6B37A61B5A936B3FC1263B3A936B3FC60
:1063F0001263B3A936B3FCA9C6B37E71B575B500F7
:10640000A936B3FCA9C6B37EA1B5A9D2B47C476CAA
:10641000550A3A4D32227D427F607D031264A37497
:10642000021263BA7DF34EF400014EF4000A1264C6
:10643000477A45367D306D227F0612645F5EF4FF39
:10644000FD12644702633274027D3F02635CA9C29D
:10645000B4A9C6B32274061263BA7D036C1122126A
:10646000646D7E353612BEC2A9D2B4D3227D52F5F8
:106470003A7CB67CA50A44F5397F21F538A9C2B427
:10648000740B126498E53A126498E539126498E541
:1064900038126498E4026498F5B5A936B3FCA9C62D
:1064A000B3D322A9D5CAA9D1EAA9C1EA74A57AB3FE
:1064B0003A1122E47AB338C27E0835AC1267DC7E2A
:1064C0000835EA7E34003E121FEE7E1835AC7A1D88
:1064D000141264E40264D7751C00751E007EB33884
:1064E000C2F591220264E7906000E49354FE759136
:1064F00000C290C291C2C954FEF592D2E8C2C0D285
:10650000AD22D2C975F23075F38075F40C75F501C2
:106510006CAAE5F55480B480F9E5F612A7BD0BA08E
:10652000BEA00D40EDC2C922A9C4CAA9C5CABEB049
:106530000850031267E5A9D0CEA9C0C9D20212370C
:10654000D7A9C2EA75C10675C20CD200128F8DA9F7
:10655000C1C4A9D2C4A9C2E122CAF8A2AFE4337C63
:10656000FBD2001267D3A9D0CBC2AFA9D09E759D34
:1065700000A9D09E759C20A9D09EA9D49EA9D0CD5B
:106580007441123E2DA9D09EA9D79E2EF0FF92AF46
:10659000DAF8227E340004CA397E34612D7E24006C
:1065A000FF7E082B70121FC91BFD7E342A0E7A371E
:1065B0002B76E47AB32B747AB32B757E340004CA3D
:1065C0003912691F7E0825EE121FC91BFD7E342B70
:1065D000787A3725F4E47AB325F274017AB325F397
:1065E00022CAD8CA79906050E4937CDB906051E471
:1065F000937CEB7E732A74BC7E28047CF780027C3B
:10660000FE7AD32A6D7AE32A6E7AD32A717AE32A44
:10661000727AD32A737AE32A749060A8E4937CABED
:106620007AA32A779060A9E4930A2B0A3D9D327CD5
:10663000B77AB32A6F0A2A0A3E9D327A732A70907B
:106640006091E4937AB32A78906094E4937AB32AC1
:10665000790A3DCA397E3460527E2400FF7E082AC2
:106660007A121FC91BFD0A3FCA397E3460757E2429
:1066700000FF7E082A9D121FC91BFD7E340023CA1D
:10668000397E3460D87E2400FF7E082B21121FC97A
:106690001BFD12B0551277D49060AAE49370087A6B
:1066A000D32A757AE32A7612659374011237A0E42F
:1066B0007AB32B017AB32B021269287A372B0D7427
:1066C000037AB32B03E47AB32B0474027AB32B0559
:1066D0007E3461591222F47A372B0774047AB32B73
:1066E000067E34000F7A372B097E34205F7A372BF1
:1066F0000B90611AE4937AB32B6290611BE4937A56
:10670000B32B1090611CE4937AB32B1174047AB309
:106710002B139060D5E4937AB32B0F124FE2E47AF7
:10672000B32B1D7AB32B1E7E3461221222F47A37EA
:106730002B199060D3937AB32B12906124E4937A4F
:10674000B32B20906119E4937AB32B1F7E34611E22
:106750001222F47A372B157E3461201222F47A3714
:106760002B1790611DE4937AB32B147E3400307A9A
:10677000372B6A74047AB32B677E3400057A372B83
:1067800068E47AB32B667E34046D7A372B6C74011F
:106790007AB32B6374057AB32B64E47AB32B6574F4
:1067A000017AB32B60E47AB32B617E341F6B7A37A6
:1067B0002B6E0A3ECA397E3460FB7E2400FF7E08C1
:1067C0002B44121FC91BFDDA79DAD822A9D099A966
:1067D000C6DF22A9D0CEA200A995C9227E34003EF0
:1067E00074FF021FEE0A5B2E540008F5CC22BEB0E7
:1067F0000850031267E522E47AB338C27AB338C38B
:10680000906050937AB338C4906051E4937AB3386F
:10681000C5E47AB338C6906099937AB338C7E47AFE
:10682000B338C87AB338C99061C4937AB338CB7E91
:1068300034614F1222F41E341E347A7338CF7E3402
:1068400061551222F41E341E347A7338D074647A7F
:10685000B338E1906118E4937AB338E2906117E4B9
:10686000937AB338CE906119E4937AB338E49061A7
:1068700024E4937AB338E390611DE4937AB338E566
:10688000906125E4937AB338E0E47AB338DB74FAA4
:106890007AB338D9741E7AB338DA74017AB338D837
:1068A000740E7AB338D774017AB338DCE47AB3382B
:1068B000DD7AB338DE7E0838E67E34002C121FEE17
:1068C0007E3460D61222F40A367A7338F17E346050
:1068D000D61222F47A7338F29060D4937AB338F3F4
:1068E0009060D5E4937AB338F47E340004CA391248
:1068F000691F7E083902121FC91BFD74057AB3395E
:106900000F74017AB339067E340028CA397E3461A7
:10691000D57E2400FF7E082633121FC91BFD227E70
:106920003461297E2400FF226D336CAA80140A2A68
:1069300009B22ADC540178054E700180034E7010B4
:106940000BA07E532A74BC5A38E46CAA801F0A2A12
:1069500009B22AB9BEB00D38054E70C0800DBEB068
:106960001B38054E600880034E60500BA0126973FF
:1069700038DC227EB32A73BCBA22CA3B7EB47FFFC6
:106980007DAB7D8B6D227D327D9B7524006C997E65
:106990007804FC7E08057AE47AB308087AB308091B
:1069A0007AB326F67AB326F87AB326F77AB326F9BD
:1069B0006CAA805F126AE90B6AC0BDCA58027DAC3E
:1069C000BDC308027D3C2D717D600B3AD0BDD95806
:1069D000027D9D7E672A537E740003AD76BDC70895
:1069E000020524126AD60B3AD0BDCD080B7EB32621
:1069F000F7047AB326F78019126ADF0B3AC06ED417
:106A0000FFFF0BD4BDCD58097EB326F9047AB32617
:106A1000F90BA07EB32A74BCBA38997AA707FE7A1C
:106A2000370802E5247AB308097A970806126ACE75
:106A30002DF56CAA8050126AE90B6AD0BDD85802B5
:106A40007D8DBDD208027D2D7E672A517E740003A4
:106A5000AD76BDD708020B90126AD60B3AC0BDDCEA
:106A6000080B7EB326F6047AB326F68017126ADF87
:106A70000B3AD06D999D9CBDD958097EB326F80478
:106A80007AB326F80BA012697338AB7A8707FC7AC1
:106A90002708007A930808126ACE2D156CAA800E7A
:106AA00012CC970B7A90BD9B58027DB90BA012694E
:106AB0007338ED7AB70804BD8A58027DA87AA70713
:106AC000F8BD3258027D327A3707FADA3B227EA3CC
:106AD0002A747402A4227E7462107E6400FF227EF7
:106AE000F002ACFA2D7F7D6E227EF002ACFA7F6759
:106AF0002DD722CA3B7F317A0D247E35287A352E58
:106B00007E0D247F1312A1E87E35287A352A126A79
:106B1000CE7E0D242D157F132D35127A42DA3B22BD
:106B20007E372A4F1E347A35287E0804FC7E1804EE
:106B300000126AF37E3728990E347A35287E0805CC
:106B40007A7E18047E126AF3126B62126F3D026B3A
:106B500051E47AB33A0E7EB328A86005E47AB33ADA
:106B60000E22CA3B7EF32A6E7EE32A6F7ED32A7002
:106B70006CCC80137C7CAC7F3E347E0F138A2D134B
:106B80007CBD12A2CF0BC0BCEC38E9DA3B22E47A20
:106B9000B3289312C1E87EB31691B401087E73281E
:106BA000847A7328927E1804FC7A1F06F812CCAC03
:106BB000126BD612697A7EB31690B401187E7326D2
:106BC000837A7326F37E7326857A7326F57E732681
:106BD000847A7326F4227E0826867E340003E4122B
:106BE0001FEE7E0826897E340003121FEE7AB3263C
:106BF000837AB326847AB326857AB326F07AB326CD
:106C0000F17AB326F27E18266F126D446C55126C21
:106C10009C7AB326857E18265B126D546C55126CD7
:106C20009C7AB326846C778014126D2560053E240F
:106C30001478FB126D2E2E242686126D397E632663
:106C400084BC6738E46C778014126D2560053E249F
:106C50001478FB126D2E2E242689126D397EA32600
:106C600085BCA738E47EB32684A47AB326837E1835
:106C700026E6126D447E5001126C9C7AB326F27E99
:106C80001826DC126D547E5001126C9C7CAB7AA3EA
:106C900026F17EB326F2A47AB326F022CA69CAF896
:106CA0007C4B6CAA6DFF6CFF80707ED002ACDF7FE6
:106CB000602DD60B6AE04C5568066EE4FFFF0BE4CE
:106CC000BD3E58544CFF78086D4469F00002801BAB
:106CD0007CB414BCBF7F5678091BB50B5A406DFFBE
:106CE00080091BB50B5A4069F600024C55680C6EC2
:106CF00044FFFF0B446EF4FFFF0BF4BD4E5819BD6B
:106D0000FE18150ABA7E6D242DDB7A6BF00BA0906D
:106D1000609BE493BCBA28060BF0BC4F388C7CBA5D
:106D2000DAF8DA69227CB754077E240001227CA5B8
:106D30007CB7C423541F0A2B227E29604C6A7A290F
:106D4000600B70227A1D247E0F06F87EB32A6E7EB9
:106D5000372A53227A1D247EA32A6E7402A47E0F42
:106D600006F82D157EB32A6D7E372A5122126D73D7
:106D7000026B8E12251D026D791237FA500302251F
:106D80004022126D6D12006E126D9B9060A7E4930D
:106D90006008301605126DACC216221237FA400B8D
:106DA00012236AE47AB33A0D026B8E22126FF760F7
:106DB000286C22801C7CB2126F0550137CB2126DBD
:106DC000DA7D03126FEF495539F17D4012CCC10BCA
:106DD000207E732A75BC7238DC227C5B7E432A6E6F
:106DE0009060ABE4937CAB9060AAE49370087C75F0
:106DF000AC740A2A2D3222126DDA7DD37D5D3E54A9
:106E00007E1F138A2D3522CA3B7C5B7E432884BEBD
:106E100040012802E1027EA32A6E7E7002AC750951
:106E2000D326FA09C326FB7CBD7C7C128E2B7F0106
:106E30009060AAE49370127CFC7C9D7E832A707E15
:106E4000E32A6F0ACA6DBB9DBC0AA81BA50A5FBDD9
:106E50005A5802E1020A591B54BE540000484E7CA5
:106E6000B914126F0550467CB914126DF70B1AE075
:106E70007D3B126F2F08119DAEBEA4000058046D1B
:106E80005580027D5A126F277CB824FEBCBF781D46
:106E90009060AAE49370047DFD1BF47D5F126DFE8B
:106EA0000B1A30BD3A0806126E001B1AA00AA90B75
:106EB000A40A5EBDA5584B7CB904126F0550437CF3
:106EC000B904126DF70B1AE07D3C126F2F08119D6B
:106ED000AEBEA4000058046D5580027D5A126F2783
:106EE0007CB824FEBCBF781A9060AAE49370047D3D
:106EF000FD1BF47D5F126DFE0B1A50BD5A08031B7B
:106F00001AA0DA3B227CAB6C7780110A272E246012
:106F1000AC1245DEBCBA7802D3220B709060A7E4B5
:106F200093BCB738E6C3222D317D201B1A50223E78
:106F3000347F402D930B4AA0BEE40000227E632ADA
:106F40006E9060A7E493606CC2166C3380569060BC
:106F5000AAE49370137C96AC939060ABE4930A5BC5
:106F60001B542D457DD40BD47D543E547E7F138A13
:106F70002DF50B7A50BE572A5A08277CB3126F059D
:106F800050207D5D3E547E7F138A7F572DB50B5A6E
:106F9000C07D543E542DF50B7A50BD5C0804D216CA
:106FA000800A0B307E732A75BC7338A2301605D266
:106FB00000026FB522126FF760346C2280287CB219
:106FC000126F05501F7CB2126DDA3E347E7F138A39
:106FD0002DF30B7A30126FEF593539F13000056D12
:106FE000331B7A300B207E732A75BC7238D0227C1A
:106FF000A30B307402A4226C339060A7E493227E2A
:1070000008265B7E34023AE4121FEE90609C930ADD
:107010003B3E347E08268C74FF121FEE90609CE489
:10702000930A3B3E347E0826B474FF121FEE906034
:107030009A1270407E08277674FF021FEE906099C6
:10704000E4937C7B7409AC7B22CA3B7524006CFF03
:107050007525007526007528036CEE7529007E489D
:1070600029BC1272EB7EB32A0B700E7EB32A077016
:10707000087EB32A087002416B3012067E6835EA3A
:1070800080047E6835AC7F061267DC7E732A047A42
:107090006B706CDD411C7409ACBD09C5290C7CBC4E
:1070A000540F12729FF5287CBC54F0BEB000280229
:1070B000411A7A4D2A7E1800297A1D2E7E08002852
:1070C0007CBC7C7D1275E9E528BEB0037802411ACC
:1070D0007E0800287CBC129B075002411A7409AC40
:1070E000BD09B5290DF5257409ACBD09B5290EC436
:1070F00054F0F5267E732A4DBC7C28577EB32A09AE
:10710000702A752A0F7E0800250A3C2E3435946DAE
:107110002274011272A9752A207E0800260A3C2ECC
:1071200034359E6D2274101272A9800E0A3C09B388
:107130003594F52509B3359EF5260A3C1272A1B4A3
:107140000111E40A3C19B3359419B3359E75250035
:107150007526007EB32A64B4FF137525007409AC4C
:10716000BD09B5290CBEB0FF68037525017E9009E5
:10717000AC9D49B4290849A4290AE528B4013BE497
:107180000A3C19B336282D397D2839B1003C7527C2
:1071900000801D7E71277409AC7B09B33637540F0C
:1071A000BCBC780A49B3363349A33635800C052771
:1071B000906099E493BEB12738D95EB40FFF5EA406
:1071C0000FFF0974290C0A57C454F07CABE42DA5B9
:1071D000BE70FF6816E528BEB001680205240BF0FA
:1071E000E5280A5B12763B2DB580042EB4C0007EE4
:1071F0007006AC7E7F062D1379B000027F062D133A
:1072000079A00004E5257F062D1339B00006E52698
:107210002D3D7D2C39B100070BE00BD07E732A4D3C
:10722000BC7D28020196E52439B600017EB303F047
:10723000B401097EB32A08B40117800DBEF00038EE
:10724000067EB32A08600AB2121277B27401122FB6
:10725000CA7EB32A0760057F0412289EE47AB32A07
:107260000B7AB32A077AB32A088004E4122FCA12D1
:10727000764BCA597E1829087E083633121FC91B5F
:10728000FD4CFF780C12703D7E08363374FF121FE0
:10729000EEE5291275A5E5297AB32A0DDA3B220A13
:1072A0003B2D397D287E1BB0227C9B7F717E7B80AD
:1072B0004C8878077E0B907A7B90220A287E0B8080
:1072C0000A389D32122030E52A0A2BBD3208157E7D
:1072D0007BA07E0BB0BCBA7CBA28042CB980029C7F
:1072E000B97A7BB07E7B707A0B70227EB32A0270F3
:1072F000111275E12806147AB33593221273030232
:107300001FEE22E47AB3368D7AB3359374057AB3DF
:107310003632E47AB335A874FF7AB335A9E47AB388
:1073200035AA74FF7AB335AB7E0836287E34000A5E
:10733000E422CAD8CA797C567C6BC200C201C20260
:10734000C2037536FF7537006CDD7A51327EB32883
:10735000A8B40108127303121FEE81F274047AB309
:1073600036327E4400FA7EB33592BEB000280F1448
:107370007AB335927E44009674027AB33632753809
:1073800000753900801C7E51327402AC5B09B22654
:10739000FAF5330538053905327EB32884BEB1329B
:1073A00038E47A61337CA7C200C2017E7133853331
:1073B00034800A1274F7BD2408087A7134127519E2
:1073C00058F17E71337EE13380091274F7BD2408D1
:1073D0000F7CE71275117E632A6F1A26BD1248EAE8
:1073E0007535007E732A6F7CB714BCBE780CD20151
:1073F0000A371B347CB7F5368008E5347004D200B8
:10740000F5367C7A7CFA20011130003C800C127534
:1074100022127503BD2408077CF712751958EF7CFA
:107420007A7CDA800C127522127503BD24080F7C59
:10743000D71275117E632A6E1A26BD1248E70A2FED
:107440000A3D9D327CB7F5357EB335A8BEB13338E1
:10745000767EB335A9BEB133406D7EB335AABCBAD2
:1074600038657EB335ABBCBA405D7EB33632BEB153
:10747000355048E5320A3B09B33628BEB002500900
:107480007EB3368D700312752EE5320A4B7D342E95
:1074900034362812764309B43628BEB00150077E30
:1074A000B3368DB4014AD202127328121FEE7E70D9
:1074B00002E5320A2B1972362880077EB3368DB466
:1074C000012E75370180297EB3368DB4012220014B
:1074D0000330001CE535BEB00540157EB32884B4EA
:1074E000010ED202753701127328121FEE12752E8B
:1074F000E537DA79DAD8227E632A6E0A061A17ADE2
:10750000100A2A2D213E247E0F138A2D120B0A20E9
:10751000227CB7047C7B1A1B227CB7147C7BBEB018
:1075200000227E632A6E7E5136AC561A1722E5344D
:107530007C7E7C6F7C5D7C4BE519BCB408037A4192
:1075400019E51BBCB758037A711BE518BCB60803D4
:107550007A6118E51ABCB558037A511AE5191A3B35
:107560001B34BE3400000808E5191A3B1B348002A6
:107570006C777A7335A8E51B1A3B0B357A7335A9FE
:10758000E5181A3B1B35BE3400000808E5181A3B05
:107590001B3580026C777A7335AAE51A1A3B0B35D6
:1075A0007A7335AB227CABBEA001780674057AB342
:1075B0003592BEA001780D74017AB3368D740A7AC3
:1075C000B33593221275E12812147AB335937519E5
:1075D00064751B00751864751A0022E47AB3368D41
:1075E000227EB33593BEB00022CAF87CA77CFB7F15
:1075F000707E7009AC7A09B3290F097329107C6F6A
:10760000127332B401327E7BA04CAA7804740380DA
:1076100007BEA002780574017A7BB074017E1D2E2E
:107620007A1BB074030A1F7E1D2A2D317A1BB07E8F
:107630001D2A2D3139B1000ADAF822030354C07C27
:10764000ABE4227E39B0047A39B022906099E49399
:107650007CAB7409A422CA797EF32A027EE32A0352
:107660007CBF7C7E1276AE7CBF1297354CEE7814D0
:1076700012764BCA597E1828AE7E082962121FC99D
:107680001BFD800B7EB32A0970057CBF1294C87C59
:10769000BF129BABBEF000280674017AB32A0BDA46
:1076A00079227EB303F070031295470276567C6709
:1076B0007C7BA5BF0017BE6000280F74017AB32A37
:1076C00007E47AB32A097AB32A0A027799A5BE0099
:1076D0001D6CAA800E7E60FF7E5009AC5A1962298B
:1076E000660BA01228C838ED74017AB32A066CAA7A
:1076F00080207E3009AC3A2E1428AE1277171B1862
:10770000207E3009AC3A2E1428B01277171B1820AF
:107710000BA0BC7A38DC220B18203E243E243E24E9
:107720003E2422CAF87EA32A024CAA78117EB32AEC
:1077300003BEB000281374017AB32A07800BBEA0E1
:1077400000280674017AB32A0B12764BCA597E18A8
:1077500028AE7E082908121FC91BFD906135E493ED
:10776000BEB00028286CFF801F7409ACBF493528C3
:10777000AE1288207409ACBF59352908493528B0A4
:107780001252CF1277900BF0122B6238DCDAF8220B
:107790007409ACBF5935290A22122FDC7E0836B392
:1077A000E4121FEE906099122FE07E083690E402FA
:1077B0001FEE7EB33917047AB33917E51DB40108FB
:1077C000E47AB33917751D007E7339177A7303AFE6
:1077D000220222FCCAF87E732A780A477E732A7135
:1077E0000A572D547EA32A73BCAB28027CBA7EF3C1
:1077F0002A727EA32A74BCAF28027CFA7525017E0A
:10780000082AB97E182A7A120CB07525017E082A3A
:10781000DC7E182A9D7CBF120E73DAF8227AB32B15
:107820000070051278328006B401061237F1123664
:1078300030227E1F2B747E0F2B70227CAB12781DA2
:107840007CBA1212C702001E7F607EA32A6D7EB32F
:107850002A6EA47DF53EF47F017D3FE4121FEE7F8A
:10786000067D3F121FEE7AB31691227E0F138A7E99
:1078700018080ACA3B7A1D2A7F3012A6B57A5532FB
:107880007EB32B1DF52FE47AB32B1D7F037E1D2ABB
:1078900012784812CCED124FD4752E00124EC23021
:1078A0000FFD7401127C0D7E1440007D217D0712B6
:1078B00078EF127C156D3380197E35303E347F03AE
:1078C0002D130B0A207E0D2A2D1312935F7E353067
:1078D0000B347A35307E3532BE353038DC052EE556
:1078E0002EBEB00140B6E52F7AB32B1DDA3B227EC7
:1078F000B32A6DCA3B7CDB7A05397D717A25377AEC
:107900003535127B6E507C6CCC80117E732A6E12E2
:107910007A1A127A007E343400127A23127A3B38B3
:10792000EA6CCC80587EA32A6E7C7A127A1A753B58
:107930000080277EB338D7BEB13B7E70042808ACE8
:107940007C494332BA8006AC7C494332BC7E713BF1
:107950007402AC7B59433450053B7EB32A70BEB1F0
:107960003B38D012CD12680B7E3410007402A4593B
:1079700035344E127A007E343450127A23BCDC380F
:10798000A4802C7AD325B67E732A707A7325B7E447
:107990007AB325B974067AB325B87A7725BA7A7797
:1079A00025BE7E0825B67E732B1F0A37120D0E7D6D
:1079B000371282227E35397A3725BEE47AB325B86C
:1079C000127A117AD325B67EB32B1D700FE47AB3E9
:1079D00025B97A7725BA7E340020801674017AB3EF
:1079E00025B97E35357A3725BA7E35377A3725BCC5
:1079F0006D337A3725C07E0825B6120B7EDA3B221E
:107A0000740C7AB325B874017AB325B6E47AB32539
:107A1000B97E732A6E7A7325B722AC7C3E347DF72B
:107A20002DF3227A3725BA7D3F7A3725BC7A372560
:107A3000BE7E0825B6120C500BC0227E732A6FBC86
:107A40007C22CA3B7F617F507E1422387E0400FF77
:107A5000693000020B0A207A1D2C7E732A6D0A37CA
:107A60003E34CA397F167F05121FC91BFD6CDD121B
:107A70007FE07AB31F346CCC804F127B20404812D9
:107A80007B1650437402ACBC7F162D350B1A107D4B
:107A90003F1220307D037D31122030BD3058027DF1
:107AA000F1BE152A08057E152A800B6D009E052A59
:107AB000BD0108027D107D311A261A242F417EB3A4
:107AC0001F34047AB31F340BC0127A3B38AC7E7378
:107AD0001F344C77683412A2B708027D7FBE752A26
:107AE00008057E752A800B6DEE9EE52ABDE708022B
:107AF0007D7E6CCC800F127B204008127B165003D9
:107B000012A2A20BC0127A3B38EC0BD0BED00350AD
:107B100002416FDA3B227C1D2E102DA5E7BCAB2263
:107B20000AEC09AE2AB97C1D2E102CA5E7BCAB22AD
:107B30007EB32B1E701F1225E912821150FB1278A2
:107B40006B127B5620130312A5B174027AB32B1E5D
:107B5000E47AB3169122127B6E5003D21322C21321
:107B60002212AAF9127BD9027B567AB32B207EB35C
:107B700003C7B403087EB338D87002C322D3227E71
:107B8000A32FA9BEA0FF6848BEA333466842740570
:107B9000A412AEDC127BD112A7AB127BD1127FF103
:107BA000127B6E50097EB32FA912AF5D8006127B47
:107BB000D1127FE8124FE2124FDB7E732B140A378B
:107BC0007E0F33CD7930001A7E732FA97A73334636
:107BD000227EA32FA97405A4227E0824F27E3400FD
:107BE0000CE4121FEE12A83412A82BA9D1CB127CE0
:107BF0000D7A3724F67E1F33DE7A3724F87E1F1382
:107C0000867A3724FA6D3312BF42020B7E12000EC1
:107C10007E1F1386227EA32A6E0A3A3E347E081304
:107C20008EE4121FEE906093930A3B7EB32A710A92
:107C30002B2D230A3AAD327D436C77801D0A272D08
:107C40002412A7B40B0A007E3002AC372E14138E18
:107C50000B18202D201B18200B70BCA738DF221218
:107C60005BD8127CBC127ECB127E467EB303C5B4B9
:107C7000011E7E3461C0127FD87E240005AD127AC9
:107C80001728A17E1461C21252C7AD327A3728A3D9
:107C90007EB33A0F6007147AB33A0F80067EB3289A
:107CA000AC6009127B61127F5012BCE57EB328AD37
:107CB000600912C16312C10B027F6D227E90017EAA
:107CC0009461C07E8400FF0B4A307A3728A17EB4CD
:107CD00061C27EA400FF0B5A307A3728A3127F4777
:107CE0000B1A207E14614F7E0400FF0B0AD0E47A49
:107CF000B328AC127E267E34FFFAAD32127FC97DE6
:107D0000C30E347E2707FEBD2C581C7EC707FCBD62
:107D1000C358146DCC9EC72A5ABEC7288E080812B5
:107D2000A96A600312AB3812AB474005E47AB32866
:107D3000A8127FD068067EB33A076007E47AB328BA
:107D4000AD806F127E2D2805E47AB328AD3014057E
:107D5000E47AB328AD12AB85500A127E26127E63F8
:107D60007C9B80177EB3268470117EB32685700BB2
:107D7000127E2D28067E9003127E267EC707FABE4D
:107D8000C405DC0817127E2D28126DCC9DCDBEC710
:107D9000288E5808127E38E47AB328AD0A290B4A97
:107DA00030AD327A3728A10A290B5A30AD327A37F2
:107DB00028A3127E35500DE47AB328AD125FED286A
:107DC00003127E387EC7288ABDCD081F7E2400029C
:107DD0007D3D121DB36E34FFFF0B34BE37288E5825
:107DE0000A127E355005E47AB328AD12A0F1B40131
:107DF00005E47AB328AD12AA9F7EB30068BEB00036
:107E00002823147AB30068701CE47AB328AD740197
:107E10007AB328ACE47AB316917AB316907AB32881
:107E2000847AB326832274017AB328AD227E832814
:107E300084BE800022A21722E47AB300687AB328B5
:107E4000AC740202335E12B0EB6017127E267E37EE
:107E500028A13E347A3728A17E3728A33E347A37CA
:107E600028A3227EA0017E4707F8127F470B1A0045
:107E70007E34FFFAAD307E140002127EC308127EFB
:107E8000B328AC6007E47AB328AD80327EA00580C9
:107E90002D7E34FFFB127EC108057EA004801F7E6C
:107EA00034FFFC127EC108057EA00380117E34FFE2
:107EB000FD127EC108057EA00280037EA0017CBA6F
:107EC00022AD307D21121DB3BD3422C2001237FA1B
:107ED000504B6CAA80397E5002AC5A097226FA09BE
:107EE0006226FBBE700028257EB32A6F0A1B1B1476
:107EF0000A27BD215817BE600028127EB32A700AD7
:107F00001B1B140A26BD215804D200800A0BA07E38
:107F1000B32884BCBA38BF200003127E26301A234F
:107F20000566E566BEB05050167E3461C01222F47C
:107F30003E3412CD091222F43E347A3728A322C2ED
:107F40001A8000756600227E3461557E2400FF226F
:107F500012AF926D337A3738626CAA8005127FBBFC
:107F60000BA01257E338F6E47AB337F7226CAA80F5
:107F7000447E700CAC7A12AEEFBE3403E8080512F2
:107F80007FBB802F7E500CAC5A49323809491238D9
:107F900005BD13280F7D022E0438097D130B151B18
:107FA0000810800FBE34000228092E2438091B3522
:107FB0001B28300BA01257E338B7227E500CAC5A66
:107FC0004932380559323809227E240002021DB395
:107FD0007EB328A8BEB001227E2400FF0B1A102217
:107FE0007EF47FFF9F44E422097526357A732B1FA8
:107FF00022097526367A732B20227F707E332A74ED
:108000000A437E332A730A532D543E547CABE47AE0
:10801000B316907F010A3A121FEE7F070A3A021F39
:10802000EE7EA32FA87E7004AC7A0B34BE373913D2
:1080300040397E3739130B347A373913BE34000197
:1080400078057EB303F322BE34000278037CBA22A3
:10805000BE34000250097D231B2509B233F9229E4C
:108060003400032E372BB97E39B02274FF227005FD
:108070007EB338C222BEB0033815751F0030120619
:108080007E1835AC80047E1835EA7A1D148008BE4F
:10809000B05E3810751F000A1B7E1D142D311B3475
:1080A0007E1BB022BEB0D36803B4D410B4D3086D25
:1080B000337A3739138002151E028021BEB0EB6877
:1080C00003B4EC03028105BEB080400CBEB0DF38C3
:1080D000070A3B09B3032022B4FC057EB303C72281
:1080E000B4FD176CAA7EB328A860034EA0017EB32E
:1080F00037F660034EA0027CBA22B4FE057EB32B95
:108100000F2274FF22B4EB05E47AB339187E733979
:10811000180A272E2400061245DE7CAB7CB7047AB1
:10812000B33918B4030BE47AB339186D337A37399D
:1081300015751EEB7CBA227EA338C17CBA047AB3D3
:1081400038C17AA303B122CA7BCA2BCA1BCA0BC08F
:1081500083C082123AA5D082D083DA0BDA1BDA2BE5
:10816000DA7B32A9C093751C0032BEB0EB6803B451
:10817000EC337E2739154D22780EA5BFAA0A7E243E
:1081800000017A273915151E7E273915BE240001F6
:108190007810A5BF09067E34000280026D337A375D
:1081A0003915751EEA22301D0874057E7099121269
:1081B0002C7EB333E4B4014F124FF2493533E54915
:1081C0001533E76D00BE080000681ABE7000401548
:1081D000BE70023810740212001E7EB32A737E73C2
:1081E0002A74120FB57EB333E3047AB333E31282F9
:1081F00008280E124EEFB401047401800674038047
:108200000274027AB333E4227E7333E2BE7333E343
:10821000227EB333E4B40102C322D322128211506E
:10822000FB227DF36DEE6C99803C7CB9126DDA7D9A
:10823000D37DCD3EC47F572DBC0B5A101A021A00B5
:108240007E832B200A986D887F107F04121DE574B1
:10825000067F011E141E0450034E20801478F47D06
:10826000C11B5AC00B907E832A75BC8938BC227F03
:10827000200B2A100B1A001B2A001B1A1022CA3BC3
:108280007528007EB32A6FF52A7EB32A70F52B7508
:1082900025007EB31691B40102800281E26CDD817B
:1082A000D27E7002AC7D09B326FAF52909C326FBFC
:1082B0007526027527027CBD126E07D200126FB5BB
:1082C0007EB303ABB4011E7EB32A03B401177EB3A1
:1082D0002884B401107E372886BE34000A40067513
:1082E0002603752703E529600512850E48037526C8
:1082F000014CCC680CE52B0A2B1B240A3CBD3248F0
:10830000037527017525007524008051E524BCBD47
:1083100068491287F07AA12C09B326FBF52D0A2AA9
:10832000E52912856ABE3400041830E52D0A2B0AAF
:108330003C9D32122030BE340004181F1284E540E8
:108340000AE52C7E712D128550500575250080039D
:10835000752501752601752701800705241287D22E
:1083600038AA1284E5500B126DAC752600752700F3
:10837000800B1257E05006752603752703E525701C
:1083800002816D6CFF6CEE1285011815E52A0A5BFF
:10839000BD35480D1284F61808E52B0A5BBD35582B
:1083A0000312851B0BE0BEE00378DC0BF0BEF0038C
:1083B00078D37EA12B1BA0BCAC68064CCC68028194
:1083C0006DE529BEB0003802816D12850E4802812C
:1083D0006D7E1800647A1D414CCC78057540028092
:1083E00007BCAC78037540006CFF7EA1403EA07EC8
:1083F0009006AC9F7CB92CBA242E1284EC7E14001B
:1084000064121DF67CB924300A1B0B18101287C3A6
:108410007E0D41BF1058037A1D410BF0BEF003786A
:10842000C97E1D41BE18000058077E1800017A1D44
:10843000416CFF7406ACBF24301284EC7E0D4112F7
:108440001DE57E080064121E527D43E5290A3B1B90
:10845000340A5F2D530A2C1B247EA1400A3A2D3288
:10846000128E2B1B1A400BF0BEF00378C6E5267E59
:1084700071277C6D7E5128128A51E525602F6CFF93
:108480006CEE1285011815E52A0A5BBD35480D1200
:1084900084F61808E52B0A5BBD35580312851B0BC3
:1084A000E0BEE00378DC0BF0BEF00378D3906136D9
:1084B000E493B401167E7009AC7D7D132E142776EB
:1084C0006D002E3427786D2212826F126DAC052854
:1084D0000BD07E732884BC7D280241A1E5287AB3A5
:1084E0002884DA3B22E5297C7C0285500A3B0B3844
:1084F000301A261A24220A2E0A3C2D32BE340001DC
:10850000220A3FE5290A4B2D34BE34000122E52A18
:108510000A2B1B24E5290A3BBD32221B440A5F2D8E
:10852000540A2C1B240A3E2D321247247D237C7EC4
:108530003E707406ACBF2CB7242E0A3B1B38202299
:108540007402ACB1092526FA093526FB7CB27C738E
:108550007CA77C7B9060AAE49360027CA79060ABD0
:10856000E493BCBA7802D322C3220A3B9D32022094
:10857000307E30647E20646C11804A0A310B347C7A
:108580000780387E7002AC7009B326FA1285E609BE
:10859000B326FA12856A7C977E7002AC7009B32606
:1085A000FB1285E609B326FB12856A7C87BC392855
:1085B000027C39BC2828027C280B007EB32884BCAE
:1085C000B038C00B107EB32884BCB138AEA5BB64F4
:1085D000026C33A5BA64026C22BC2328047CA280FE
:1085E000027CA37CBA220A2B7E7002AC7122CA796B
:1085F000C2007EF0031287007EE32A037E341F341C
:108600007A3702AD1258293802C1C512872C920D53
:108610001286CE7CBF12B3884CEE680E7EA3028A0F
:108620004CAA780A7EB3028B7004D2008025BEE08B
:1086300001280BE560BEB0082804D2008015D200E6
:108640007EB32884BCBE780B200D084CAA78046C3D
:10865000FFC2002000057CBF12B3887E08028F1283
:10866000B8327AB3028EBEB3288450387E33028E7D
:1086700080247E7002AC73092302AF091302B02E6E
:108680003702AD0B38507E932A6EAC920A312D43DF
:1086900012CCC1122EEC7C031B30A5B800D474019F
:1086A0007AB3028C7EA3028E7AA328847402A4CAB1
:1086B000597E1802AF7E0826FA121FC91BFD1285CB
:1086C00071F56080067560641287E4DA79226CAA1D
:1086D00012B7EB1286F97E0BB054FE1286F67E0BB3
:1086E000B054071286F67E0BB054FB7A0BB00BA089
:1086F000BEA01E40DB227A0BB07F012E14000522A3
:108700001287CA28087EB328847002F55F7EB328DA
:10871000847018E55FBEB0FA5002055FE55FBEB039
:10872000054008E47AB302EB755FFA22CA3B7EE3A8
:1087300028846CDD6CFF7406ACBD128E9030E0377F
:108740006CCC80271287DA7AB31F7009A326FB7AD4
:10875000A31F717F07128782500F7F077EB31F719F
:108760006C7712878550020BF00BC0BCEC38D5BE7D
:10877000F0024003D380080BD0BED01E40B6C3DA4F
:108780003B227E70017C877C9B29A000032960002E
:10879000017E7001BE8001780729A000027E0B6077
:1087A0000A070A292D020A16BD01480C0A170A3ABF
:1087B0002D31BD231802D322C32202827E7E700196
:1087C0000287851A021A00021E527E732A03BE70A7
:1087D00000227E732884BE7124227E7002AC7C0944
:1087E000B326FA227E0802EC7E3400B4E4021FEEC7
:1087F0007E71247402AC7B09A326FA227C6B2E6066
:10880000DD681C2E60FD68171B6168132E60FA6816
:108810000E1B60680A80000A2B197203A0D2112275
:108820007DC37E346137125FE5906135E493700358
:108830007D3C22906136E493B401067E832A7080E9
:10884000047E832A6F128924BEC4003F381F7EE451
:10885000003F9DEC7E34613B12573112891512891D
:1088600004BF7140027F719F177F7121011254A5CF
:10887000BD5C38247DEC9DE57E34613D125731129C
:10888000891590613AE4930A3BBF7140047F711BE4
:108890007C12890C2F7180697DB40BB41EB47D5B92
:1088A0001B54BD5C400C7DF59DFC6DEE7E34613F3C
:1088B000800A7DFC9DFB6DEE7E346141127FD87F86
:1088C00017121DF67F717C767C650A247F71BD5C72
:1088D0007D3D400C1E341B346D229F177F71800636
:1088E0001E346D222F711289046D22BF7150047FD6
:1088F00071800E90613AE49312890CBF7128027F57
:10890000717D3F22906139E4930A3B220A2B7D3D21
:108910009D326D2222ADFE6DEE7D3F7D2E7C767CFC
:10892000657F71227E9040AC891B4422CAF81237C1
:10893000FA504B7EB31691B401446CFF803B74092E
:10894000ACBF493527761288207DA37409ACBF4996
:108950003527781252CF7D93BEA400004012BE94FA
:108960000000400CBEA4041A3806BE9405782807FF
:108970007CBF6C77122EF10BF01259B238C0DAF8C6
:1089800022028984CA796CFF7ED72A5A6CEE803520
:108990007CBE124759BD3D482A7CBE122E79602309
:1089A0007EC40009CAC97E7009AC7E2E3427766D5C
:1089B000227E3009AC3F2E1428AE6D00121FC91B59
:1089C000FD0BF00BE01247EC38C67A7328937AF36C
:1089D0002A02DA79227D137D326D2274062F11145A
:1089E00078FB0B14121DFF7D53BE5400FF28047E3C
:1089F00054004022CAF87EF32A707A371F3A7E3438
:108A0000159E7A371F3CE47AB31F347AB31F357E44
:108A1000732A6F7A731F367AF31F377AB31F387A47
:108A2000B31F397E081F34128A496D227D036D11F0
:108A30007E3715A02F107E331F366D00121E010ADF
:108A40001F6D00121E01DAF822120AA07E37159E51
:108A500022CA3B128E1E7409ACBF7DD52ED4277658
:108A60006DCC7E372A667A355DE439B600067E70B5
:108A700002AC7E09B326FAF54B09B326FBF54C7E12
:108A8000732A6E7C6D7E08004F128CABF54DE54B62
:108A90007E732A6D7C6C7E08004E128CAB7CABE53D
:108AA0004E7E714F128E2B7A35597E34159E7A3553
:108AB0005B854E53854F547AA155854D567EB32A1A
:108AC00059F5577558007E080053128A497D236D69
:108AD000337E9715A06D882F417E3715A26D227DBC
:108AE000036D117E3715A42F107A1D457E3715A60C
:108AF0007D236D337EB715A86DAA2F517F740A4C64
:108B0000E54B0A5B9D54F54961F20A4DE54C0A5B61
:108B10009D54F54A61DCE549BEB000580261DA7E39
:108B2000732A6DBE7149180261DAE54ABEB0005879
:108B30000261DA7E732A6EBE714A180261DAE54973
:108B40007E714A1247247E532A590A259D327A356E
:108B500051BE340000180261DA7E355DBE35511811
:108B60000D7F162E3400067E1BB0047A1BB0E54B39
:108B70000A2BE549128C90180BE54C0A2BE54A129A
:108B80008C900856E5497E714A7C6E128E9DF55098
:108B9000B4020C7E35517D230E249D327A3551E589
:108BA00050BEB0026805E550B4012F7E45517D34BA
:108BB0001A261A24E549128C817F017E1D459F10DB
:108BC0007A1D457D341A261A24E54A128C819F515C
:108BD000128C889F41128C889F71054A0A2DE54CA2
:108BE0000A3B2D321A27E54A1A3BBD32180261169C
:108BF00005490A2CE54B0A3B2D321A27E5491A3B59
:108C0000BD321802610ABE48000078020B4CBE78E3
:108C1000000078020B7C7E1D457F04128C9C1B6A31
:108C2000307F157F07128C9C793600027EB32A654F
:108C3000600D1EF41EE450044EF480001478F3BE60
:108C400078007F28047E78007F7D3F3976000574A8
:108C500009ACBE0975277C39760006BE700F280660
:108C6000740F39B600067EA14B7E7009AC7F19A344
:108C7000277D7EA14C7E7009AC7F19A3277EDA3B4D
:108C8000221A1B1A02021DE57E35511A261A2422C9
:108C90001A3B9D32122030BE3400012274062F117F
:108CA0001478FB121E012E18002022CAF87CF67CD4
:108CB000877C9B0A2F7D323E340B347CB7BCF9385D
:108CC000140AF81BF40A3F9DF30A39BD3F18067CCD
:108CD000AB0A39801DBCF9280D0A390A5F2D530BE8
:108CE000547CABE480100A3F0A582D530A399D5337
:108CF0007CAB9D327CB77A0BB07CBADAF8227EA3CB
:108D00002884E47AB336A66C33803D7E7002AC735F
:108D1000092326FB7E10016C008027BC0368217E9E
:108D20007002AC70099326FB0A290A32128C921841
:108D3000020B10BE1002400874027AB336A68006F9
:108D40000B00BCA038D50B30BCA338BF028D4FCA76
:108D5000F87E3328846C2280457402ACB209152653
:108D6000FA090526FB7EA0016C99802CBC9268262E
:108D70007E7002AC79098326FA09F326FB0A280AD9
:108D800031128C92180B0A2F0A30128C9208020BA7
:108D9000A0BEA00350060B90BC3938D00B20BC32CB
:108DA00038B77EB33741BEB0002812147AB33741CA
:108DB000BEB01428087E34008C7A372A5A7EB3035A
:108DC000AB70587EB33A0770527EB337F6704C7E64
:108DD000373923BE34001450427E37288ABE34030C
:108DE0002058387EB32884BEB003402FBEA0034075
:108DF0002A7EB32685BEB00350097EB32684BEB05A
:108E00000340187EB326F6BEB00850097EB326F79D
:108E1000BEB0084006741E7AB33741DAF8227CF5FA
:108E20007CE67CD77CCB227CBD7C7E7E132A6EAC1C
:108E30001B3E047E3002AC372D107E1F138A2D316D
:108E400022CA3B128E1E7554007EA1547406A412D1
:108E50008E9030E12E7F077CBC1287BD50257F07A6
:108E60007CBE128782501C7F077CBD6C7712878581
:108E700050117F077CBF6C77128785500629B70099
:108E800004800A0554E554BEB01E40BDE4DA3B221E
:108E90007DF52EF402EC6DEE29B70005227CA67C50
:108EA000377C2BE46C118046BCA168401A413E44DB
:108EB000090426FB0A200A339D321220307C071A4F
:108EC000413E44097426FA0A270A329D32122030A4
:108ED0007C97BE90011808BE00011803740122BEE1
:108EE00090021808BE000218037402220B107E8341
:108EF0002884BC8118B2227A371F387E3415A87AAC
:108F0000371F3C7E34159E7A371F3A7E732A6F7A5C
:108F1000731F357E732A707A731F347E372A5C7A0A
:108F2000371F3E7E372A5E7A371F407E372A607AA7
:108F3000371F4274017AB31F367AB31F377E081F7A
:108F4000347E181F441206747E371F4E7E271F4A38
:108F5000BD2328027D3222128F86C2001267D3C23F
:108F6000021237D7C200128F8DA9D5CB740F120011
:108F7000667A1BB0740F6C77123639E5FC7A0BB049
:108F800043FC100236C8E41212DE021296A200A9B7
:108F900097C1A200A997C222128FC4128FCB75CDA0
:108FA00000A9D6EBA9D7CDC2CE128FDC128F577491
:108FB0000112906EA9C6EBA9C7CDD2CEE5257E7170
:108FC0002402377F74817AB3344922128FD468FB2C
:108FD0002093FD227EB333E4BEB001227E0800253B
:108FE0007E1800242274C87AB3344DC21C800A1241
:108FF000903D301C0475E9FF22128FD468F1227471
:10900000011267EE201C0612902312901E7EB333CD
:10901000E4B40106128FE512901EE40267EED2015D
:109020000237E0D200801230000C128FD46807C2E1
:1090300000C2011237E012903D301CEB22801D125D
:109040008FC4128FD46805C2011237E07EB333E4B7
:10905000BEB0026818201C15E412906E2093E01236
:109060008FC4A9D1CDA9C5EA740202906E227CAB4F
:109070007EB33449B481384CAA7805A9D0878029B9
:10908000BEA001780FC2AFA9D0CEA9C7C9A9D18708
:10909000D2AF8015BEA0027816C2AF209309A9D026
:1090A000CEA9D7C9A9D187D2AF000000000000E443
:1090B0007AB3344922301D05C2011237E0A9D1CD5F
:1090C000A9C5EA301C03201D14128FC4A9D0CEA953
:1090D000C4C9740212906EA9D0CEA9D4C9A9C1CDB9
:1090E000D2010237E07E3461597E2400FF0B1A2042
:1090F0001E241E2412910450087E272A4F1E241E6F
:10910000247D3222C200125FF568077EB32A68B45C
:1091100001177EB337F670111237FA400A7E3728EE
:109120008ABE3401905802D200A20022129104504B
:10913000127E372B07BE34012C28087E34012C7A8E
:10914000372B07227EB339AC700474018001E47AB6
:10915000B339AC227F20C2017E2B60297200029CB1
:10916000761A371220307C27297200012932000339
:109170009C371A331220307C371A231A329D321250
:1091800020307C677C72BC3258027C73BE6005184C
:1091900005BE700658087E3739194D336802D20172
:1091A000A201227F607E6BA0BEA00A501B7E14002D
:1091B00006CA197406A47F062D150B14121FC91BAD
:1091C000FD7E6BB0047A6BB022301413127FD0682E
:1091D000067EB33A0760087E340BB87A373921220D
:1091E0006CAA7E632A6E7E732A6DAC767D131E1484
:1091F0007E2728882E272886BD21380A1E341E3453
:10920000BE3728865029906051E4931EB00A2B7E09
:10921000B326F70A3BBD320816906050E4931EB0A7
:109220000A2B7EB326F60A3BBD3208037EA0017CE2
:10923000BA227F617F507E6B90801F29860001805B
:109240000F7F057CB97C78125B965002D3220B808D
:1092500029760003BC7850E90B9029760002BC798E
:1092600050D9C322CAD8CA797CFB7F517F407F1571
:10927000127FFA1247F37EE001123FAE301DFD74FB
:109280000212001E7F041293686CDD80187402AC19
:10929000BD7F142D350B1A207402ACBD7F052D1532
:1092A00012935F0BD07E732A740A077E632A730AB7
:1092B000162D100A2DBD2148D41BE078BC7F057CFB
:1092C000BF2E732A731292CDDA79DAD822CAD8CA9D
:1092D000797CF77F701293787CEB6CDD80207402D0
:1092E000ACBD7F672DD50B6A306D2274042F11142D
:1092F00078FB0A1E6D00121E011B6A300BD0BCFDEC
:1093000038DCDA79DAD822CA797F517F407EA32A05
:10931000740A3A7EA32A730A7A2D737E0D2A7C7F03
:109320001292CD0A3F3E34CA397E1D2A7F04121F95
:10933000C91BFD7EB32B01B401226CAA801A7E707A
:1093400002AC7A7F052D130B0A207F042D130B0A24
:10935000309D321B0A300BA0BCFA38E2DA79220BBE
:109360000A302D321B0A30227EB32A737E732A7490
:10937000120FB5740202001E7C7BA5BF000374109F
:1093800022BE700438046CAA8021BE700838057EA5
:10939000A0018017BE701038057EA002800DBE703F
:1093A0002038057EA00380037EA0040A473E443E89
:1093B000443E447CBA60051E441478FB7CB922020A
:1093C00093C2CA797CE57CFB7EE4FFFC7CB4129BF3
:1093D0005B7D037E7009AC7E491328B0BE14026029
:1093E000500512949A400BBE1469B0281F12949A2B
:1093F000281A3E04BE140230500512949A400BBE47
:109400001469E0280712949A28023E04BE04010061
:1094100028047E0401007409ACBF49252962493340
:1094200028AE1294C01294A57E7009AC7F49F3292E
:10943000627409ACBE492528AEBD2F280F7D532E7E
:109440005429627D2F2D211B5820800DBDF140092C
:109450002E3429629DF11B38F07409ACBF1294B40C
:109460001294A57E5009AC5F493229647409ACBEE0
:10947000490528B0BD03280D7D022E0429642D1353
:109480001B08108012BD31400E7E5009AC5F2E24A7
:1094900029649D311B2830DA79227409ACBF492533
:1094A0002964BD12227D30AD317C767C650A247D35
:1094B000135D1E22492529647409ACBE493528B0C4
:1094C0009D321220307D1322CA3B7CFB6CEE8068FB
:1094D0006CDD80167409ACBD096529667409ACBEE3
:1094E000097528B2BC6768070BD012953F38E512A2
:1094F000953F28487409ACBD09C529661294B47417
:1095000009ACBD492529627409ACBE12971B2D31E7
:109510007A35240A3C09B329BCB4010E6D337402B8
:10952000ACBC59353690593536B37E35247CBD7C7C
:109530005E7C4C1293BF0BE0BCFE3894DA3B229069
:109540006099E493BCBD22CA3B6D117EE32A027E82
:10955000B32A0DB401047464800A7EB33736BEB0FA
:10956000002805147AB337364CEE78236CFF801A46
:109570007402ACBF1297137E7009AC7F19A336CC6E
:1095800074020A3F19B337370BF0122B6238E1121D
:1095900098757E240014AD327D432E4403206CFF69
:1095A000C1EC7409ACBF09D528B25ED00F12953F4B
:1095B0003802C1EA0A1D09B129BCBEB0017802C156
:1095C000D0752400C1C27EA1247409A409C536CC7B
:1095D000BCCD6802C1C0492536CA7409ACBF493543
:1095E00028B09D321220307D037EA1247409A44945
:1095F0002536C87409ACBF12971B2D030A1C09A19C
:109600003737BEA000281D7E3002AC3C59013722FE
:109610000A1C2E1437377CBA147A19B07EB3373649
:109620007002C1EA7402ACBC49153722BE14003284
:1096300028087D312D34BD304020BE14003228086A
:10964000BE040032280280727D312E340032BD30DB
:109650005008BE14003228028060BE0400A02856C4
:109660000A1D09B129BC70047403800274010A1D2B
:1096700019B129BC74030A1C19B129C6BEE000281F
:10968000691BE07E7009AC7F2E3428AE7E141F3437
:109690007409121E867E7009AC7E12972DAC3F12A3
:1096A00097247E341F347E3009AC3E1297241BF081
:1096B0007402ACBC80047402ACBC59053722802A09
:1096C0000524906099E493BEB1242802A1C6801AB3
:1096D0006D117402ACBD1297137E3009AC3D19A117
:1096E00036CC74020A1D19B137370BF0BCEF2802D3
:1096F000A1A2E47AB3169290609912764FCA597E6D
:109700001828AE7E0836C8121FC91BFD7AE32A024C
:10971000DA3B22591537227EA0FF22493528AE9D1B
:10972000320220302E1428AE7409021E862E3428F0
:10973000AE7E300922CAD8CA797CDB906099E49366
:109740007CFB6C1180217E00FF7409ACB119051FF0
:10975000387E347FFF7409ACB159351F347409ACBD
:10976000B159351F360B10BCF138DBE46C777C6DDA
:109770001297D37C7D7C6F1297D36C0080396CEE8E
:1097800080167409ACBE09651F387409ACB0097540
:1097900028B2BC7668060BE0BC1E38E6BC1E781505
:1097A0007E7009AC7012972DAC312E141F347409E1
:1097B000121E860B100B00BCF038C37409ACBFCA74
:1097C000597E181F347E082962121FC91BFDDA79E1
:1097D000DAD8227E081F34129A2E7C1B227EA32AFE
:1097E00003BEA000382FBEA32A0250197EB32A0C54
:1097F000BEB3374328147EB33743047AB337437A72
:10980000A32A028005E47AB337437EB32A027005A7
:10981000E47AB32A0B227EB32A0270291287CA285F
:10982000247EB336C770181298557E732A037A7354
:109830002A0274017AB32A097EB336C7048001E490
:109840007AB336C722E47AB336C77AB32A0922122A
:1098500098160297DD7E34003CCA397E18376E7E3A
:109860000837AA121FC91BFD7E7328947A73376DBF
:109870007A732893227E732A03BE732A0278177E96
:10988000732A02BE7001400E7E3736A4BE34001427
:10989000380E0B3480067E3736A41E347A3736A451
:1098A0007EB32A0270066D337A3736A47E3736A42B
:1098B000221298E20298B77EB32A0970247EA3365A
:1098C000A64CAA7803E48007BEA002780674037A47
:1098D000B336B17E7336B2BE7336B128047A7336AE
:1098E000B122CA797E132A027E7829BC1257E0E49D
:1098F000337C0B4C0068087E30197EA00580067E04
:10990000300A7EA001A5B900051257A24117BC205C
:1099100050031257A26C00410C7E7009AC70099381
:10992000290CBE90FF7802410A0A297F672DD27E5A
:109930006B80BE8002680221ED129A244933290807
:109940009D321220307DD37E7004AC794923374696
:10995000129A1A9D321220307DC37E73368E0A27EA
:10996000BD2D2853BD2C284F129A247EF009ACF04F
:10997000592729087E5004AC59492237467EF00900
:10998000ACF05927290ABE100028021B10A5B90007
:10999000797EB3368F047AB3368F7E63368FBE609E
:1099A000324067E47AB3368F7EB3368EBCB3505AFA
:1099B000047AB3368E80537E5009AC5049B22908E0
:1099C0007EF004ACF959B737444922290A592737A0
:1099D00046BC7328067AA3368E800BBC7A28077C97
:1099E000B7147AB3368EE47AB3368F801D4C8878FC
:1099F000197E7009AC70493329087E5004AC59595E
:109A0000323744129A1A593237460B00906099E463
:109A100093BCB028022119DA79227E7009AC704912
:109A200033290A227E5004AC594922374422CA3BCA
:109A30007C467CAB6C6641ED7C5741E57EF009AC21
:109A4000F6098729667C987ED009ACD509B628B27C
:109A5000BCB9680241E3BE90FF780241E3129AFD6F
:109A6000398700040AF909BF29BC7EF009700CACE3
:109A7000F57D972E9428AE6D88800AACF67D972EE2
:109A80009429626D880B4AD0129AFD1B7AD069F432
:109A900000027EF009ACFA7F602DD779F600027ED5
:109AA000F009ACF5098728B3129AFD398700057EC5
:109AB000F009ACF5098728B4129AFD398700067EB3
:109AC000F009ACF5098728B5129AFD398700077EA1
:109AD000F009ACF5098728B6129AFD398700080B02
:109AE000A080080B50BC452802413C0B6090609957
:109AF000E493BCB6280241387CBADA3B227EF009F6
:109B0000ACFA7F702DF7227CAB7E0BB06003B40201
:109B1000310A4A097436A7BE7336B1500E7D242E21
:109B20002436A77CB7047A29B0D322BE7336B1405D
:109B300009BE70FF6804E47A0BB074FF19B436A74D
:109B400080170A3A09B336A7BEB0FF6807E419B315
:109B500036A7D322E419B336A7C322CAF87CFB7D0B
:109B6000F37E172A62BD1338067E34010080156D1E
:109B7000227C567C676C77121DFFBE3400105004A7
:109B80007E3400107402ACBF492536B3BD2F2806C1
:109B90004935369080045935369059F536B3BE3480
:109BA000010028047E340100DAF8226CAA80637E6A
:109BB0005009AC5A49322962122492593228AE7E99
:109BC0005009AC5A49322964122492593228B07E85
:109BD0009009AC9A09B4296619B428B27E9009ACF0
:109BE0009A09B4296719B428B37E9009AC9A09B4CC
:109BF000296819B428B47E9009AC9A09B429691966
:109C0000B428B57E9009AC9A09B4296A19B428B66B
:109C10000BA01228C83898227E0836A67E34000D84
:109C2000E4021FEE7CABA5BF000C7EB337E67AB32F
:109C300037E77AA337E67EB337E760047408800D10
:109C40007EB32884700B7EB337E86005147AB3378F
:109C5000E87E7337E8BE70002803740122E422CA4C
:109C60003B6D447EF328846CEE80247CBE122E79FA
:109C7000601B7402ACBE09D526FA09C526FB7CBD63
:109C80007C7C1247247DF3BD4F58027D4F0BE0BC16
:109C9000FE38D87D34DA3B22CAD8CA797E346227AE
:109CA000129D40129D735002A13B7E34622B122202
:109CB000F47A352A906226E4937002A13B7EB328A1
:109CC000A8B401077E346229129D407E37288ABEDF
:109CD00034044C08666CDD805AC2007CBD124759C2
:109CE0007A35267CBD7E7001129D997A35249E3589
:109CF000267A35247E35263E343E34127FC97A35A5
:109D000028BE752858037A75287E3528BE35240864
:109D10000A7E352ABE35260802D2007CBD129D512E
:109D20005002C20030000A7CBD129D48AC7D125F1B
:109D3000C20BD07E732884BC7D389EDA79DAD822B3
:109D40007E2400FF0B1A70226C77122EF17E7002B7
:109D5000227C4B7402ACB4095526FA096526FB7EB9
:109D600073288CBC75780A7E73288DBC767802D3F4
:109D700022C3226C996C88800F7CB8124759BE347C
:109D800001F408020B900B807E732884BC7838E9BC
:109D9000BE90013802C322D322CA797CA77C8B7E75
:109DA000B32A6F7AB31F9A7EB32A707AB31F9B7E51
:109DB0007002AC78099326FA098326FB9F771A3A3A
:109DC0001A799D73C1517AF158BEF000580E1A3FAE
:109DD0001A299D231A392D327CB7F5587EB31F9A64
:109DE000BCBF180E1A391A2F9D231A399D327CB721
:109DF000F5581A2A1A389D327CB7F5578043855793
:109E000059E557BEB0005810E5571A3B1A289D2354
:109E10001A382D327CB7F5597EB31F9BBEB1571847
:109E2000101A38E5571A2B9D231A389D327CB7F546
:109E300059E5587E71591247241A261A242F7105A4
:109E4000571A3A1A282D23E5571A3BBD3208AF0B93
:109E5000F01A3A1A292D231A3FBD321802A1C67FE3
:109E600017DA7922CAF87CFB7E7002129D997F7105
:109E70007CBF124759129E827F17121E527CB7DA9E
:109E8000F8227D131A021A0022CA3B7CFB7F617FF5
:109E9000409F117F517F717A1D3C7A1D407A1D448D
:109EA000BEF00A78067E54013C80047E5402357A66
:109EB0005723436CEE80600A5E7F14129FD67A555A
:109EC0004A0A5E7F16129FD67A55487E3548129E02
:109ED000822F507E654A7D161A021A002F70129E3C
:109EE00082129FCC7E1D3C2F107A1D3C7D161A02DB
:109EF0001A007E354A129FCC7E1D402F107A1D40DD
:109F00007E154A1A021A007E3548129FCC7E1D44E7
:109F10002F107A1D440BE0BCFE389C0ADF6DCC7F0D
:109F2000157F06121E527F517F177F06121E527F29
:109F3000717E9400647E1D3C7D19121DF67E872380
:109F4000437D187DD81A121AC27F06121E527A1D3E
:109F50003C7E1D407D19121DF67F06121E527A1D91
:109F6000407E1D447D19121DF67D181287C37A1D8F
:109F7000447F157F07121DE57E6D449F617F157F2D
:109F800005121DE57E5D3C9F517F177F07121DE581
:109F90007E7D409F71BE5800006806BE7800007844
:109FA000067E44006480187F167D19121DF67F0519
:109FB000121E527F06121DE57F07121E527D43BE00
:109FC00044000018026D447CB9DA3B221A261A2498
:109FD000121DE57F01222D357E1B700A5722E47A7F
:109FE000B333477EB3288460067EB333C06005E494
:109FF0007AB333C222CA3B7EB32A74F527127E3568
:10A00000500201956D339E372A4F3E34BE3707F814
:10A01000080201957EB31692707B7EB328A8B40126
:10A02000657E772A517E672A537524008053E52484
:10A03000122E79604A12A09812A1DB7EB32A03B4D3
:10A04000010E9060ABE493BEB12678040E640E74EA
:10A050007EA1267402A4493504FCBD364814E525CA
:10A060000A2BE5270A3B2D323E34493304FCBD3729
:10A07000580DE5246C77122EF112A098125FC205DC
:10A08000241287D238A87EB32A6870097EB32A6B5F
:10A09000700312A0A0DA3B227E71247402AC7B22F2
:10A0A0007EA0017E372A4F12A0E928356D229D231C
:10A0B000BE2707F8582B127FC9BE3707FA0822E4DB
:10A0C0007AB328847EB32A0370177EB303C7B40122
:10A0D000106CAA0564E564BEB0102805D21575643D
:10A0E000004CAA6803756400227EB32884BEB000C9
:10A0F00022CA3B12A0E9380221B87EC3006B4CCCC7
:10A10000783D7AB3006BE47AB3006D6CAA802612B6
:10A11000A1C37E7002AC7A09D326FA09E326FB7A42
:10A1200049D019E40001740119B4000812474759D5
:10A130003400020BA07EB32884BCBA38D2807F7C66
:10A14000FC6CAA803512A1C37E49D009E400010944
:10A15000B4000870041BF0801F1247477D23493468
:10A1600000029D321220307DF3BEF40023080974F2
:10A170000519B400087565010BA0BCFA38C74CFF7F
:10A18000780280267E73006DBE700440226CAA8027
:10A190000E12A1C309B40008BEB00568060BA0BC2E
:10A1A000FA38EEBCFA780375650012A1CD800F7CF9
:10A1B000B7047AB3006D800612A1CD756500E56520
:10A1C000DA3B227E9009AC9A2E44006E22E47AB3E8
:10A1D000006C7AB3006B7AB3006D2209B326FAF5EE
:10A1E0002509B326FBF52622CA3B7F617F507E738B
:10A1F0002A6E0A373E34CA397F167F05121FC91BE3
:10A20000FD6CDD127FE07AB31F6C6CCC804A12A229
:10A210009178437402ACBC7F162D350B1AE07D3F5C
:10A220001220307D137D3E122030BD3158027DFE5C
:10A23000BEE52E08057EE52E800B6D339E352EBDC6
:10A240003E08027DE37D3E1A261A242F417EB31F6D
:10A250006C047AB31F6C0BC07E732A70BC7C38AE62
:10A260007E731F6C4C77681D12A2B708027D7F6C4D
:10A27000CC800A12A291780312A2A20BC07E732A8C
:10A2800070BC7C38EE0BD0BED00250024103DA3BEA
:10A29000220AEC097E2ADC0A375E3400010AEDBD91
:10A2A0003E227402ACBC7F162D350B1AE09DE77F71
:10A2B000152D351B1AE0220A176D007F14121E524D
:10A2C0007D731220307DE37D3F122030BD3E22CAD7
:10A2D000D8CA797CFB7F70C2006CDD6DDD7E3422D4
:10A2E0003C7E2400FF7E141F34740C121EA76D11D7
:10A2F0007E047FFF6CEE801312A3E37DC3BDDC50B0
:10A30000027DDCBD0C28027D0C0BE0BCFE38E9BEF2
:10A31000D4001E580A7EB3289470046D3361D4BEF5
:10A32000D404B00802D2006CEE7404ACBE49451FE0
:10A3300034BD4D580649D51F3680070BE0BEE003FB
:10A3400040E7BEE00378046D3361D4BD0D080530ED
:10A3500000027DD09F556CEE800B12A3E31A261AE3
:10A36000242F510BE0BCFE38F10A1F12A3D99F55D0
:10A370006CEE80227402ACBE7F172D350B1A907DD7
:10A38000391220307DC3BD1C280A7D391A261A24B3
:10A390002F510BD00BE0BCFE38DA6D11BED0002877
:10A3A000050A1D12A3D9BD1D08047D1D800A6D007C
:10A3B0009D0DBD0108027D106CEE80127402ACBED2
:10A3C0007F172D350B1A009D011B1A000BE0BCFEF8
:10A3D00038EA7D31DA79DAD8226D007F15121E5203
:10A3E0007D13227402ACBE7F172D350B1A3002206C
:10A3F00030CAF87F716DDD6CAA7EF080C2006D44BA
:10A40000803212A49212A3EBBD3D482612A4920BF7
:10A410001A30BE3400000804D2008009122030BD7A
:10A420003D6802C2007D343E342D3F7D2E12A3EBE9
:10A430007DD30B447EC535BDC438C730000C7EF0DB
:10A440007F80070BA0BEA00850117CBA7D3D60053F
:10A450000E341478FB0ACFBD3C18E87F102E35353A
:10A460007A1BA06D4480217D543E547F172D350BFF
:10A470001A307F602ED5357E6BB060050E341478AF
:10A48000FB7CB712A7BF0B447E5535BD5438D8DAD4
:10A49000F8227DC43EC47F172D3C22CA3B7A0D2F83
:10A4A0007CCB7EB32B1DF5337EB32B0FF5347ED3DF
:10A4B0002B147EE32B1F7EF32B207E340038CA3909
:10A4C0007E1834007E0824F2121FC91BFD7E340062
:10A4D0008CCA397E1832BA7E08252A121FC91BFD84
:10A4E0007CBC12AF5D74017AB32B1D7405ACBC1239
:10A4F000A7AB7405ACBC127FE87405ACBC127FF14D
:10A500007405ACBC09752637BE732B6268067A7376
:10A510002B62D210C20012A63012A58E124EBB3092
:10A520000FFD740112000E7E1440007D317E2F134A
:10A53000867D257E040DC81278EF12A6B57A5535B2
:10A540007E0D2F7E180DC812A3F112A754E5337AA1
:10A55000B32B1DE5347AB32B0F7AD32B147AE32B6C
:10A560001F7AF32B207E340038CA397E1824F27EFD
:10A57000083400121FC91BFD7E34008CCA397E18B6
:10A58000252A7E0832BA121FC91BFDDA3B227AB394
:10A590002B0F124FE230100CC21012A7C73000046C
:10A5A000E412074530000912AF2B12ABCE027F50E8
:10A5B00022CA3B7EB32B0F7AB31F337EF32B62127A
:10A5C000A63D7CDBBED0FF68646CCC12A630F52AB9
:10A5D0007E732B0FBE712A68367E7004AC7D0A2C08
:10A5E0001244AF7CEBBEE00238430A0E7E1402E058
:10A5F000AD102E1416936D007A0D2B7E701DAC7E5F
:10A600002E34386A6D227A1F38667CBC12A49B0BEC
:10A61000C0BEC00440B57E732B62BC7F68067AF36F
:10A620002B62D210D2007EB31F3312A58EDA3B22EA
:10A630007405ACBC09B52633227EB32B0F7CAB6C02
:10A64000777E5005AC5709622633BC6A78037CB725
:10A65000220B70BE700440E974FF227C2B7EB31F76
:10A6600033BC2B684F12A63D7C3B7CB212A63D7CCE
:10A67000ABBE30FF683EBEA0FF68397E7004AC738D
:10A680000A2A1244AFBEB002382A0A2B7E3402E0F6
:10A69000AD322E3416936D22301B0302A6CE7EB34C
:10A6A0002B1DB4010F12A6B57A552A7E080DC87469
:10A6B0000102A6FF227EA32A6E7EB32A6DA4227C0D
:10A6C000AB12A7A3D21B7CBA12A65BC21B227C7B57
:10A6D000906093E4930A1B7E632A710A062D017E23
:10A6E000632A6E0A16AD107D2112A7B40A267A25B8
:10A6F0002A741DAC7B2E34386A6D22E402A6FF7CDE
:10A70000AB6D4480294CAA681112A74260053EE453
:10A710001478FB12A7362DFE800F12A74260053E6B
:10A72000E41478FB12A7369DFE1B6AF00B447EF5FD
:10A730002ABDF438D0227DF43EF47F602DDF0B6A11
:10A74000F0227F712DF47E7BB01AEB7F612ED52A2B
:10A750007E6BB022906093E4930A0B7E732A710A99
:10A76000172D107EA32A6E0A3AAD137D216C33801B
:10A77000200A032D023E047E7F33DE2DF00B7A008B
:10A780007E9002AC9349F4138E9D0F590425B60BAD
:10A7900030BCA338DC7A35357E0F38667E1825B696
:10A7A00002A3F1A9D1CB740102000E097526347AF7
:10A7B000732B14223E247E0F33DE2D12220A4A7F91
:10A7C000102D347A1BB0227E082A6D1202647E0896
:10A7D0002A6D74030210427EA32B62BCAB68067A1A
:10A7E000B32B62D210301009C21012A7C7E40207BF
:10A7F00045227EB32B1DB4013112C15C7E1F33DEB6
:10A800007A3724FA7E340DC87A3724F612A82B1230
:10A81000A834E47AB324F57E3400207A3724FC7A15
:10A82000B324F47E0824F2020B7E227E732A6D7A12
:10A830007324F2227E732A6E7A7324F3227CAB7E19
:10A840000829BC1228C8281F0A3A7F702DF37E7B86
:10A85000B0B402047401800274037A7BB074032DD7
:10A86000317D2039B1000A22CAD8CA797E346143C9
:10A870007E2400FF0B1A40906135E493700221188A
:10A880009060A7E493700221186CFF21117E70097B
:10A89000AC7F09E3290C5EE00F49C3290A7E1460EE
:10A8A000D17E0400FF0B0A202D24BDC2404249D3B3
:10A8B00029087D3D12A91D7CDB9060A7E493BCBDF7
:10A8C000380E7D341B341277907CBE12A83D803F39
:10A8D0007E7002AC7D2E3460C5125FE57409ACBF9A
:10A8E00059D529087E3460CF1222F4127790801F48
:10A8F000BDC4401B7D542E54000ABDC540057CBE1E
:10A9000012A83D7DC41BC47409ACBF59C5290A0BEC
:10A91000F0122B622802018DDA79DAD8226CAA8033
:10A92000277E3004AC3A7DF12EF460B17EE400FF66
:10A930000B7A20BD23380F2E1460B37E0400FF0B6A
:10A940000A20BD23500B0BA09060A7E493BCBA383B
:10A95000D07CBA227CAB9060ABE493BCB778097C26
:10A96000BA126F055002D322C3226C669060A7E42E
:10A9700093BEB00028719060AAE493706A7EB328F9
:10A98000A8B401637E7326F2BE7000285A6C33802F
:10A990004E0A23097226E67EB32A6E14BC7B783DEC
:10A9A0006C2280277CB27C7312A954501C0A227E30
:10A9B000732A6E0A072D023E04492004FC6D009E96
:10A9C000072A4FBD2058020B600B207E732A6DBCF6
:10A9D0007238D1BE60002803740122E4220B307E5D
:10A9E0007326F2BC7338AA7401229060A7E49360C6
:10A9F0002B6C33801F7CB3126F0540167CB3126D35
:10AA0000DA7D436D557D043E047E1F138A2D301B75
:10AA10001A500B307E232A75BC2338D92212AA2F54
:10AA20007E146207125FB82803D21722C217226D64
:10AA300011E412001E6CAA805B7E1002AC1A7E7FAD
:10AA400039FC2DF069270100693700809D32122002
:10AA500030BD3128167E7002AC7A7E0F39FC2D1382
:10AA600069200100693000801294C07E1002AC1A87
:10AA70007E1F39FC2D3069010080BE047FFF780401
:10AA80007E147FFF69010100BE047FFF78047E14FD
:10AA90007FFF0BA07EB32A74BCBA389D7D31227E25
:10AAA00060047E27344BBE2403E828037E60087EC2
:10AAB000B328ACB4011A7E730069BC76500FE47AF7
:10AAC000B328AD127E387EB30069048004E48001AF
:10AAD000E47AB300697EB328ADB401177EA3006A9F
:10AAE000BEA005500AE47AB328AD7CBA0480057490
:10AAF000058001E47AB3006A226CAA80267E5002A7
:10AB0000AC5A491205F8493204002D31593205F882
:10AB100030060E4912047E493206762D315932062E
:10AB2000760BA07EB32A740A3B7EB32A730A2B2DC0
:10AB3000230A3ABD3248C62274027AB3006874010F
:10AB40007AB328AC02335DD2006CAA6C77801F7E8A
:10AB5000632A6E0A160A272D217C657E5002AC56A8
:10AB60004922057ABE24FE0C58020BA00B707EB35E
:10AB70002A6DBCB738D90A2B1E240A3ABD32080206
:10AB8000C200A20022C2007EA32A707EB326F1601A
:10AB900004D20080337E700280227E5002AC57497E
:10ABA0001204FC7EF461597EE400FF0B7A006D22F2
:10ABB0009D20BD125804D200800E0B700A1A9E14FC
:10ABC00000030A27BD2148D2A2002212AC817EB325
:10ABD0002B0FCA3B7CEB6CFF7E3460D67E2400FFDB
:10ABE0000B1AC07E7338F30AB77EB32B10F53612FA
:10ABF000AEBABED0043805E47AB337F70A3EAD3BAF
:10AC00007DA32DAC7535007EA337F7BCAD40028027
:10AC100019BEA00028197405A409752633BC7E78D6
:10AC20000E7CBD14BEB337F77805E47AB337F77EF0
:10AC3000C337F780417EB337F7047AB337F77E9096
:10AC400005AC9C09A42633BCAE6829E5350ADB199E
:10AC5000CD37FB0A9AAD9B2D9C7EA1357CBA04F5BD
:10AC6000357CBA7D397D2A7E3136120EC70BF0BE97
:10AC7000F00350060BC0BCDC38BB7AF337F8DA3B84
:10AC80002212AF2B74017AB337EB22CAF87CFB7423
:10AC900005ACBF12AEDC12A7AB127FE8127FF17ACF
:10ACA000F32FA97CBF12AF5D124FE27405ACBF0950
:10ACB000B5263712A7D712ABCE12225AE47AB316B2
:10ACC00091DAF8227EB337EB6006147AB337EB22C1
:10ACD00012AF929061C5E493BEB004280312ABCECC
:10ACE0007EB303AB700E7EB33A10B40107E412AC2E
:10ACF0008B12AEE512551312AD0B7EA303AB7AA3F4
:10AD00003A10BEB0FF680302AC8B22CAD8CA797E63
:10AD1000E0FF12AEFC7EB337F0B40108127B61E4B1
:10AD20007AB337F07EB337EF600474FFC12E7EB381
:10AD300037EEB402028002C12212AED4380C12AE39
:10AD4000CC38071257F33802C12212AEBA0A3D1BA3
:10AD500034BE3400034804740380037CBD1412AE77
:10AD6000337CFB7EB337ED047AB337ED9061C5E4F5
:10AD7000931412AE337CABBEA0FF682CBEF0FF680C
:10AD8000257E300CAC3F492138037EF461CC7EE453
:10AD900000FF0B7A30BD23280F12AEC23E34BD2314
:10ADA00028067CFA80027CFABEF0FF7811E47AB3C0
:10ADB00037ED7AB337EE7AB337FA74FF807090616B
:10ADC000D4E493BEB337ED5059740CACBF49253869
:10ADD000037E1461CC1252C7BD23503D7E3461D036
:10ADE0001222F4BE3737E9400D7E3461D21222F4CC
:10ADF000BE3737F450237405ACBF09752633BE73D4
:10AE00002B0F68157CEFBEE004500812A639BEB0C7
:10AE100004400674017AB337F0E47AB337FA7AB3B0
:10AE200037EEBEE0FF6805E47AB337ED7CBEDA7931
:10AE3000DAD8227C3B7E44FFFF6C22802A12AEAC23
:10AE400068237E700CAC7212AEEF7D237E700CAC6A
:10AE500072592338074903380749233803BD205066
:10AE600004590338030B20BC3250D26CAA6C2280E8
:10AE70001812AEAC68117E700CAC7249033803BD79
:10AE80000450047D407CA20B20BC3250E47E373756
:10AE9000E9BE37386250087E3738627A3737E912B0
:10AEA000AEC24D3378037EA0FF7CBA227E1005AC83
:10AEB0001209B02633BEB32B0F229061C5E4937CF8
:10AEC000DB227E700CAC7A49333803227E7326F481
:10AED000BE7000227E732892BE7000220975263350
:10AEE0007A732B0F22E47AB337EE7AB337F622491E
:10AEF000233809493338059D320220307EB337EFBD
:10AF0000B401277EB33865047AB338657E7338653B
:10AF1000BE70034015127F507E733865BE700640C8
:10AF200009E47AB338657AB337EF227E0837FF7EBB
:10AF3000340060E4121FEE6CAA7E44FFFF7E700CAA
:10AF4000AC7A59433801594338090BA0BEA00840D8
:10AF5000E87E0837ED7E34000DE4021FEECAF87C6F
:10AF6000FB7E340038CA39AC7F2E342FAA6D227E86
:10AF7000083400121FC91BFD7E34008CCA39AC7F17
:10AF80002E34308A6D227E0832BA121FC91BFDDAB8
:10AF9000F8227E3733D71224927A3738626CAA802F
:10AFA000231257E328260A4A096437FBBC6B501268
:10AFB0007E5002AC5A494233D17E700CAC67594383
:10AFC00038050BA07EB337F8BCBA38D5227D237E76
:10AFD0001461C81252C77E140005AD131E14BD12B1
:10AFE000500D7E333861BE300850457408803D7D79
:10AFF000133E14BD12500D7E333861BE3006503002
:10B00000740680287E140003AD131E14BD12500D6B
:10B010007E333861BE300450177404800FBD325047
:10B020000F7E733861BE7002500674027AB33861C5
:10B030007EB33861BEB000281B147AB33861740146
:10B040007AB316929061FDE493BEB338615005E483
:10B050007AB3169122128FDC12B0B7906050E4934D
:10B060000A3B7D132E142A7A6D0009B32A7912B097
:10B070009E0A3B7D132E142B216D0009B32B201249
:10B08000B09E0A1B2E142A7C12B0ABE52512B0A28A
:10B090000A1B2E142B2312B0ABE524021FEE7E34C4
:10B0A0000002121FEE906050E493226D00906091B8
:10B0B000E4930A3B1B35226CAA6C99800C0AF909AF
:10B0C000BF2A7ABCBA68070B9012B0E338EF12B00F
:10B0D000E368070BA0BEA02340DF7A0BA0746E7A52
:10B0E0001BB022906050E493BCB9226D337D237D68
:10B0F000036C3380456C2280377EB32A6EACB30A72
:10B10000422D547D453E447E7F138A2DF40B7A40B8
:10B11000BE4400320808BE44025858020B24BE4404
:10B12000FFCE5808BE44FDA808020B040B340B21C7
:10B130007E932A6EBC9238C10B317EB32A6DBCB3AC
:10B1400038B37E540006AD537D151E141E141E1414
:10B15000122494BD125022BD30281EE47AB33A0462
:10B160007EB33A05BEB0055007047AB33A05803C79
:10B17000E47AB33A057401802FBD105022BD322805
:10B180001EE47AB33A057EB33A04BEB00550070414
:10B190007AB33A048016E47AB33A0474028009E47C
:10B1A0007AB33A047AB33A057AB33A067EB33A06EA
:10B1B00022E47AB328A87AB33A0722CAD8CA79C255
:10B1C000006CDD7E5728997DF57EE728977E37391C
:10B1D000214D3368047DF50EF46CFF7EA32A6E7C4E
:10B1E0008A7EB328A514682114681424C268082430
:10B1F000FB6816244578107CFA7E832A6D800A7ECF
:10B20000732A6D2C8780026C886C99800F7CB91230
:10B210004759BE34025808020BD00B907E33288465
:10B22000BC3938E9BED0034002617C7EA32885BECC
:10B23000A000380BBE300028377EB3268370316CF7
:10B240009980290A290A3F2D323E344923057ABDC7
:10B250002F0817490304FCBD0E580F6D339D3E1295
:10B260007FC9BD030804D20080060B90BC8938D387
:10B270006DEE9EE72A4FBEE707F80802C2003000D5
:10B28000207EB33A07047AB33A077E233A07BE20FA
:10B290000A281D740A7AB33A0774017AB328A88081
:10B2A0000F7E233A07BE200028061E207A233A0785
:10B2B0006CEEBE30003805BEA00028697EB328A71A
:10B2C000B401097EB328AABEB00168597EB328A88C
:10B2D000B401526C99801D7E7002AC7909A326FAE4
:10B2E00009D326FB12B381BE34009608057EE00127
:10B2F000800A0B907EB32884BCB938DB6C99801D22
:10B300007E7002AC7909A3273609D3273712B3819F
:10B31000BE34FF6A58057EE001800A0B907EB32898
:10B3200085BCB938DB6C9980170AE90A5F2D5E3E4F
:10B33000544955057ABD5F08057EE00180060B90F3
:10B34000BC8938E54CEE78257EB33A08047AB33AE6
:10B35000087E733A08BE7005282274057AB33A084D
:10B360007EB328A86002D21912B1B1800F7E733A61
:10B3700008BE700028061E707A733A08DA79DAD8A7
:10B38000227CBA7C7D024724CA3B7CFB753D007E53
:10B39000B32A6FF5427EB32A70F5437544287ED3F5
:10B3A0002884E47AB3028E7AB3028A7AB3028B7E5F
:10B3B00008028F12B763E4121FEE12B7633E347EA9
:10B3C0000802AFE4121FEEBED0025002E1606CCC66
:10B3D000E15A1287DAF52409B326FBF5254CCC682F
:10B3E000080A3C09B3028F700A0A3C0B340A2C1974
:10B3F00072028F7CBD14BCBC7802E1600A5C0B5405
:10B40000F52EE1517E712E1287F37AA12609B3261B
:10B41000FBF5270A2AE52412856A7CB7F528E5277B
:10B420000A2BE52512856A7CB7F529E528BEB0050B
:10B430004002E14FE529BEB0054002E14F12B76A74
:10B44000128E417AB3028D8525548526558527565F
:10B450007E0800317E180033E52412BC56753D008D
:10B460006CEE753000E5247E71251247247A35355F
:10B47000E5267E71271247247A35377E3535BE356D
:10B480003708057E353780037E35357A353B0E34F7
:10B490007A3539E528BEB001382CE529BEB001382F
:10B4A000257CBF30E120E5267E71251247247D43AF
:10B4B000E5247E71271247242D34BE35391802C188
:10B4C000EA753001C1EAE528BEB0013809E529BEB8
:10B4D000B0013802C1EAE528BEB0054002C1EAE584
:10B4E00029BEB0054002C1EA7CBF20E002C1EA6D7E
:10B4F000337A354D754F007A3550755200C202C20D
:10B5000003E526BEB1242804E5248002E526F52AB9
:10B51000E526BEB1245004E5248002E526F52CE59D
:10B5200027BEB1252804E5258002E527F52BE52770
:10B53000BEB1255004E5258002E527F52DE52CBE9A
:10B54000B12A7829D202E52A6008E54214BEB12A60
:10B550007802D203E52ABEB0002802152AE5420A85
:10B560002B1B24E52C0A3BBD325802052CE52DBED1
:10B57000B12B7829D202E52B6008E54314BEB12B2C
:10B580007802D203E52BBEB0002802152BE5430A52
:10B590002B1B24E52D0A3BBD325802052D852A3E82
:10B5A000805B852B3F804DE53E7E713F1247247ABC
:10B5B0003540E52ABEB13E6815E52CBEB13E680EA9
:10B5C000E52BBEB13F6807E52DBEB13F780D7E3556
:10B5D000402E354D7A354D054F801705527E35404A
:10B5E0002E35507A35507E3533BE35405802053DF4
:10B5F0000BE0053FE52DBEB13F50AC053EE52CBE4E
:10B60000B13E509EE52C7E712B1247247E454D9D08
:10B6100043E52A7E712D1247249D43E52A7E712B36
:10B620001247249D43E52C7E712D1247247D237DF6
:10B63000349D327A354D7E35372E35357A35393071
:10B64000021020030D7E354D9E35397A354D154F4C
:10B65000154FE54FBEB0042806E54F24FCF54F7E9C
:10B66000354DBE34000058056D337A354D7544288C
:10B67000E54214BEB124680DBEB1266808E5246019
:10B6800004E526700812B776280375442C7E155001
:10B690001A021A007E354D1A261A242F10E5440A84
:10B6A0001B6D00121DE57F717A7D457E15391A02EA
:10B6B0001A007E35311A261A24121DE5E5520ADBDE
:10B6C0006DCCE54F0A1B6D002F06121DE57A1D4952
:10B6D000BF710803753002C201200C0E12B76A1246
:10B6E000B77E9201200103753000E530BEB000281E
:10B6F0005EE5300A3B2E340289127643E52E0A3B82
:10B7000009A3028F4CAA780C0A2C09B2028F19B334
:10B71000028F803B0A2C09B2028FF553BCBA280372
:10B720007AA153752F0080220933028FE52F0A2B4F
:10B730000922028FBC23680A0A0C0930028FBC233D
:10B740007806E55319B2028F052FBED12F38D905DF
:10B750002EBED12E280281040BC0BCDC280261D28F
:10B76000DA3B2290609A930A3B22E5247E71257E83
:10B7700061267E5127227E73028DBE70052212BB88
:10B7800077920430040C7EB302EBBEB0FA50110481
:10B79000800A7EB302EBBEB0002805147AB302EB38
:10B7A0007EB302EB7002C322D3226CAA12B7EB293C
:10B7B0008100057C985E90013E901286F97CB85419
:10B7C000FD4CB97A0BB029B1000530E01630E21318
:10B7D000C423541FB4010C7F010B167E0BB01EB0A6
:10B7E0007A0BB00BA0BEA01E40C2227E7006AC7ABF
:10B7F0002E3402EC6D22227E37288ABE3403E808FC
:10B800000A12B80DBEB0084802D322C322CAD8CA51
:10B81000796CFF6CEE800F7CBE129E647CDBBCFDFD
:10B8200058027CFD0BE01247EC38EC7CBFDA79DA89
:10B83000D822CA3B7F407EE328846CDD7EC0018035
:10B840001A0A3D2D397D287E1B600A2C7F042D129B
:10B850007E0B70BC7640027CDC0BC0BCEC38E20A8C
:10B860003D2D397D287E1BD06CFF7EC00121807567
:10B870002D006D337A352E7A35257A35277E181FBF
:10B88000707A1D2974FF7E341F717E2400007A1B9C
:10B89000B07E1D297A1BB0E47E1D2939B100037EDC
:10B8A0001D2939B100027E1D2912BB6244017A1B99
:10B8B000B0752400806C1287F0099326FBE52412F2
:10B8C000729FBCBC785A052D0A3A2E35257A35254B
:10B8D0000A392E35277A3527124720BE352E08061D
:10B8E0001247207A352E7E1D297E1BB0BCBA280354
:10B8F0007A1BA07E1D2929B10002BCBA500439A1CF
:10B9000000027E1D2929B10001BCB928043991002B
:10B91000017E1D2929B10003BCB9500439910003EF
:10B920000524BEE124388FE52DBEB00028507E0DE1
:10B930002912B996E52D0A2B7E15258D127A15252B
:10B940007E35278D327A35277E552512B98E19A37B
:10B9500002AF7E552712B98E19A302B07E3702AD11
:10B960004D3368187E55257E35271247247E252EB7
:10B970007E7002AC7F2E3702AD1B38200BF00BC05F
:10B98000BCDC4002016F12B7AA7CBFDA3B227CAB61
:10B990007E7002AC7F22CA797F707EB4FFFF6CEEAE
:10B9A000C201C202296700027E7B70BC76780E2934
:10B9B00067000329770001BC767802D2026CFF127F
:10B9C000BB6A6DAA29B6000520E10241507F067EC0
:10B9D0007BB01287BD502D7F0629B700021287BDAC
:10B9E00050227F0629B700016C7712878550157F9A
:10B9F0000629B700036C7712878550087CEFD201C7
:10BA00006DBB80557E6B700A277E7B70122E722D67
:10BA1000A3297600020A2729770002122E722DA38D
:10BA2000297600010A2729770001122E722DA329F9
:10BA30007600030A2729770003122E722DA3BDABCF
:10BA400050047DBA7CEFBEA400043804D201800902
:10BA50000BF0BEF01E500221BF20010B200208BED9
:10BA6000B400085002D20120010261117406ACBE7C
:10BA700012BB6E297600057CB7C423541FBEB01FCD
:10BA800050167F062E1400057C672E60085E60F855
:10BA90005E70074C767A0B7020021129B60004BE46
:10BAA000B0FA50087F160B36047A1BB029670003E2
:10BAB00029760003BC7628062976000380042977BE
:10BAC0000003397600032967000229760002BC765C
:10BAD00028062976000280042977000239760002C0
:10BAE0002967000129760001BC76500629760001FD
:10BAF000800429770001397600017E7B607E6B70BF
:10BB0000BC7650057E6B7080037E7B707A6B708094
:10BB1000316CFF7406ACBF09B502F130E1070BF0E0
:10BB2000BEF01E40EEBEF01E5033740139B7000463
:10BB300012BB6A7E340006CA397F177F06121FC9FE
:10BB40001BFD12BB6044017A1BB012BB6044027A39
:10BB50001BB030020812BB6044047A1BB0DA7922B1
:10BB60007F162E3400057E1BB0227406ACBF7DD537
:10BB70002ED402EC6DCC22CA3B7C457C067C577CE3
:10BB80001B7E3404FC7EB326837EF32A6E7C317CDC
:10BB9000E07C257CA4BC0150047C307CE1BC455099
:10BBA000047C247CA5BEB0015002813C7E9002AC96
:10BBB0009F7E5002AC532D242D230B28207E100293
:10BBC000AC1E2D042D030B08400A030B047C3180AE
:10BBD000287ED002ACDF7E1002AC132D0612BC40D2
:10BBE0005815ADF4BDDF580FBE2400000809BE444F
:10BBF00000000803C380460B30BCE338D47E5002FB
:10BC0000AC522D230B28207E9002AC9A2D430B487A
:10BC1000400A120B1480217E1002AC1312BC405853
:10BC200015ADF4BDDF580FBE2400000809BE440066
:10BC3000000803C380070B30BCA338DBD3DA3B22F8
:10BC40002D030B08007EF400097DB2ADBF7ED40049
:10BC50000AADD0BDDB22CAF87CFB7F617F507E3409
:10BC6000220E7E2400FF7E141F70742A121EA77EEF
:10BC7000481F7012B7F7920C7CBF7E715412472494
:10BC80007D43E5557E71561247242D340E347F04D2
:10BC90007E50070B0A50BD535810693000021B5AE2
:10BCA00030693000041B6A3080082E1400061B50D7
:10BCB00078E112B776282B0B5A207E34000DAD3276
:10BCC0007E240010121DB31B5A300B6A301A261A3C
:10BCD000247E14000D121DF67E080010121E521B49
:10BCE0006A30DAF8226CAA801C7E5002AC5A4912E3
:10BCF00013C64932138EBD3128092E24138E9D316F
:10BD00001B28300BA07EB32A6EBCBA38DC22CA7B5B
:10BD1000CA6BCA5BCA4BCA2BCA1BCA0BC0D0C08332
:10BD2000C082125FFDD082D083D0D0DA0BDA1BDA6A
:10BD30002BDA4BDA5BDA6BDA7B32CA78A931E506AB
:10BD4000A9D5EAA9C5EAA930E519A9D09EA9D49E2A
:10BD500005677E73344DBE71673802D21CA9D09E30
:10BD6000A9D79EA934E505A9C4CDC295A932E5039A
:10BD7000A9C2CDA933E503A9C3CDA937E503A9C756
:10BD8000CDA936E503A9C6CDDA7832C29AA9D4A6E0
:10BD9000C288D2A8227E14D7E87E0400FF7E3447F2
:10BDA000527E245550793000021B0A207E344520F3
:10BDB0007E24414479300006792000047E34993392
:10BDC0007E2466CC7930000A792000087E34414711
:10BDD0007E24464C7930000E7920000C22A9D5CB68
:10BDE00074101200667C7B1236C830E7037E700246
:10BDF000D2CD7E2400EF7E0F33C5792000847E24CF
:10BE0000205F7E0F33C5792000827E2441007E0FA3
:10BE100033C5792000907C676C772E3400C17E0F8B
:10BE200033C5793000867E3429907E0F33C5793052
:10BE3000008A7E346AD17E0F33C57930008C7E341F
:10BE400003617E0F33C57930008E22A9C6EBA9D6D7
:10BE5000ACA9D6ECD286A9C2EBA9D2ACA9D2ECD2BD
:10BE60008222759A2FA9D199D29CA9D6DF22C28E9F
:10BE7000438920758D01758B00D28ED2AB2275B7A8
:10BE80000075B80075F70075F800A9D0B7D2B8A949
:10BE9000D5B7D2BDA9D0F7D2F8A9C1B7C2B9A9C345
:10BEA000B7C2BBA9C6B7C2BE227E37344B0B347AA9
:10BEB00037344BBE34FF0040087E34FF007A3734FD
:10BEC0004B226D22801375B500A936B3FCA9C6B309
:10BED000E5B57A0BB00B140B24BD3238E9226D3373
:10BEE000906091E493BEB000280302C0709060920D
:10BEF000E493BEB000280302BF4B2212A7A37E34F6
:10BF00000DC87EB32A6D12BF1712BEDE7A3733DB3F
:10BF100074017AB31691227AB324F27E532A6E7A90
:10BF20005324F37A3724FAE47AB324F47AB324F569
:10BF30007E3440007A3724F67E34002012BF42025D
:10BF40000B7E7A3724FC7E0824F222CAF86DEE7D3F
:10BF5000FE7E832A6E0AD8906094E493B4FF2F7E0D
:10BF600008138E6CAA80187E7002AC7A492313FEE7
:10BF70007F502DB30B5AC09DC259C313C60BA0BC32
:10BF80008A38E4906092E4937C9B6DDD80117E089A
:10BF900013FE906092E4930ACB1BC47D3C7C976CAB
:10BFA000FF80386CAA80280A3A7D232D2E3E244932
:10BFB000C213FE2D3D3E342D317D200B1AB07D3C49
:10BFC0009D3B1220307DA3BDFA58027DFA0BA0BC28
:10BFD0008A38D40AC82DEC2DDC0BF0BC9F38C47D08
:10BFE0003FDAF8227EB303C0227CAB9F11300022DF
:10BFF0006C99801A0AF92DF17DE07E7BB07E780085
:10C000000160052F771478FB4D3F4D2E0B90BCA996
:10C0100038E2227E081F3412C0496C77800E12C0AD
:10C020005B500712C05219511F340B707E532A6E99
:10C03000BC5738EAA9C6EA7E081F34E4121000A9EA
:10C04000D6EA7E081F340210007E34001C743F02C2
:10C050001FEE0A2709522B440A16220A2709622AD0
:10C06000DCBE601C227AB303CB22906181E4932270
:10C07000CAF86D447EF32A6E906093E4930AFB7EC7
:10C08000B32A6D0AEB2DEF0AFFADFE0AEF2DEF90FC
:10C090006094E493B4FF317E08138E6CAA80230A67
:10C0A000DA2DDF3ED47E1F33DE2D3D0B1AD07E50BD
:10C0B00002AC5A7F502DB20B5A309D3D593213C6F7
:10C0C0000BA0BCFA38D9800A7D5E3E547E0F33DE69
:10C0D0002D156CAA802C0AEA2DEF3EE47E1F33DE7C
:10C0E0002D3E0B1AE07E7002AC7A2D317D200B1AAA
:10C0F000D07D3E9D3D1220307DC3BD4C58027D4C0D
:10C100000BA0BCFA38D07D34DAF8227E432A6E7E4A
:10C11000532A6DAC547E1728A112C15C6D00803784
:10C120007D403E447E7F33DE2DF40B7A30BD1358C4
:10C13000107DF42EF4080A0BF8509D511BF8508026
:10C14000146D559D51BD53080C2E44080A0B4850E0
:10C150002D511B48500B04BD2038C522A9D1CBE47A
:10C1600002000E7E2728A36D119D126CAA806430F8
:10C17000052E7E9002AC9A493405F849040400BDAE
:10C180000208117EB325F6B401167DF22DF359F4A1
:10C1900005F8800CBD0158087D039D02590405F87F
:10C1A00030072E7E9002AC9A493406764904047E0C
:10C1B000BD0208117EB325F6B401167DF22DF359A8
:10C1C000F40676800CBD0158087D039D02590406D3
:10C1D000760BA07EB32A740A0B7EB32A730A4B2D0A
:10C1E000400A0ABD044888226C338009E40A3319E6
:10C1F000B327720B3090609AE493126D320B240ACD
:10C2000033BD3248E7E47AB328847AB328856D33A6
:10C210007A3728867A3728887A37288A7A37288E94
:10C220007ED41F365ED4FFFE6DCC7E1F138A7A3714
:10C230001F767D3D7A371F7A7E34159E7A371F78B8
:10C240007E732A6D7A731F737E732A6E7A731F72E0
:10C250007E372A5C7A371F7C7E372A5E7A371F7ECC
:10C260007E372A607A371F8090609A937AB31F7462
:10C270007E733A0E7A731F757E081F727E181F82B6
:10C280001206747E731F827A7328847E731F837AEA
:10C290007328857E371F847A3728867E371F867AF3
:10C2A0003728887E371F8C7A37288A7E371F8E7D05
:10C2B000237A53288C0A367A73288D7E371F887A22
:10C2C00037288E7E371F8A7D237A5328900A367A44
:10C2D0007328916C33801B122EEC7402ACB3494569
:10C2E000159E0A387C27192526FA7C29192526FB54
:10C2F0000B307E232884BC2338DD6C33801B740212
:10C30000ACB37F162D350B1A400A387C2719252728
:10C31000367C29192527370B307E232885BC233806
:10C32000DD227C7B0A579E5400200E540E540E547E
:10C330000E547CAB7C675E60F0A5BE201D7CB754BC
:10C340000F7E24000160053E241478FB7E7333F9D0
:10C350000A475D427E7303F18036A5BE301812C3D2
:10C360009560053E341478FB7E5333FA0A455D43ED
:10C370007E7303F2801A12C39560053E341478FB75
:10C380000A2A09B233F90A4B5D430A5A097503F3C5
:10C390000A575D54227CB7540F7E340001227EB3CD
:10C3A00003F0700612C3D702C7901250FD12C79651
:10C3B000500A12C3DD7C3B12C3D7800512C83D7CF6
:10C3C0003B4C3368117CB312C322600A7A3303F307
:10C3D00074017AB32A0822E47AB32F802212C6DCD1
:10C3E0007A372F9C12C6677A372F9E1255F5600157
:10C3F000227E732FA80A377A35247E082BBF7E1839
:10C400002F8002C405CAF87E45247CB97AB3396509
:10C4100074FF7AB339646D5580197DF53EF412A727
:10C42000387DE53EE459FE1F3469F6000259FE21CD
:10C43000140B54BD4538E37E333965BE30043802F1
:10C4400081C769F1001C6911001EBD1F18194D112B
:10C4500078047E1400017D3F7D21121DB37CF774AA
:10C46000407AB3396880434DFF78047EF400017D43
:10C47000317D2F121DB37CF774807AB339687D0F3C
:10C480002D0FBD0108241A021A007E7339680A377D
:10C490006D22121DE57D5F1A4A1A487D1F1A021A85
:10C4A000002F02121E017A733968BEF0055814126B
:10C4B000C4E612C6E512C4E612C4EF12C4E612CBFB
:10C4C000DB800A747D8002747F7AB33964E47AB3C6
:10C4D00039657E7333FFBE73396448067EB33966AF
:10C4E0008001E4DAF8227E081F347E18211422CA63
:10C4F0003B7F717E60010B0A200B7A507C4B7A5394
:10C5000022F47A4323E47E70017EA001C1107E9064
:10C5100002AC9A7F602DD40B6AD07D7D7CBFF5265E
:10C520007F672DD40B6A400AD50ABB7DAB9DAD7DDC
:10C530007A7C8FBE800058056E80FF0B800AA40AAB
:10C54000799D7ABEF00058056EF0FF0BF0BE8002B8
:10C550005807BEF0025802C10EBE60001802A1F6D4
:10C56000BE70EC2802C11ABE80085805BEF008480B
:10C57000610AA70BA47D6A7C7D0AA52DAB12C65E5D
:10C5800019BA22F40AD90AA42DAD12C65E19BA232B
:10C59000E409BA22F40ADB0AC52DCD0EC47D6C7CF9
:10C5A000BD0AC719BC22F309BC23E40ACB0AA42D97
:10C5B000AC12C65E19BA23E32DDB12C65519BD2293
:10C5C000F50AD912C65319BD23E50BD57D6D7C7DC7
:10C5D0008024BE80045805BEF004481AE5260ACB24
:10C5E0000AD512C65319BD22F40AC90AD412C65379
:10C5F00019BD23E40B70BE70F0501F7E51267C499C
:10C60000E5260AD719BD22F4199D23E40B700BA06F
:10C610007EB33965BCBA2802A10E7A7339657EA053
:10C620000180250A3A09B322F40A2B7E7002AC7A03
:10C630007F602DD31B6A200A2A09B223E40A4B2DFE
:10C640003F7D2E1B1A400BA07EB33965BCBA38D390
:10C65000DA3B222DDC0ED47D6D7CBD0AD7220EA4E0
:10C660007D6A7CBD0AA7227E372F969E372F8E22A9
:10C670007E172F90BD13280A7A372F907A272F9292
:10C6800080107E172F88BD1350087A372F887A279D
:10C690002F8A7E172F8EBD12280A7A272F8E7A377F
:10C6A0002F8C80107E172F96BD1250087A272F9658
:10C6B0007A372F947EB32FA8B40A0F12C6DC7A37CC
:10C6C0002FA012C6677A372FA222B4140E12C6DC2E
:10C6D0007A372FA412C6677A372FA6227E372F8883
:10C6E0009E372F9022CAF87F517F407E372F907A55
:10C6F000352A7E372F8E7A352C7E372F9C7A352639
:10C700007E372F9E7A35286CFF801E7E3400267E71
:10C7100014002F7409121E867402ACBF7F042D15FD
:10C720007F152D3512C7340BF07E733965BC7F3809
:10C73000DADAF8227F717F607E352FBE3400003850
:10C74000077E3400017A352F7E3531BE3400003843
:10C75000077E3400017A35310B6A309E35336D2205
:10C760007E33396712C7897E152F121DFF1B6A3071
:10C770000B7A309E35356D227E33396812C7897E3B
:10C780001531121DFF1B7A30220A136D00021DE5C0
:10C79000E47AB339E6227EB32F80B40402D322C3F5
:10C7A000227DF27DE37E082F807E340028E4121F74
:10C7B000EE7E082BBF7E3403C0121FEE7AB303F364
:10C7C0007E34628E1222F47A372BB77AE72F847A7E
:10C7D000F72F867AE72F887AE72F8C7AE72F907ADF
:10C7E000E72F947AF72F8A7AF72F8E7AF72F927A9B
:10C7F000F72F967AE72BBB7AF72BBD7AB32FA87465
:10C80000027AB32F7F2274FE7AB303F3E47AB32F54
:10C8100080227D133E143E143E147E3739EB9E3742
:10C8200039E7122030BD3138127E3739ED9E373965
:10C83000E9122030BD313803740122E422CAD8CA7B
:10C84000796CFF6DDD7DED7DFD7ED32A027EE32ACE
:10C85000037EB339E660117EC739EF4DCC780221F3
:10C8600031BED00128022131BED001781DBEB004F6
:10C87000780221317EE729087EF7290A7D3E7D2F47
:10C880001254DABEB001780221317EA339E67CBAB7
:10C89000146829146854146823147802212E0BB2EA
:10C8A00068022131BED001680221404CEE680221AD
:10C8B0004074017AB339E612C95380654CDD781DA6
:10C8C000BEA001780C74027AB339E67E34626480CB
:10C8D0005474047AB339E67E346268804812C95CC5
:10C8E00090625712C94768498056BED00178514CB2
:10C8F000EE784D12C95C7E3462601222F47E1462BE
:10C90000647E0400FF0B0AC09DC3BEC739EF4021FF
:10C9100090625612C947681912C95374037AB33921
:10C92000E67E3462641222F47A3739EF80127EF0A8
:10C9300024E47AB339E66D337A3739EF7CBF80026D
:10C940007CBFDA79DAD822E4930A3B12C8120ADBF8
:10C950004DDD227AE739E77AF739E9227AE739EBD0
:10C960007AF739ED22CA3BF52A7F317A0D26E47A2F
:10C97000B322F67AB322F77AB322F87E3403E87A48
:10C980003722FD743C7AB322F5752F46752B006172
:10C990005612CB91281E7E340044CA397E712B7406
:10C9A00044AC7B2E3413067E2400FF7E0822FF1247
:10C9B0001FC91BFD6D337A3722F97A35307A372259
:10C9C000FB7A35327A35347E3422FF7A35367E343E
:10C9D000231F7A3538752C008059E52C0A3B7E0DD3
:10C9E0002612CB992E3536122E6F7DD37EC722FBB1
:10C9F000BDCD58047AD722FBE52C0A3B7F0312CB2E
:10CA0000992E3538122E6F7DC37E3532BD3C5803CA
:10CA10007AC5327E3722F92D3D7A3722F97D3C2EB8
:10CA200035307A35302DCD7E3534BD3C58037AC54E
:10CA300034052CE52ABEB12C38A0E52AB40A2A7E9A
:10CA40003722FBBE340040480B7E2532BE24004016
:10CA500048026154BE340060080261547E3532BE23
:10CA60003400600802615480287E3722FBBE340007
:10CA700020080B7E2532BE24002008026154BE34FB
:10CA80000030080261547E3532BE34003008026145
:10CA9000547EA33967740CA4BE5722F9580261541E
:10CAA0007EA33968740CA4BE5530580261547E15BB
:10CAB000366D007E1D26E52A129E897AB322F47E09
:10CAC00015386D007F13E52A129E89F52D7E73229D
:10CAD000F5BE7322F4387DBE712D3878E52D7E3198
:10CAE0002DAC3B1A021A007E7322F4AC771A261A78
:10CAF000242F10E52D0A5B6D447E3322F40A136D5A
:10CB0000002F02121E017CB7F52EE52FBEB12E3884
:10CB1000437E3722FB2E35322E35347A353AE52ED8
:10CB20000A2B7E3400649D323E342E353A7A353AF3
:10CB30007E3722FDBE353A081B7E353A7A3722FD14
:10CB4000E52E7AB322F77E7323417A7322F8E52B20
:10CB50007AB322F6052B12CB91280221917EA322D3
:10CB6000F7BEA12F40207EB322F8BEB0002817BE2A
:10CB7000B0FF50127E7322F60A370B347A73396491
:10CB80007AB339668006747C7AB339647CBADA3B4E
:10CB9000227E7333FFBE712B222D137E0B500A258C
:10CBA00022CA796CAA12CC970B7AF07D7F7CBF0ADF
:10CBB000FA19BF39697F712DF40B7A407CB90A4AA2
:10CBC00019B439890BA0BEA02040DA7E0839697EED
:10CBD000183989742012C965DA7922CA3B7F617FCE
:10CBE000507E733965BE702040527EF002803C0A50
:10CBF0003F6D2274052F111478FB7E3339650A13BB
:10CC00006D00121E017CE7BEE00250037EE0020AC6
:10CC10006F1B640A3E1B347CC77F057CBD12CC456C
:10CC20007F067CBD7C7C12CC450BF07E733965BCE5
:10CC30007F50BC7F057F1612CBA18006747E7AB32D
:10CC40003964DA3B227C977CAB7F107E3002AC3AB1
:10CC50002D137D020B0A107E1002AC197F712DF08E
:10CC60000B7A007C21A5BA00141A031B7A00BC9A27
:10CC700068246D447402A42D351B1A4022BC9A68A6
:10CC8000151A021A132D100E141B7A106D1174024E
:10CC9000A42D351B1A10227E9002AC9A7F702DF4C1
:10CCA0002274017AB32B017AB32B1D227E1805F86A
:10CCB0007A1F06F4220A477F702DF47E7B60BC6BDE
:10CCC000223E447E1F138A2D341B1A50226E34FFDD
:10CCD000FF0B347A372A5E227E7339FB0A375E34C3
:10CCE0000002227E3002AC3E2D310BA022740112D4
:10CCF00012DEE402001E740212001E7E0806FC22F0
:10CD00007A372A4F7E346157227A3728A17E3461E0
:10CD1000C2229060AAE493BEB001227E3725F47A45
:10CD2000373488227E340DC87A37348A227E7338AD
:10CD3000E37A732B20227EB339067E340004227EF0
:10CD4000B303F0BEB001227E732A02BE700022FF40
:08CD5000CD5032AFE31C033BA0
:00000001FF
